:020000040800F2
:10000000382D0020BD010008C5010008C701000807
:10001000C9010008CB010008CD0100080000000064
:1000200000000000000000000000000001060008C1
:10003000D101000800000000810500082506000825
:10004000D7010008D7010008D7010008D701000830
:10005000D7010008D7010008D7010008D701000820
:10006000D7010008D7010008D7010008D701000810
:10007000D7010008D7010008D7010008D701000800
:10008000D7010008D7010008D7010008D7010008F0
:10009000D7010008D7010008D7010008D7010008E0
:1000A000D7010008D7010008D7010008D7010008D0
:1000B00091070008D7010008D7010008D701000800
:1000C000D7010008D7010008D7010008D7010008B0
:1000D000D7010008B9080008D7010008D7010008B7
:1000E000D7010008D7010008D701000800F002F886
:1000F00000F050F814A696E8000CB244B344DA4578
:1001000001D100F047F8BAE80F000FA696E83000DA
:10011000A5EB040504EB0607AAEB0704A7F101070A
:100120004FEA15154FEA3414A4F10104AC4201D38F
:1001300000F030F813F0010F18BFFB1A43F0010371
:1001400000F001F8DBE71847281B0000481B0000FF
:10015000103A24BF78C878C1FAD8520724BF30C8F3
:1001600030C144BF04680C60704700007047000055
:100170000023002400250026103A28BF78C1FBD8B0
:10018000520728BF30C148BF0B6070471FB51FBD65
:1001900010B510BD00F0ACF8114603B400F078FCC7
:1001A00003BCFFF7F3FF00F075FC00F0C6F803B4E2
:1001B000FFF7EEFF03BC00F0CDF8000009488047D0
:1001C00009480047FEE7FEE7FEE7FEE7FEE7FEE739
:1001D000FEE7FEE7FEE7FEE704480549054A064B51
:1001E0007047000045060008ED0000083827002091
:1001F000382D00203829002038290020032A40F219
:10020000308010F0030C00F0158011F8013BBCF1B8
:10021000020F624498BF11F801CB00F8013B38BFD0
:1002200011F8013BA2F1040298BF00F801CB38BFDE
:1002300000F8013B11F0030300F02880083AC0F0F9
:10024000088051F8043B083A51F804CBA0E80810A4
:10025000F5E7121D5CBF51F8043B40F8043BAFF3D7
:100260000080D20724BF11F8013B11F801CB48BF31
:1002700011F8012B24BF00F8013B00F801CB48BF67
:1002800000F8012B704770477047704710B5203A4F
:10029000C0F00B80B1E81850A0E81850B1E8185031
:1002A000A0E81850203ABFF4F5AF5FEA027C24BF03
:1002B000B1E81850A0E8185044BF18C918C0BDE8EC
:1002C00010405FEA827C24BF51F8043B40F8043BB5
:1002D00008BF7047D20728BF31F8023B48BF11F86A
:1002E000012B28BF20F8023B48BF00F8012B7047C4
:1002F000754600F02BF8AE4605006946534620F0DF
:100300000700854618B020B5FFF766FFBDE820401E
:100310004FF000064FF000074FF000084FF0000BC1
:10032000AC46ACE8C009ACE8C009ACE8C009ACE830
:10033000C00921F007018D46704710B50446AFF3A0
:1003400000802046BDE81040FFF731BF00487047ED
:100350000800002001491820ABBEFEE7260002007D
:1003600070470000CA7802F00F0CD30644BF8B78A8
:100370004CEA030CF0B509880D0674D086465EF889
:10038000143BCC0700F110040BD023F00F0343EA19
:100390000C03282A764602D0482A02D12646012795
:1003A00037608E070BD523F0F00343EA0C13482A7D
:1003B000264602D0282A02D17646022737604E0709
:1003C0000BD523F4706343EA0C23482A264602D057
:1003D000282A02D17646042737600E070BD523F46E
:1003E000704343EA0C33482A264602D0282A02D119
:1003F000764608273760CE060BD523F4702343EAF0
:100400000C43482A264602D0282A02D176461027D5
:1004100037608E060BD523F4700343EA0C53482A49
:10042000264602D0282A02D17646202737604E067B
:100430000BD523F0706343EA0C63482A264602D0AA
:10044000282A02D1764640273760002D0AD523F0AE
:100450007043482A43EA0C7302D0282A02D174461A
:10046000802727600360B1F5807F38BFF0BD436807
:10047000CC0500F1100E00F114040CD523F00F038D
:1004800043EA0C03282A254602D0482A03D17546A0
:100490004FF480762E608D050CD523F0F00343EAEF
:1004A0000C13482A754602D0282A03D125464FF45A
:1004B00000762E604D050CD523F4706343EA0C23BF
:1004C000482A754602D0282A03D125464FF4806673
:1004D0002E600D050CD523F4704343EA0C33482AF3
:1004E000754602D0282A03D125464FF400662E60B7
:1004F000CD040CD523F4702343EA0C43482A7546F7
:1005000002D0282A03D125464FF480562E608D0450
:100510000CD523F4700343EA0C53482A754602D0E5
:10052000282A03D125464FF400562E604D040CD5E1
:1005300023F0706343EA0C63482A754602D0282AE8
:1005400003D125464FF480462E6009B2B1F1FF3F3A
:1005500001DD4360F0BD23F07041482A41EA0C738D
:1005600002D0282AF5D1A6464FF40041CEF800105B
:100570004360F0BD0000000000000000000000002B
:10058000EFF30980BFF36F8F0D4B1A6820E9F00F6E
:1005900010602DE908404FF0100080F3118800F042
:1005A0008BFD4FF0000080F31188BDE8084019680A
:1005B0000868B0E8F00F80F30988BFF36F8F7047C9
:1005C00060020020002941F21C01C4F202010A6805
:1005D0000CBF22EA0000104308607047002941F276
:1005E0001801C4F202010A680CBF22EA000010439D
:1005F00008607047000000000000000000000000DC
:10060000074B19680868B0E8F00F80F30988BFF35A
:100610006F8F4FF0000080F311884EF00D0E704781
:100620006002002080B54EF21000CEF2000000689B
:1006300001F096F8012808BF80BDBDE8804000F0B9
:100640009FBD000082B041F20400C4F2020050F8E5
:10065000041C002241F0010140F8041C0168CFF69F
:10066000FF021140016050F8041C4FF6FF72CFF6F4
:10067000F662114040F8041C50F8041C21F480215B
:1006800040F8041C016821F4FE0101604FF41F01D1
:10069000416000210191009150F8041C41F4803127
:1006A00040F8041C50F8041C01F400310091019939
:1006B00001310191009919B90199B1F5A06FF1D1FA
:1006C00050F8041C890354BF0021012100910099B6
:1006D000012953D142F20001C4F202010A6842F03A
:1006E00010020A600A6822F007020A600A6842F0F3
:1006F00002020A600168016001680160016841F45A
:1007000080610160016821F47C110160016841F49D
:10071000E811016050F8041C41F0807140F8041C9D
:1007200050F8041C89010CD450F8041C89015CBFEA
:1007300050F8041C5FEA811103D450F8041C8901AD
:10074000EED5016821F003010160016841F002016A
:10075000016000BF016801F00C0108290ED001689A
:1007600001F00C01082909D0016801F00C010829E9
:1007700004D0016801F00C010829EBD14EF60850B5
:10078000CEF200004FF00061016002B0704700003F
:1007900080B54FF08040012100F024F840B140F2D4
:1007A000D260C2F200000178B1FA81F1490901700A
:1007B0004FF080400121BDE8804000F005B8000006
:1007C000C943018270470000C9430182704700009D
:1007D0000288002918BF012122F001021144018082
:1007E00070470000028A80890A4000EA010018BFB1
:1007F0000122002818BF012010407047002A82897A
:100800000CBF22EA010111438181704740F6FF339A
:10081000B0F800C0C4F2000398420FDCB0F1804F82
:100820001ED040F20043C4F20003984218D040F6B4
:100830000003C4F20003984212D016E040F60043D1
:10084000C4F2000398420BD043F20043C4F2010308
:10085000984205D042F60043C4F20103984204D105
:100860004B882CF0700243EA020C41F2004240F443
:100870008063C4F20002934204D0CA882CF440730F
:1008800042EA030CA0F800C08A8883058285A0F1A3
:100890008042A2F5963243EA92220B88072A03850A
:1008A00007D8012303FA02F212F0E50F1CBF097A00
:1008B000018601218182704710B543F60004C4F21D
:1008C0000104204640F2255100F038F830B32046AC
:1008D00000F04CF8C1B20A2940F2B901C2F200019D
:1008E00013D1087840F2D062C2F2000210800A7878
:1008F00040F26803C2F200030020985440F2B802AC
:10090000C2F200020123137007E00A7840F2680384
:10091000C2F200039854087801300870204640F273
:100920002551BDE8104000F001B80000090A01227D
:1009300002FA01F1C943018070470000C1F342127D
:10094000022A06D0012A14BF00F1140200F10C02A1
:1009500001E000F110021288008801F01F03090A6B
:10096000DA40C840104000F00100704780886FF303
:100970005F20704710B5044600F0F2FE022818BF51
:1009800010BDEFF3058000B110BD20684FF0FF31BE
:10099000BDE8104000F0AEBD10B50446006800F0A0
:1009A0000FFB40F24C20C2F2000021680268914225
:1009B00017D0024652F8043F99420FD0024652F82F
:1009C000083F99420AD0024652F80C3F994205D09E
:1009D00050F8102F9142024618BF10BD0020106041
:1009E00010BD0246FAE70000B0B50446002040F210
:1009F0004C212060C2F200010A687AB10D4655F818
:100A0000040F68B10D4655F8080F58B10D4655F85A
:100A10000C0F48B151F8100FA8B904200D4604E09E
:100A2000012002E0022000E0032040F2BC0100EBC4
:100A30008000C2F2000101EB0011012000F0CCFBAC
:100A40002860206038B900F08BFE022803D1012015
:100A500000F0AEFB2060002080F3118820680028A1
:100A600018BF0120B0BD000010B5044600F078FEAC
:100A7000022818BF10BDEFF3058000B110BD20683B
:100A8000002100220023BDE8104000F01FBC000040
:100A90007047000084B040F60C4408200121C4F2E5
:100AA0000104FFF79BFD0420C1F20300CDF8020012
:100AB000A4F10C000DF10201FFF754FC012001210B
:100AC000FFF780FD44F61F60CDF80A0041F61F4095
:100AD000CDF8060000208DF80E000DF106014FF054
:100AE0008040FFF793FE4FF080400121FFF768FE42
:100AF0004FF0804001210122FFF780FE4EF20010EE
:100B0000CEF200004FF0805101604FF08040012193
:100B1000FFF75EFE40F2D260C2F2000001780029C9
:100B20004FF0000108BF4FF6FF71216001780029E6
:100B30004FF0000108BF4FF6FF71216001780029D6
:100B40004FF0000108BF4FF6FF71216001780029C6
:100B50004FF0000108BF4FF6FF712160DEE7000093
:100B6000F0B581B00D4642F2307140F26026C2F21B
:100B70000001C2F200060F6831680446081D00F04B
:100B800059F9601C18D1BDB142F21C70C2F20000CC
:100B90004168326891608A683368DA6032688B68CD
:100BA00004325A60326804328A60316848610168F0
:100BB0000131016001B0F0BD3068E41944600BD32D
:100BC00040F26C20C2F2000000683168043101B0CC
:100BD000BDE8F04000F04EB940F26420C2F20000DF
:100BE00000683168043100F045F942F2E860C2F271
:100BF000000001688C4238BF046001B0F0BD000005
:100C0000F0B581B0044600F065F994F94560012E15
:100C10000FDB04F1240500BF286850B1284600F01E
:100C200005FF002818BF00F0E1F970B2013E01286D
:100C3000F2DCFF2684F8456000F05CF900F04AF928
:100C400094F94470012F0EDB04F11005286850B1AF
:100C5000284600F0EBFE002818BF00F0C7F978B274
:100C6000013F0128F2DC84F8446001B0BDE8F040A7
:100C700000F040B9F0B581B0044600F015FA40F23A
:100C8000682EC2F2000EDEF8000008B154BB2EE060
:100C900040F2D360C2F20000C11D420700F50052CD
:100CA00018BF21F0070042F21471C2F200010023C4
:100CB000C1E9000322F00701A1F10802CEF80020EB
:100CC00041E90233111ADEF80020C0E9002142F2A6
:100CD000E460C2F20000016042F2E060C2F2000093
:100CE000016024B104F007001138A04205D20024AD
:100CF00000F00CFF204601B0F0BD24F0070000F129
:100D00001003012B4FF00004F2DB42F2E06CC2F260
:100D1000000CDCF800008342EAD842F21472C2F2FE
:100D2000000210684168994223D204680CB305465A
:100D30006168994213D226688EB17168994211D2C6
:100D400032687AB1516899420FD215686DB16968FD
:100D500099420DD22C682846002CE9D109E02046A2
:100D60002A4606E03046224603E01046324600E0BE
:100D70002846DEF80040A042B9D014680668CD1AB3
:100D8000112D16602ED342F21472C118C2F2000265
:100D90004D60436015688D420AD22A688A420AD2A1
:100DA00015688D4204D22A682B468A42F2D303E0AA
:100DB00013462A4600E02B465E684D689F198F4215
:100DC00002D1354419465D604E19964206D1DEF8CF
:100DD0000070BA4202D084CA2F444F608B420A602E
:100DE00018BF196042F2E4624168DCF80030C2F2D8
:100DF000000217685B1ABB42CCF8003038BF1360A2
:100E000042F2F063C2F200031F6841F00041002289
:100E10000834C0E90021781C186069E740F26020BE
:100E2000C2F20000016819B101680A6D01320A6559
:100E300000687047D0E9013201699A60D1F804C0B6
:100E400082688445536008BF4A60002202610868D6
:100E50000138086008687047704700004FF0FF31A4
:100E6000024642F8081F00214260C0E903220160E7
:100E70007047000010B5D1F800E01EF1010213D058
:100E800000F1080462681368734511D853681C6840
:100E9000744510D85A68146874450ED8546823688D
:100EA000A4467345EED90AE00269D2F804C006E010
:100EB0009446224603E09C4601E094461A46C1F857
:100EC00004C0CCF808108A605160086101680131E3
:100ED000016010BD4FF0100080F31188BFF36F8FD9
:100EE000BFF34F8F40F20000C2F2000001680131F1
:100EF0000160704740F20000C2F200000168013951
:100F0000016018BF7047002080F31188704700000F
:100F1000B0B528B1044650F8040CB0F1FF3F00DD35
:100F2000B0BDA4F108052968002918BFB0BD20F0A4
:100F3000004044F8040C00F0B7F842F2E060C2F25E
:100F4000000054F8041C02680A44026042F2147063
:100F5000C2F200000368AB420AD21868A8420AD263
:100F60000368AB4204D218681A46A842F2D303E0E1
:100F70000246184600E01A465368D418AC4202D123
:100F80001944154651606B18834209D140F2682319
:100F9000C2F200031B68984202D009C81944696074
:100FA000286042F2F460AA4218BF1560C2F2000045
:100FB000016801310160BDE8B04000F0A7BD00004C
:100FC00090F84610002918BF7047FFF7A1BF000036
:100FD00042F2EC61C2F200010968016042F2307134
:100FE000C2F20001096841607047000042F23470AB
:100FF000C2F20000012101607047000010B50C46EC
:1010000040F26021C2F2000109681831FFF732FF97
:1010100020460121BDE81040FFF7A2BD002808BF0F
:10102000704770B5C26C0446C06A8A4288BF1146D8
:10103000884214D0226D012A11D1A269E162002AEE
:101040005CBFC1F13801A16140F27026616900EB1B
:101050008000C2F2000606EB8000814202D0BDE8AB
:1010600070407047251D2846FFF7E4FE42F2DC6120
:10107000C2F20001E06A0A68904288BF086000EB93
:10108000800006EB80014A6861619368A260E360BA
:10109000936895605D6056F82010013146F8201085
:1010A000BDE870407047000042F2D860C2F2000014
:1010B000016801310160704742F2D860C2F200005D
:1010C000006830B142F23470C2F2000001210160C8
:1010D000704710B542F23470C2F20000002140F2B5
:1010E00060240160C2F200042068006B0168B1F165
:1010F000A53F0BD14168B1F1A53F07D18168B1F19E
:10110000A53F03D1C068B0F1A53F04D02068216895
:101110003431FFF7A1FE42F2DC6CC2F2000CDCF8C5
:10112000001040F2702201EB8103C2F2000202EBD8
:101130008303143B586980B9186858B953F8140CE4
:1011400050B953F8280C04390028A3F15003F1D00A
:10115000013102E0013900E0023901EB810002EBCC
:10116000800353F8040F4268181D82421A6001D1AF
:1011700052681A60D0682060CCF8001010BD0000E2
:1011800080B54FF0100080F31188BFF36F8FBFF36D
:101190004F8F00F0F9FA30B14EF60450CEF2000055
:1011A0004FF080510160002080F3118880BD000065
:1011B000B0B5024601200021002500F043F80446A6
:1011C00040B120460021002200232560C4E90255D9
:1011D00000F07CF82046B0BD70B50C4679B30546EA
:1011E0000120002684F846002460C4E90F06FFF7BA
:1011F00071FE2068D4E90F12A66302FB01030139D6
:1012000001FB0201C4E90103FF20E16084F844000E
:1012100084F8450004F11000FFF720FE04F12400DB
:10122000FFF71CFEFFF766FE204600210022002388
:1012300084F84C502660C4E9026600F047F8204666
:1012400070BD00002DE9F041E0B307460C46A0FB5D
:101250000101B9BB04FB07F010F1510F32D8503037
:101260009046FFF707FD4FF0000640B3054680F8B3
:101270004660002C18BF50302860C5E90F74FFF796
:1012800029FE2868D5E90F12AE6302FB010301397C
:1012900001FB0201C5E90103FF20E96085F8440074
:1012A00085F8450005F11000FFF7D8FD05F1240091
:1012B000FFF7D4FDFFF71EFE2E4685F84C80304622
:1012C000BDE8F0810020BDE8F08100002DE9F04F7D
:1012D00083B01D4617468A4604460292FFF7FAFD80
:1012E000A06B022D54D0E16B884251D3002F00F047
:1012F000FB806846FFF76CFEFFF7FCFDFFF7D4FEAE
:10130000FFF7E8FD94F84400FF2804BF002084F8AC
:10131000440094F84500FF2804BF002084F84500ED
:10132000FFF7E8FD684602A900F0EAF928B1204677
:10133000FFF766FC00F0EAFBD8E004F11008FFF7C5
:10134000C9FDA76BE66BFFF7D5FDB74215D1029932
:101350004046FFF753FE2046FFF752FC00F0D6FB55
:1013600080B94EF60450CEF200004FF0805101607B
:10137000BFF34F8FBFF36F8F04E02046FFF740FCB1
:1013800000F0C4FBFFF7A6FDA06BE16B88425BD2C7
:10139000A76B226CD2B115B3E0685146FEF72EFF61
:1013A000E168206C2268091A9142E16003D2A168C9
:1013B00040420844E060A81EB0FA80F04009394677
:1013C000002F18BF012108403F1A15E020680025B2
:1013D00098B9A06800F09CFAA56005460DE0606829
:1013E0005146FEF70BFFD4E90101226C10448842FC
:1013F000606001D3206860600025781CA06354F809
:10140000240F78B1204600F011FBB8B14EF604501D
:10141000CEF200004FF080510160BFF34F8FBFF359
:101420006F8F0BE055B14EF60450CEF200004FF036
:1014300080510160BFF34F8FBFF36F8FFFF75AFDED
:10144000012003B0BDE8F08FE94602AF0CE000BF19
:101450002046FFF7D5FB00F059FBFFF73BFDA06BE3
:10146000E16B8842FFF494AF029800283CD0FFF76C
:1014700041FDFFF719FEFFF72DFD94F84400FF280A
:1014800004BF002084F8440094F84500FF2804BFFE
:10149000002084F84500FFF72DFD4846394600F04E
:1014A0002FF900287FF443AFFFF714FDA66BD4F8A3
:1014B0003CB0FFF71FFD5E45CAD102994046FFF7D9
:1014C0009DFD2046FFF79CFB00F020FB0028C4D1C7
:1014D0004EF60450CEF200004FF080510160BFF391
:1014E0004F8FBFF36F8FB8E7FFF704FD002003B005
:1014F000BDE8F08F2DE9F04F83B00D460446029110
:10150000FFF7E8FCA06BF8B10138A063206810B9C0
:10151000FFF784FCA06054F8100F70B1204600F073
:1015200085FA50B14EF60450CEF200004FF08051D3
:101530000160BFF34F8FBFF36F8F0126FFF7DAFC17
:10154000304603B0BDE8F08F002D00F0D78068462C
:10155000FFF73EFDFFF7CEFCFFF7A6FDFFF7BAFC55
:1015600094F8440004F12408FF2804BF002084F804
:10157000440094F84500FF2804BF002084F845008B
:10158000FFF7B8FC684602A900F0BAF868B1204637
:10159000FFF736FB00F0BAFAFFF79CFCA56BFFF7EC
:1015A000A9FC4FF0000675BBCAE7FFF793FCA56BDB
:1015B000FFF7A0FC35B12046FFF722FB00F0A6FAAA
:1015C000002620E0206808B1002607E0FFF782FC33
:1015D000A06800F0D7F90646FFF78CFC0299404658
:1015E000FFF70CFD2046FFF70BFB00F08FFA50B918
:1015F0004EF60450CEF200004FF080510160BFF370
:101600004F8FBFF36F8FFFF765FCA06B00287FF44F
:101610007BAF4FF00009EB4602AD11E02046FFF72B
:10162000EFFA00F073FAFFF755FCA76BFFF762FCC7
:10163000002F52D0FFF74EFCA06B00287FF464AF60
:10164000029800285AD0FFF755FCFFF72DFDFFF751
:1016500041FC94F84400FF2808BF84F8449094F8B3
:101660004500FF2808BF84F84590FFF743FC584623
:10167000294600F045F80028D0D1FFF72BFCD4F81C
:1016800038A0FFF737FCBAF1000F05D02046FFF76E
:10169000B7FA00F03BFACDE7206838B9FFF71AFC3B
:1016A000A06800F06FF90646FFF724FC0299404657
:1016B000FFF7A4FC2046FFF7A3FA00F027FA002862
:1016C000B8D14EF60450CEF200004FF080510160C8
:1016D000BFF34F8FBFF36F8FACE74EB1FFF7FAFB4D
:1016E000D8F8000030B1206B0068C0F1380102E08A
:1016F000002625E70021A068FFF790FC00261DE7E3
:1017000070B50C460546FFF7E5FB42F2307EC2F2AB
:10171000000EDEF8003021684A1C1CD042F2EC6C4E
:10172000C2F2000CD5E90002DCF80060864201D06C
:1017300093420CD29A1A914209D9881A2060DCF897
:10174000000000242860DEF80000686004E000204B
:101750002060012400E00024FFF7CCFB204670BD90
:1017600042F21070C2F200000068002804BF01209D
:10177000704742F2D860C2F200000068B0FA80F010
:10178000400940007047000042F2D860C2F20000F9
:10179000006840B142F2F860C2F200000168013115
:1017A0000160002070472DE9F04F42F23070C2F224
:1017B0000000016842F2E86211F1010BC2F200027E
:1017C000C0F800B01CD340F2642040F26C23C2F297
:1017D0000000C2F2000301681F680760196042F24E
:1017E000EC61C2F200010B6801330B60016809680B
:1017F00019B10068C068006801E04FF0FF30106068
:10180000106840F2602E40F270288345C2F2000E4C
:10181000C2F2000801D2002065E040F2642AC2F260
:10182000000ADAF800000068002851D042F2DC69B2
:10183000C2F20009002021E0F46AD9F800108C42BD
:1018400004EB840188BFC9F8004008EB81025568A9
:101850007261AB68B560F360AB68AF605F6058F809
:101860002120013248F82120DEF80010C96ADAF898
:1018700000208C4288BF0120116869B3DAF800406B
:10188000E468E668374657F8044FA34526D3D6E9FF
:10189000021574698D606268F568BA42696008BFB4
:1018A0006560216801392160B46A002CC4D0D6E992
:1018B000071206F1180C8A60356A626869600021B7
:1018C000624508BF6560B162216801392160B3E7F4
:1018D0004FF0FF34002005E04FF0FF3442F2E862A1
:1018E000C2F200021460DEF80010C96A01EB810147
:1018F00058F82110012942F23471C2F2000188BF68
:1019000001200968002918BF0120BDE8F08F000000
:10191000002804BF00207047B0B50446016DC06CBC
:10192000E26A013982424FF00000216508BFB0BD74
:1019300031BB251D2846FFF77DFAE06C40F2702C84
:10194000C0F13801A16142F2DC61E062C2F2000143
:101950000A68C2F2000C904288BF086000EB800069
:101960000CEB8002536862619968A360E16099683A
:101970009D604D605CF8201001314CF82010012072
:10198000B0BD0000002804BF00207047F0B581B052
:1019900040F26027C2F200070446C06A3968C96A8B
:1019A000884216D2A169002904D43968C96AC1F1F4
:1019B0003801A16140F27026616900EB8000C2F23B
:1019C000000606EB800081420CD03868C06AE062F5
:1019D00028E0E16C3868C26A0020914238BF0120DB
:1019E00001B0F0BD251D2846FFF724FA386842F201
:1019F000DC61C06AC2F20001E0620A68904288BFFE
:101A0000086000EB800006EB80014A686161936822
:101A1000A260E360936895605D6056F82010013124
:101A200046F82010012001B0F0BD0000B0B5C0683C
:101A3000C068D0E90713826A8B60036AD2F804E0B9
:101A400000F1180C59600021E64508BF536081621F
:101A500011680139116042F2D861C2F200010968CF
:101A600091B142F2FC61C2F200010A684B68013296
:101A70009D68C36105629D68C3F808C0C5F804C0CD
:101A800081620A60C26A2FE0D0E9021342698B606A
:101A9000D2F804E0C36800F1040CE645596008BFC1
:101AA0005360116842F2DC6301391160C2F2000335
:101AB000C26A196840F2702E8A4202EB8201C2F2B9
:101AC000000E88BF1A600EEB81035C684361A56855
:101AD0008460C560A568C4F808C0C5F804C05EF895
:101AE000210001304EF8210040F26020C2F20000D7
:101AF0000068C06A824291BF002042F23471C2F293
:101B00000001012088BF0860B0BD00002DE9F04F42
:101B100081B0FFF7DFF942F2D860C2F2000001683D
:101B200001390160006830B10024FFF7E3F9204675
:101B300001B0BDE8F08F42F2D460C2F2000000684C
:101B40000028F1D042F2FC6BC2F2000BDBF800106F
:101B500042F234780029C2F2000866D042F2DC6A10
:101B600040F2702340F260294FF0000EC2F2000AEA
:101B7000C2F20003C2F200094FF0010CDBF80C10B6
:101B8000CD68D5E90746AF6AA6607A682E6A05F186
:101B900018018A42746008BF7E60C5F828E0396881
:101BA0002E1D01393960D5E902216F6991607C6889
:101BB000E968B4424A6008BF796039680139396020
:101BC000EF6ADAF800108F4207EB870188BFCAF886
:101BD000007003EB810254686A61A068AC60E86041
:101BE000A068A660466053F82100013043F8210048
:101BF000D9F80000C06A874228BFC8F800C0DBF8E7
:101C000000000028BAD140F26420C2F2000001684E
:101C1000096819B10068C068006801E04FF0FF3042
:101C200042F2E861C2F20001086042F2F864C2F2D6
:101C30000004256855B10126FFF7A6FD002818BF4E
:101C4000C8F80060013DF7D100202060D8F80000FE
:101C500000283FF469AF4EF60450CEF200004FF07A
:101C600080510160BFF34F8F0124BFF36F8F5CE79A
:101C7000901C00080000002008000000500100082F
:101C8000981C000808000020302D0000700100089A
:081C9000AAAAAAAA00000000A4
:04000005080000ED02
:00000001FF
