:020000040800F2
:10000000C00700200D0200081502000817020008B2
:10001000190200081B0200081D0200080000000071
:100020000000000000000000000000001F020008A7
:100030002102000800000000230200082D1600081D
:1000400027020008270200082702000827020008EC
:1000500027020008270200082702000827020008DC
:1000600027020008270200082702000827020008CC
:1000700027020008270200082702000827020008BC
:1000800027020008270200082702000827020008AC
:10009000270200082702000827020008270200089C
:1000A000270200082702000827020008270200088C
:1000B000270200082702000827020008270200087C
:1000C000270200082702000827020008270200086C
:1000D0002702000865180008270200082702000808
:1000E00027020008270200082702000800F002F893
:1000F00000F07DF814A696E8000CB244B344DA454B
:1001000001D100F074F8BAE80F000FA696E83000AD
:10011000A5EB040504EB0607AAEB0704A7F101070A
:100120004FEA15154FEA3414A4F10104AC4201D38F
:1001300000F05DF813F0010F18BFFB1A43F0010344
:1001400000F001F8DBE718478C1F0000AC1F00002F
:10015000103A24BF78C878C1FAD8520724BF30C8F3
:1001600030C144BF04680C60704700007047000055
:100170000023002400250026103A28BF78C1FBD8B0
:10018000520728BF30C148BF0B607047692900F093
:10019000CB80642900F0C880752900F0C5806F29E4
:1001A00000F05C81782900F083810368DB0928BFB7
:1001B00041F08001632900F02D83E32900F0528390
:1001C000002070471FB59DE8030000F0A5FD00F07A
:1001D0005FFC04000020002101F02CFF401C606047
:1001E00000F094FB1FBD10B500F0F9FB10BD00F04E
:1001F00029FC1146FFF7E6FF01F0F4FD00F034FDA5
:1002000003B4FFF7F0FF03BC00F004FF0948804788
:1002100009480047FEE7FEE7FEE7FEE7FEE7FEE7E8
:10022000FEE7FEE7FEE7FEE704480549054A064B00
:100230007047000051160008ED000008C0010020C2
:10024000C0070020C0030020C00300200FB40449F1
:1002500010B503AA029800F0E9FA10BC5DF814FB8F
:100260006400002070B5044685690068C10601D5A8
:10027000302600E02026C00707D070BDD4E9012158
:1002800030469047206A401C20626D1EF6D570BD36
:1002900070B5044685690078C00707D170BDD4E900
:1002A000012120209047206A401C20626D1EF6D557
:1002B00070BD09684A0501D540B27047C905FCD533
:1002C00000B2704709684A0501D5C0B27047C90538
:1002D000FCD580B2704770B50C460546012A05D0A2
:1002E0002878800600D5EA69002302E0012305E0B2
:1002F0005B1C934202D2E05C0028F9D1A869E618A1
:10030000C01AA861286A184428622846FFF7AAFF85
:1003100004E0D5E9012114F8010B9047B442F8D369
:100320002846FFF7B5FF70BD2DE9F04106460024D1
:1003300010687529314616A510D0FFF7BAFF0028BE
:1003400002DA404213A507E031688A0701D512A5F9
:1003500002E0490704D511A5012401E0FFF7B2FF2F
:1003600000210A2206F1240709E0B0FBF2FCB0FBF1
:10037000F2F302FB1C00303078541846491C002868
:10038000F3D123462A463046BDE8F04100F0DFB9FC
:10039000000000002D0000002B00000020000000E5
:1003A0002DE9FF5F15468A460446DFF8AC80F84425
:1003B0000027D8E900103E46CDE9001010E03AF8D9
:1003C00016106A4602A800F059FA411C07D021789D
:1003D000890603D5E269391891420DD80744761C85
:1003E0002078800602D5E069B84205DDAE42E6DB42
:1003F0003AF816000028E2D1A069C01BA06120468F
:10040000FFF730FFD8E90010CDE90010002017E019
:100410003AF818106A4602A800F030FAB0F1FF3F2F
:1004200081460BD000250DF1080B05E0D4E9012130
:100430001BF8050090476D1C4D45F7D308F10100EE
:10044000B0428046E4DB206A384420622046FFF751
:100450001FFFBDE8FF9F0000AE1C000070B5044602
:1004600021461068FFF72EFF002104F1240505E066
:1004700000F007023032C0086A54491C0028F7D146
:100480002068002308A2050708D500F020000843D3
:1004900004D0E069012305A2401EE0612046BDE8CA
:1004A000704000F054B9000000000000300000006F
:1004B00070B504460D4621461068FFF703FF2188FA
:1004C000090502D50F4A7A4402E00E4A7A440E32F8
:1004D000002104F1240305E000F00F060009965DF9
:1004E0005E54491C0028F7D120780023000704D56A
:1004F000702D02D009B1022311322046BDE87040B0
:1005000000F025B99E1B00002DE9F05F89460446E6
:100510004FF0000ADFF874B1FB44C0F820A0204679
:10052000E1688847002874D0252806D0D4E9012145
:100530009047206A401C2062F1E700265F46204673
:10054000E16888472028054607DB312D05D2781958
:1005500010F8200C08B10643F1E7B00701D526F0EA
:100560000406C4F81CA00027C4F818A02A2D09D03E
:10057000284601F057FD38B304EB8708303DC8F832
:10058000185019E059F8041B204604EB87029161CA
:10059000E1688847012F054618D1E069002820DA74
:1005A00026F020061DE0D8F8180000EB800005EBCF
:1005B00040003038C8F818002046E16888470546F2
:1005C00001F030FD0028EED1012F0AD02E2D08D1E8
:1005D0002046E16888477F1C0546022F46F020062A
:1005E000C4DBA069002803DA404246F00106A0619E
:1005F000F00701D026F010066C2D0BD0682D09D025
:100600004C2D39D06A2D35D0742D35D07A2D33D07C
:1006100016E038E0E1682F4620468847B842054694
:1006200009D16C2F26D04FF48060E1680643204644
:100630008847054604E06C2F1AD04FF480700643BB
:100640000DB3A5F14100192802D8203546F4006603
:100650004A462946204626604E46FFF797FD80B160
:1006600001280BD0F61D26F0070000F1080956E717
:100670004020E4E78020D8E70020D6E706F104090F
:100680004DE7284652E7206ABDE8F09F741B000042
:10069000014901F095BB00006400002010B504463C
:1006A00003E001F08DFB401C09D014F8010B054953
:1006B0000028F6D1BDE810400A2001F081BB4FF0C0
:1006C000FF3010BD640000204FF0013C50F8042BB7
:1006D00051F8043B9A4221D1A2EB0C03934313EA55
:1006E000CC1317D150F8042B51F8043B9A4215D182
:1006F000A2EB0C03934313EACC130BD150F8042B59
:1007000051F8043B9A4209D1A2EB0C03934313EA3C
:10071000CC13DBD04FF00000704700BFD01A01BAF5
:10072000B1FA81F101F0180122FA01F0CB40DBB2FD
:10073000C0B2C01AC1F120012CFA01F3D11A9143C1
:1007400011EAC311E6D170477047704770472DE931
:10075000F0470D4699469246044600F12408016888
:10076000880604D5E06921F01001216000E0012035
:10077000A84201DD471B00E00027A1697A1902EBBE
:100780000900081AA0612078C00602D42046FFF7AD
:1007900069FD002608E0D4E901211AF80600904717
:1007A000206A401C761C20624E45F4DB2078C0068F
:1007B0000AD52046FFF756FD06E0D4E90121302096
:1007C0009047206A401C2062381EA7F10107F4DC24
:1007D00007E0D4E9012118F805009047206A401C81
:1007E0002062281EA5F10105F3DC2046FFF750FD2D
:1007F0002078000602D50220BDE8F0870120FBE743
:1008000010B5436913B1AFF3008001E0FFF763FD5A
:10081000012010BD127800F124010A7000224A70F4
:100820000122EDE711684FF0FF32E9E7074B70B5A1
:100830000D467B4400F053F80446284600F062F869
:1008400010B14FF0FF3070BD204670BD8B15000019
:1008500010B5436913B1AFF3008001E0FFF7A0FDCD
:10086000012010BD128800F1240182840022C2847C
:100870000122EDE711684FF0FF32E9E72DE9F04181
:1008800016460C46054600F01DF8036893F8010172
:10089000012807D0FF2C12D8185D80B101202C70E0
:1008A000BDE8F081D3F807013246214603F2071371
:1008B000C7182846BC46BDE8F041002360474FF00A
:1008C000FF30EDE710B500F0E3F8001D10BD00BFEC
:1008D0006517000001694A1C02610878704700B57D
:1008E0008FB0CDE901310021059105497944CDE969
:1008F000031011466846FFF707FE0FB000BD000069
:10090000E5FFFFFF007B00F08000704710B5424814
:10091000542100F0B9F94148542100F0B5F940489C
:10092000542100F0B1F93F493B483C4A3F4B086035
:100930003D490A603A491960531C0365481C10651B
:10094000012008653B48344A39A1784400F0EEF8AC
:1009500020B9384878440A3800F08FF937482F4AD0
:1009600035A1784400F0E2F820B9344878440A38D8
:1009700000F083F932482A4A2FA1784400F0D6F8D3
:1009800020B92F4878440A3800F077F940232248EC
:10099000DC000021224600F0A6F820B1254878446A
:1009A000543800F06AF91D4822464023002100F027
:1009B0009AF820B121487844543800F05EF918487C
:1009C00022461023002100F08EF8002806D01C4893
:1009D0007844BDE81040563800F04FB910BD1048BB
:1009E00070B5006D20F001040B4800F017F90B48BA
:1009F00000F014F90A4800F011F909E0206D20F028
:100A00000105204600F00AF9204600F045F82C4682
:100A1000002CF3D170BD0000100000206400002005
:100A2000B800002000000020040000200800002082
:100A3000720000006F170000770000005E170000D2
:100A400037170000754600F047F9AE4605006946C5
:100A5000534620F00700854618B020B5FFF7E4FBA9
:100A6000BDE820404FF000064FF000074FF00008AF
:100A70004FF0000BAC46ACE8C009ACE8C009ACE8EC
:100A8000C009ACE8C00921F007018D46704700009D
:100A9000004870472C01002070B50446051F00F087
:100AA0001FF90068002C14BF446870BD002C18BFEB
:100AB000AC423CBF20466468F8D301680A18AA42D9
:100AC00018BF456003D12A680546114401602868B3
:100AD0004119A1421CBF6C6070BD616869602168EA
:100AE0000844286070BD70B5C468A50713D06502BE
:100AF00011D4B2F5807F09D0B2F5007F06D0B2F5EF
:100B0000806F08D1012300F1240106E05D1E6FF023
:100B10007F46B54201D3012070BD0161C3614160D0
:100B200024F470611143C160002070BD2DE9F041D3
:100B30000C461646070047D0104600F06FF82078A4
:100B4000611C61280AD0722802D077283CD102E0CB
:100B50000125002405E00225042402E0082448F2CF
:100B6000020511F8010B2B2806D0622809D011F8D4
:100B7000010C74280AD00BE045F0030544F0020490
:100B8000EFE745F0040544F00104EAE744F01004FF
:100B90003846214600F064FF411C15D00021316128
:100BA00071604FF40071F560F1617061200704D548
:100BB00030460222002100F00DF9306D40F00100B6
:100BC00030653046BDE8F0810020FBE72DE9F041BB
:100BD0000D460646104C206DC10704D0410804D0D4
:100BE00020F00104F7E722460EE0542000F0C3F89D
:100BF00007000ED0206D47F0010108435421206505
:100C0000384600F041F83A4629463046BDE8F04102
:100C10008CE70020D6E70000100000202DE9F04707
:100C200004464FF0FF380026C568D4E90497A807AA
:100C300018D0204600F08AF9384600F0FDFE002862
:100C400000DA4646280502D54846FFF725FF4C2125
:100C5000204600F019F8206D20F001002065304694
:100C6000BDE8F0874046FBE710B50446AFF30080CF
:100C70002046BDE81040FFF7C3BA10B500F0B0F948
:100C8000BDE8104000F0A6B94FF0000200B51346D1
:100C900094469646203922BFA0E80C50A0E80C509C
:100CA000B1F12001BFF4F7AF090728BFA0E80C504D
:100CB00048BF0CC05DF804EB890028BF40F8042B46
:100CC00008BF704748BF20F8022B11F0804F18BFB3
:100CD00000F8012B70470000004870470C0100200D
:100CE00000487047140100207047704770477047F4
:100CF00038B504460A4600206946AFF30080002854
:100D000008BF38BD02460099204600F08FF9012047
:100D100038BD012000F0DEB9F8B5AFF3008005461C
:100D200000200C460C2000BF0646A819A0420DD991
:100D3000324669460020AFF30080070008BF00F08C
:100D4000C9F90098A04218BF0546C419FFF7C8FFAB
:100D500005600746F01D20F007004619284600F000
:100D60005FF9B44208BFF8BDA21B31463868BDE840
:100D7000F84000F05BB970B50646FFF7B1FF0568B3
:100D800006F10B0020F00704B4429CBF002070BDA8
:100D90002B466A68BAB11068A04210D304F108016A
:100DA00088423CBF5068586007D3516810194160B1
:100DB0001168091B016058601460101D70BD134656
:100DC0005268002AE7D121462846FFF791FF002804
:100DD000DED170BD2DE9F041044616460D46476947
:100DE000007B80072ED0384600F032FE50BB3EB369
:100DF000012E02D0022E25D104E0204600F030F969
:100E000005441DE0384600F021FEE168002841F06D
:100E10001001E16005DA204600F058F80120BDE835
:100E2000F081C9030BD56268E16A914200D811468E
:100E3000A26911442269891A814200DD08460544ED
:100E4000002D01DA0220EAE7E16A6068E268814287
:100E500006D29103E06203D522F4003141F0100282
:100E6000A6690027AE4213DCE16A814201D90B4634
:100E700000E0034603EB060C2369ACEB030CAC4526
:100E800006DD814201D98C4600E084469C4505D1AF
:100E9000A760276042F02000A5620DE0AD1BE66967
:100EA000AE1B8142A66000D90846C01A281A2060ED
:100EB0005819606022F0200003490840E0600020DB
:100EC00084F84870ABE70000BFCFD7FFC16821F4BA
:100ED000001141F08001C160002181600160704714
:100EE0002DE9F74F15460C464FF0FF3B3848D768C1
:100EF000D2F814A0074209D05046A96900F0E2FDDB
:100F0000002819DB3248C0430740EF604FF000492A
:100F10006FF000484C4501D3464600E02646009954
:100F20003B465046324600F0D1FDA96920F0004210
:100F3000B21A1144A96128B12846FFF7C7FF5846E5
:100F4000BDE8FE8FA41BE5D10020F9E770B504468B
:100F50000569C06A6168884200D80846E16821F4E2
:100F60002011E160C90312D5A84208D02246411BD6
:100F70002846FFF7B5FF10B14FF0FF3070BD0020DD
:100F8000E562C4E90150E06820F48030E0600020B0
:100F900070BD10B50446C06820F02000E060A16A72
:100FA000A06988420DD02046FFF7D0FFE06820F40A
:100FB000405040F01000E060A06AA0612069E0624B
:100FC000606044F24001E0688843E06010BD0000CA
:100FD00010000200002801D000F01CB8704700008B
:100FE00010B5014602A000F05CF8012010BD000021
:100FF00053494752545245443A20526564697265D8
:1010000063743A2063616E2774206F70656E3A20B6
:101010000000000001491820ABBEFEE726000200D8
:1010200000210160416070470C2070470346406812
:101030008C46002818BF88423CBF03464068F8D35E
:1010400018681844884207D00CF1030020F007000C
:10105000001D411A521A0146081D0A60FFF71CBD07
:1010600010B50146C268900703D0900607D5886A7C
:101070000AE000F037F801210160881E10BD8B697D
:10108000486818440B69C01A91F848301BB191F8B0
:101090004910401A10BD1103FCD50028FADD401E8E
:1010A00010BD70B505460C460A2000E06D1C00F02E
:1010B0001FFD35B128780028F8D102E0641C00F04B
:1010C00017FD14B120780028F8D1BDE870400A203F
:1010D00000F00EBD10B500F009F8BDE81040FFF7B4
:1010E00079BF7047004870470C01002010B50128F7
:1010F00005D0002103A0FFF7D4FF012010BD09A1F6
:10110000F8E7000053494752544D454D3A204F757A
:1011100074206F662068656170206D656D6F7279EF
:10112000000000003A2048656170206D656D6F72A7
:101130007920636F72727570746564002DE9F04FE9
:1011400083B040F600441E46174688468146652512
:10115000C4F2010420464FF4805100F0FFF9012849
:1011600005D1012000F0F2FD013DF3D11AE0652523
:1011700020464FF4805100F0F1F928B9012000F029
:10118000E5FD013DF4D10DE0652500BF20464FF49B
:10119000805100F0E3F901280BD1012000F0D6FDC9
:1011A000013DF3D14FF000095FFA89F003B0BDE8CB
:1011B000F08F02964FF0000B002600BF20464FF440
:1011C000805100F0CBF90028F8D04FF0804000218A
:1011D00000F0F0FA20464FF4805100F0BFF90128EA
:1011E000F8D04FF0804000F0E3FA2D284FF00000D7
:1011F00088BF012040EA4B0B072E06F10106DDD324
:1012000001970026002700BF20464FF4805100F0D0
:10121000A5F90028F8D04FF08040002100F0CAFA6C
:1012200020464FF4805100F099F90128F8D04FF092
:10123000804000F0BDFA2D284FF0000088BF01204B
:1012400040EA4606072F07F10107DDD300270025F6
:1012500020464FF4805100F081F90028F8D04FF07B
:101260008040002100F0A6FA20464FF4805100F0A3
:1012700075F90128F8D04FF0804000F099FA2D2838
:101280004FF0000088BF012040EA4707072D05F115
:101290000105DDD3CDF800804FF00008002500BF28
:1012A00020464FF4805100F059F90028F8D04FF053
:1012B0008040002100F07EFA20464FF4805100F07B
:1012C0004DF90128F8D04FF0804000F071FA2D2838
:1012D0004FF0000088BF012040EA4808072D05F1C3
:1012E0000105DDD34D464FF000094FF0000A00BF65
:1012F00020464FF4805100F031F90028F8D04FF02B
:101300008040002100F056FA20464FF4805100F052
:1013100025F90128F8D04FF0804000F049FA2D2837
:101320004FF0000088BF012040EA4909BAF1070FD9
:101330000AF1010ADCD3009885F800B00670019824
:101340000770029880F800802EE70000CA7802F04B
:101350000F0CD30644BF8B784CEA030CF0B5098818
:101360000D0674D086465EF8143BCC0700F11004DD
:101370000BD023F00F0343EA0C03282A764602D051
:10138000482A02D12646012737608E070BD523F065
:10139000F00343EA0C13482A264602D0282A02D139
:1013A0007646022737604E070BD523F4706343EA75
:1013B0000C23482A264602D0282A02D17646042742
:1013C00037600E070BD523F4704343EA0C33482AE9
:1013D000264602D0282A02D1764608273760CE0654
:1013E0000BD523F4702343EA0C43482A264602D047
:1013F000282A02D17646102737608E060BD523F4B3
:10140000700343EA0C53482A264602D0282A02D108
:101410007646202737604E060BD523F0706343EAEB
:101420000C63482A264602D0282A02D17646402755
:101430003760002D0AD523F07043482A43EA0C7325
:1014400002D0282A02D17446802727600360B1F5B4
:10145000807F38BFF0BD4368CC0500F1100E00F16D
:1014600014040CD523F00F0343EA0C03282A254665
:1014700002D0482A03D175464FF480762E608D0540
:101480000CD523F0F00343EA0C13482A754602D02A
:10149000282A03D125464FF400762E604D050CD541
:1014A00023F4706343EA0C23482A754602D0282AA5
:1014B00003D125464FF480662E600D050CD523F42C
:1014C000704343EA0C33482A754602D0282A03D1D8
:1014D00025464FF400662E60CD040CD523F470230E
:1014E00043EA0C43482A754602D0282A03D12546F0
:1014F0004FF480562E608D040CD523F4700343EA1C
:101500000C53482A754602D0282A03D125464FF4A9
:1015100000562E604D040CD523F0706343EA0C6333
:10152000482A754602D0282A03D125464FF4804622
:101530002E6009B2B1F1FF3F01DD4360F0BD23F041
:101540007041482A41EA0C7302D0282AF5D1A646F8
:101550004FF40041CEF800104360F0BD80680840B1
:1015600018BF01207047000041617047016170475A
:10157000002941F21C01C4F202010A680CBF22EAF0
:101580000000104308607047002941F21801C4F2BE
:1015900002010A680CBF22EA00001043086070478D
:1015A00010B541F20404C4F20204226802F00C02F5
:1015B000082A41F20022C0F27A0212D12368D4F83C
:1015C00000C0C3F3834E5FEACC330EF1020C02D5A8
:1015D00023689B0303D540F60012C0F23D020CFBCA
:1015E00002F20260236842F2A501C3F30313C0F6BE
:1015F0000001CB5CDA4042602368C3F30223CB5C7A
:1016000022FA03F383602368C3F3C223C95C42F266
:10161000A10322FA01F1C1602268C0F60003C2F3FF
:1016200081329A5CB1FBF2F1016110BD40F20C0015
:10163000C2F2000001680131016070474EF21000F3
:10164000CEF200006FF07F414160072101607047DA
:1016500082B041F20400C4F2020050F8041C0022DF
:1016600041F0010140F8041C0168CFF6FF0211406F
:10167000016050F8041C4FF6FF72CFF6F66211407D
:1016800040F8041C50F8041C21F4802140F8041C8C
:10169000016821F4FE0101604FF41F014160002147
:1016A0000191009150F8041C41F4803140F8041C71
:1016B00050F8041C01F400310091019901310191AD
:1016C000009919B90199B1F5A06FF1D150F8041C36
:1016D000890354BF0021012100910099012953D1B0
:1016E00042F20001C4F202010A6842F010020A60EC
:1016F0000A6822F007020A600A6842F002020A60E1
:101700000168016001680160016841F48061016065
:10171000016821F47C110160016841F4E811016065
:1017200050F8041C41F0807140F8041C50F8041C6F
:1017300089010CD450F8041C89015CBF50F8041CCA
:101740005FEA811103D450F8041C8901EED50168C9
:1017500021F003010160016841F00201016000BF56
:10176000016801F00C0108290ED0016801F00C019C
:10177000082909D0016801F00C01082904D001688A
:1017800001F00C010829EBD14EF60850CEF2000012
:101790004FF00061016002B070470000028800292C
:1017A00018BF012122F0010211440180704700009E
:1017B000808C70478184704740F6FF33B0F800C0DA
:1017C000C4F2000398420FDCB0F1804F1ED040F20B
:1017D0000043C4F20003984218D040F60003C4F25C
:1017E0000003984212D016E040F60043C4F2000312
:1017F00098420BD043F20043C4F20103984205D053
:1018000042F60043C4F20103984204D14B882CF005
:10181000700243EA020C41F2004240F48063C4F2D9
:101820000002934204D0CA882CF4407342EA030CAD
:10183000A0F800C08A8883058285A0F18042A2F5C5
:10184000963243EA92220B88072A038507D80123A0
:1018500003FA02F212F0E50F1CBF097A018601219A
:101860008182704710B543F60004C4F2010420469B
:1018700040F2255100F04CF830B3204600F0D4F887
:10188000C1B20A2940F2BD11C2F2000113D1087899
:1018900040F2BE12C2F2000210800A7840F26C13CD
:1018A000C2F200030020985440F2BC12C2F20002BF
:1018B0000123137007E00A7840F26C13C2F20003B0
:1018C0009854087801300870204640F22551BDE850
:1018D000104000F005B80000C943018070470000C7
:1018E000090A012202FA01F1C94301807047000090
:1018F0008289002918BF012122F4005242EA4131B5
:10190000818170470088084018BF0120704700009F
:10191000C1F34212022A06D0012A14BF00F11402B8
:1019200000F10C0201E000F110021288008801F0C1
:101930001F03090ADA40C840104000F00100704758
:10194000C1F3421301F01F0C1421022B08BF102118
:10195000012B4FF0010308BF0C21002A03FA0CF2FF
:1019600043580CBF23EA02021A434250704700005A
:1019700070B586B00446008A0D46C98820F44050F0
:1019800008432082A0894EF6F3110840A9882A89CD
:101990006B89084310431843A081A08AA98920F4C9
:1019A0004070084301AEA0823046FFF7F9FD43F6D0
:1019B000000106F10800C4F201018C4208BF06F1E3
:1019C0000C0000681922B4F90C1050432A68012356
:1019D000B1F1FF3FC8BF022302FA03F1B0FBF1F0FF
:1019E00048F21F51C5F2EB11A0FB01235A096FF019
:1019F000630302FB0300B4F90C300326B3F1FF3F8D
:101A0000C8BF042600FA06F000F13200A0FB010175
:101A10004FF00700C8BF0F2000EA511040EA021043
:101A2000208106B070BD000080886FF35F20704792
:101A30006FF35F218180704748F20401411A002052
:101A400011F1030F38BF4FF0FF307047002070478F
:101A500048F20101411A0020032938BF01207047D4
:101A6000002804BF4FF0FF30704710B504460078DF
:101A70003A281CBF4FF0FF3010BD42F2BD01C0F646
:101A800000012046FEF720FEB0B142F2C401C0F6CC
:101A900000012046FEF718FE88B142F2B501C0F6FB
:101AA00000012046FEF710FE01464FF0FF300029EE
:101AB00008BF48F2030010BD48F2010010BD48F213
:101AC000020010BD4FF0FF307047000048F20301E4
:101AD00088420AD048F2020188421CBF4FF0FF3012
:101AE000704712B1013A00BEFCD1002070470000DF
:101AF00000BE7047002808BF704770B54EF218014D
:101B000041F6401C40F20C03CEF20001C0F2010C81
:101B100010F0030EC2F20003024653D01C680A689C
:101B20004CEA04641D680E6802EB0565651B3544CC
:101B3000012D17DB1D680E6802EB0565651B35443A
:101B4000012D0FDB1D680E6802EB0565651B354432
:101B5000012D07DB1D680E6802EB0565651B35442A
:101B6000002DDFDCBEF1010F03D1421E042859D243
:101B70002AE01C680A684CEA046400BF1D680E680D
:101B800002EB0565651B3544012D17DB1D680E68EA
:101B900002EB0565651B3544012D0FDB1D680E68E2
:101BA00002EB0565651B3544012D07DB1D680E68DA
:101BB00002EB0565651B3544002DDFDCBEF1020F2D
:101BC00005D1821E04282DD2BDE8704070471E68E2
:101BD0000A684CEA066400BF1E680D6802EB0666E0
:101BE000A61B2E44012E17DB1E680D6802EB06664D
:101BF000A61B2E44012E0FDB1E680D6802EB066645
:101C0000A61B2E44012E07DB1E680D6802EB06663C
:101C1000A61B2E44002EDFDCC21E042802D2D3E70E
:101C2000043AD1D01E6808684CEA06641E680D6844
:101C300000EB0666A61B2E44012E17DB1E680D68FE
:101C400000EB0666A61B2E44012E0FDB1E680D68F6
:101C500000EB0666A61B2E44012E07DB1E680D68EE
:101C600000EB0666A61B2E44002EDFDC1E6808680B
:101C70004CEA06641E680D6800EB0666A61B2E443F
:101C8000012E17DB1E680D6800EB0666A61B2E44AE
:101C9000012E0FDB1E680D6800EB0666A61B2E44A6
:101CA000012E07DB1E680D6800EB0666A61B2E449E
:101CB000002EDFDC1E6808684CEA06641E680D68AA
:101CC00000EB0666A61B2E44012E17DB1E680D686E
:101CD00000EB0666A61B2E44012E0FDB1E680D6866
:101CE00000EB0666A61B2E44012E07DB1E680D685E
:101CF00000EB0666A61B2E44002EDFDC1E6808687B
:101D00004CEA06641E680D6800EB0666A61B2E44AE
:101D1000012EFFF685AF1E680D6800EB0666A61B58
:101D20002E44012EFFF67CAF1E680D6800EB0666A0
:101D3000A61B2E44012EFFF673AF1E680D6800EB44
:101D40000666A61B2E44002EDCDC69E710B540F2C7
:101D50000C044EF2180EC2F20004CEF2000ED4F8BB
:101D600000C000EBC000DEF80030C00000EB0C60EB
:101D700013E000BF2168DEF8002003EB0161411A87
:101D800011440129B8BF10BD2168DEF8002003EB23
:101D90000161411A1144002911DD2168DEF800209B
:101DA00003EB0161411A1144012908DB2168DEF8C7
:101DB000002003EB0161411A11440129DADA10BD58
:101DC000B0B543F60005C4F201050446C1B2284689
:101DD000FFF72EFE28468021FFF794FD0028F9D05A
:101DE0002046B0BD84B040F60044C4F20104FFF7C1
:101DF00025FC01200121FFF7BBFB4FF6FF70ADF87A
:101E00000A0047200DF10605CDF806004FF080408E
:101E10002946FFF7D1FC4FF080400121FFF7BEFCBF
:101E200008200121FFF7B0FB41F20000C1F203409E
:101E3000CDF806000DF106012046FFF787FA4FF4B2
:101E4000165000F091F838A0FEF728FC0DF10207BB
:101E500038A610E042F2CE00C0F600005146FEF770
:101E6000F5F942F2CC00C0F60000FEF717FC4FF483
:101E70007A70FFF73FFE41F20000C1F20340CDF857
:101E8000060020462946FFF761FA20464FF48051AC
:101E9000FFF76AFB1420FFF72DFE20464FF4805118
:101EA000FFF764FB1E20FFF751FF04208DF80900A7
:101EB00020462946FFF74AFA0DF1050001A90DF168
:101EC00003023B46FFF73AF99DF805909DF8048020
:101ED0009DF803B008EB09019DF802A05944514454
:101EE00081423046C1D117A0FEF7B0F917A049468C
:101EF000FEF7ACF9B8F1000F07D042F2CE00C0F601
:101F000000004146FEF7A2F902E03020FEF7C0FBD8
:101F100011A05946FEF79AF9BAF1000F9AD1302074
:101F2000FEF7B6FB9DE700BF68656C6C6F20776FAE
:101F3000726C64004C6F6920636865636B73756DC8
:101F4000210D0000446F20616D3A2000446F206134
:101F50006D203A25642025004E6869657420446F21
:101F6000203A2564202A4300F0B585B005464FF499
:101F700080400121FFF708FB04200121FFF704FB4B
:101F800043F6000440F20020C4F20104C1F603004D
:101F9000A4F5405604AF049030463946FFF7D6F911
:101FA0004FF48060ADF8100048208DF813003046E3
:101FB0003946FFF7CBF9009500254FF44020CDE9D5
:101FC000015069462046ADF80C50FFF7D1FC204681
:101FD0004021FFF781FC204640F225510122FFF706
:101FE000AFFC4EF20410CEF20000202101604EF250
:101FF0002540CEF200001021017020460121FFF79C
:1020000077FC40F2BC10C2F20000057040F2BD1037
:10201000C2F20000057040F2BE10C2F2000005805E
:1020200005B0F0BD30380A2801D2012070470020E9
:102030007047000010B500290AD00878002807D0A2
:1020400005487844FEF740FB002801D0002010BD71
:102050000248784410BD0000B2000000AA00000051
:1020600000000000000000003031323334353637D4
:1020700038394142434445464030580030313233CC
:1020800034353637383961626364656640307800CC
:102090000400000800000000000000020001000031
:1020A00010020406080000000001020304010203FC
:1020B00004060708093A535444455252003A53540F
:1020C00044494E003A5354444F5554000D00256482
:1020D000000000000822000800000020100000009E
:1020E000500100081822000810000020B00700006E
:1020F000700100081001000043000000F8FFFFFF1E
:10210000004040404040404040404141414141400A
:1021100040404040404040404040404040404040BF
:10212000400502020202020202020202020202024E
:102130000220202020202020202020020202020253
:1021400002029090909090901010101010101010AB
:1021500010101010101010101010101002020202B7
:1021600002028888888888880808080808080808FB
:1021700008080808080808080808080802020202F7
:10218000400000000000000000000000000000000F
:10219000000000000000000000000000000000003F
:1021A000000000000000000000000000000000002F
:1021B000000000000000000000000000000000001F
:1021C000000000000000000000000000000000000F
:1021D00000000000000000000000000000000000FF
:1021E00000000000000000000000000000000000EF
:1021F00000000000000000000000000000000000DF
:1022000000000000000000000000000000000000CE
:082210000000000001000000C5
:04000005080000ED02
:00000001FF
