:020000040800F2
:1000000068350020D9010008E1010008E30100087B
:10001000E5010008E7010008E90100080000000010
:100020000000000000000000000000003114000883
:10003000ED010008000000004113000855140008FD
:10004000F3010008F3010008F3010008F3010008C0
:10005000F3010008F3010008F3010008F3010008B0
:10006000F3010008F3010008F3010008F3010008A0
:10007000F3010008F3010008F3010008F301000890
:10008000F3010008F3010008F3010008F301000880
:10009000F3010008F3010008F3010008F301000870
:1000A000F3010008F3010008F3010008F301000860
:1000B000F3010008F3010008F3010008F301000850
:1000C000F3010008F3010008F3010008F301000840
:1000D000F301000815180008F3010008F3010008F7
:1000E000F3010008F3010008F301000800F002F832
:1000F00000F05FF814A696E8000CB244B344DA4569
:1001000001D100F056F8BAE80F000FA696E83000CB
:10011000A5EB040504EB0607AAEB0704A7F101070A
:100120004FEA15154FEA3414A4F10104AC4201D38F
:1001300000F03FF813F0010F18BFFB1A43F0010362
:1001400000F001F8DBE71847A03E0000C03E0000C9
:10015000103A24BF78C878C1FAD8520724BF30C8F3
:1001600030C144BF04680C60704700007047000055
:100170000023002400250026103A28BF78C1FBD8B0
:10018000520728BF30C148BF0B607047642900F098
:100190008380002070471FB59DE8030000F029FD13
:1001A00000F094FA1FBD10B500F008FB00F040FF0E
:1001B00010BD00F08DFB114603B401F0E3FC03BC5D
:1001C000FFF7E9FF01F0AEFD00F0E2FC03B4FFF73A
:1001D000EAFF03BC00F0B0FE094880470948004729
:1001E000FEE7FEE7FEE7FEE7FEE7FEE7FEE7FEE7E7
:1001F000FEE7FEE704480549054A064B7047000044
:10020000D1140008ED000008682F00206835002098
:1002100068310020683100200FB4044910B503AAEA
:10022000029800F09DF910BC5DF814FB74000020EA
:100230002DE9F0410E460446002020622046E16888
:10024000884730B3252805D0D4E901219047206A9A
:10025000401CF2E7E168204600278847050018D0D7
:10026000A5F14100192802D820354FF40067324625
:10027000294620462760FFF789FF40B1012804D0B6
:10028000F61D26F007060836D8E7361DD6E72846BD
:10029000DAE7206ABDE8F0812DE9F0410646002446
:1002A00010687529314616A510D0AFF300800028DC
:1002B00002DA404213A507E031688A0701D512A58A
:1002C00002E0490704D511A5012401E0AFF3008045
:1002D00000210A2206F1240709E0B0FBF2FCB0FB82
:1002E000F2F302FB1C00303078541846491C0028F9
:1002F000F3D123462A463046BDE8F04100F0D7B896
:10030000000000002D0000002B0000002000000075
:1003100010B5044603E001F0F3FC401C09D014F8CA
:10032000010B05490028F6D1BDE810400A2001F074
:10033000E7BC4FF0FF3010BD74000020014A00F010
:1003400021B9000000000020032A40F2308010F0A4
:10035000030C00F0158011F8013BBCF1020F624460
:1003600098BF11F801CB00F8013B38BF11F8013BF1
:10037000A2F1040298BF00F801CB38BF00F8013B9E
:1003800011F0030300F02081083AC0F0088051F812
:10039000043B083A51F804CBA0E80810F5E7121D19
:1003A0005CBF51F8043B40F8043BAFF30080D20738
:1003B00024BF11F8013B11F801CB48BF11F8012B04
:1003C00024BF00F8013B00F801CB48BF00F8012B27
:1003D000704702F0FF0343EA032242EA024200F0C0
:1003E00027B94FF000020429C0F0128010F0030C6E
:1003F00000F01E81CCF1040CBCF1020F18BF00F814
:10040000012BA8BF20F8022BA1EB0C0100F010B9C2
:100410005FEAC17C24BF00F8012B00F8012B48BF24
:1004200000F8012B704700004FF0013C50F8042BFE
:1004300051F8043B9A4221D1A2EB0C03934313EAF7
:10044000CC1317D150F8042B51F8043B9A4215D124
:10045000A2EB0C03934313EACC130BD150F8042BFB
:1004600051F8043B9A4209D1A2EB0C03934313EADF
:10047000CC13DBD04FF00000704700BFD01A01BA98
:10048000B1FA81F101F0180122FA01F0CB40DBB2A0
:10049000C0B2C01AC1F120012CFA01F3D11A914364
:1004A00011EAC311E6D170477047704770472DE9D4
:1004B000F0470D4699469246044600F1240801682B
:1004C000880604D5E06921F01001216000E00120D8
:1004D000A84201DD471B00E00027A1697A1902EB61
:1004E0000900081AA0612078C00602D42046AFF3A4
:1004F0000080002608E0D4E901211AF806009047A0
:10050000206A401C761C20624E45F4DB2078C00631
:100510000AD52046AFF3008006E0D4E9012130205F
:100520009047206A401C2062381EA7F10107F4DCC6
:1005300007E0D4E9012118F805009047206A401C23
:100540002062281EA5F10105F3DC2046AFF30080F0
:100550002078000602D50220BDE8F0870120FBE7E5
:10056000074B70B50D467B4400F08DF804462846D5
:1005700000F09CF810B14FF0FF3070BD204670BD08
:10058000971700002DE9F04115460E46040002D1F0
:100590002C6804B90BA4204600F08CF904442078A0
:1005A00070B127463146384600F074F9044420788B
:1005B00010B1002004F8010B38462C60BDE8F08132
:1005C0000027F9E70000000010B5203AC0F00B80CA
:1005D000B1E81850A0E81850B1E81850A0E8185039
:1005E000203ABFF4F5AF5FEA027C24BFB1E81850AF
:1005F000A0E8185044BF18C918C0BDE810405FEA11
:10060000827C24BF51F8043B40F8043B08BF70478C
:10061000D20728BF31F8023B48BF11F8012B28BF91
:1006200020F8023B48BF00F8012B70474FF0000252
:1006300000B5134694469646203922BFA0E80C50D8
:10064000A0E80C50B1F12001BFF4F7AF090728BFB3
:10065000A0E80C5048BF0CC05DF804EB890028BF2F
:1006600040F8042B08BF704748BF20F8022B11F058
:10067000804F18BF00F8012B7047000001694A1C29
:1006800002610878704700B58FB0CDE901310021D3
:10069000059105497944CDE9031011466846FFF7F5
:1006A000C7FD0FB000BD0000E5FFFFFF70B50446B9
:1006B00000F14C05284601F0D7F9207B00F08004BA
:1006C000284601F04BFA204670BD000010B5654881
:1006D0005421FFF7ABFF64485421FFF7A7FF63489D
:1006E0005421FFF7A3FF62485E49624A624B0160F2
:1006F0005D4810605D4A1A60431C0B65511C016522
:100700000120106557484C3001F0E8F956484C304C
:1007100001F0E4F955484C3001F0E0F9574801F098
:10072000DDF958484F4A56A1784400F0E5F920B960
:10073000544878440A3800F034FA54484A4A52A1DE
:10074000784400F0D9F920B9504878440A3800F0CC
:1007500028FA4F48454A4CA1784400F0CDF920B919
:100760004B4878440A3800F01CFA40233D48DC002E
:100770000021224600F032F920B142487844543832
:1007800000F00FFA384822464023002100F026F9F5
:1007900020B13E487844543800F003FA33482246EA
:1007A0001023002100F01AF9002806D038487844B8
:1007B000BDE81040563800F0F4B910BD2B482DE9C3
:1007C000F041006D2D4E20F00104304601F04CF94F
:1007D000244D4C35284601F047F9224800F0D8F85E
:1007E000284601F0BBF9284601F050F91E4D4C3562
:1007F000284601F039F91C4800F0CAF8284601F0F3
:10080000ADF9284601F042F9184D4C35284601F063
:100810002BF9164800F0BCF8284601F09FF928464D
:1008200001F034F914E0206D20F0010504F14C00D2
:10083000074601F019F9204600F0AAF8384601F001
:100840008DF9384601F022F9204600F097F82C4641
:10085000002CE8D1304601F081F9084801F016F982
:10086000BDE8F0812000002074000020C8000020B6
:1008700004000020080000200C00002010000020D0
:100880007200000090380000770000007F38000000
:100890005838000030B503461D781DB10A4603E004
:1008A000AC4201D1181A30BD12F8014B002CF7D11F
:1008B0005B1CF1E730B503461D783DB10A4612F8DE
:1008C000014B1CB1AC42FAD15B1CF5E7181A30BDE4
:1008D000754600F06DF9AE4605006946534620F0B6
:1008E0000700854618B020B5FFF784FCBDE820401E
:1008F0004FF000064FF000074FF000084FF0000BDC
:10090000AC46ACE8C009ACE8C009ACE8C009ACE84A
:10091000C00921F007018D46704770B516460D4697
:10092000041F002808BF70BD002E1CBF05F1080081
:1009300001F09AF82B465868002818BFA04238BF2B
:100940000346F8D31968CA18A24218BF5C6003D1E5
:1009500022681C461144196021680A19824218BF96
:10096000606004D142686260006808442060002E24
:100970001CBF05F1080001F0F1F870BD10B5044688
:1009800000F01AF901682046BDE810400122C4E7D2
:100990002DE9F04704464FF0FF380026C568D4E93A
:1009A0000497A80718D0204600F062FA384601F0F4
:1009B000EBF8002800DA4646280502D54846FFF73E
:1009C000DDFF4C212046FFF731FE206D20F00100B5
:1009D00020653046BDE8F0874046FBE72DE9F0474B
:1009E00004461E4690460D46C7684C30814601F0CD
:1009F0003BF8B80714D0780212D44046B8F5807F8F
:100A000009D0B0F5007F06D0B8F5806F08D1012677
:100A100004F1240506E0701E6FF07F41884201D387
:100A2000012409E02561E6616560E06820F47060FA
:100A300040EA0800E0600024484601F08FF82046B4
:100A4000BDE8F0872DE9F04716468846070010D02C
:100A500006F14C00814601F007F83046FFF798FF99
:100A600018F8010B61280DD0722805D0772841D1E4
:100A700005E00020BDE8F0870125002405E00225FF
:100A8000042402E0082448F2020518F8010B2B2880
:100A900006D0622809D018F8010C74280AD00BE09F
:100AA00045F0030544F00204EFE745F0040544F087
:100AB0000104EAE744F010043846214601F078F8D2
:100AC000411C17D00021316171604FF40071F56055
:100AD000F1617061200704D530460222002100F048
:100AE0000BF9306D40F001003065484601F036F8F2
:100AF0003046BFE70026F8E72DE9F04115460E46DF
:100B00000746214C204600F0AFFF2A4631463846C2
:100B1000FFF798FF0546204601F020F82846BDE87B
:100B2000F0812DE9F0410E468046174D284600F031
:100B30009BFF164C206DC10704D0410804D020F063
:100B40000104F7E7224612E0542000F0CAF807003B
:100B500017D0206D47F00101084354212065384625
:100B6000FFF764FD07F14C0000F0B8FF3A4631464C
:100B70004046FFF767FF0446284600F0EFFF204697
:100B8000CDE70024F8E7000010000020200000203E
:100B900010B50446AFF300802046BDE81040FFF7D3
:100BA00015BB10B500F0AEF9BDE8104000F0A4B9D7
:100BB000004870471C01002010B5FFF7F9FF08300E
:100BC00010BD704770477047704738B504460A46F5
:100BD00000206946AFF30080002808BF38BD0246F8
:100BE0000099204600F0BEF9012038BD012000F038
:100BF00015BAF8B5AFF30080054600200C460C206E
:100C000000BF0646A819A0420DD932466946002009
:100C1000AFF30080070008BF00F000FA0098A04280
:100C200018BF0546C419FFF7C7FF05600746F01D4A
:100C300020F007004619284600F084F9B44208BFA6
:100C4000F8BDA21B31463868BDE8F84000F08AB90B
:100C50000844401E491E884370470821001DF7E7DD
:100C60002DE9F04117460E460446FFF7F6FFA04275
:100C7000054633D9002F1CBF06F1080000F0F4FE32
:100C800030467468F4B12168A94217D305F108020F
:100C900091423CBF6168416007D3626861194A6054
:100CA0002268521B0A6041602560002F1CBF06F1BC
:100CB000080000F053FF201DBDE8F0812046646865
:100CC000002CE0D129463046FFF77FFF0028D7D11E
:100CD000002F1CBF06F1080000F040FF0020BDE817
:100CE000F08110B50446FFF767FF01682046BDE8B4
:100CF00010400122B4E700002DE9F04104461646F9
:100D00000D464769007B80072ED0384600F048FF2B
:100D100050BB3EB3012E02D0022E25D104E0204666
:100D200000F042F905441DE0384600F037FFE16865
:100D3000002841F01001E16005DA204600F058F883
:100D40000120BDE8F081C9030BD56268E16A9142D8
:100D500000D81146A26911442269891A814200DD36
:100D600008460544002D01DA0220EAE7E16A6068DE
:100D7000E268814206D29103E06203D522F4003199
:100D800041F01002A6690027AE4213DCE16A8142FD
:100D900001D90B4600E0034603EB060C2369ACEBDC
:100DA000030CAC4506DD814201D98C4600E0844647
:100DB0009C4505D1A760276042F02000A5620DE0A8
:100DC000AD1BE669AE1B8142A66000D90846C01A79
:100DD000281A20605819606022F02000034908405A
:100DE000E060002084F84870ABE70000BFCFD7FF79
:100DF000C16821F4001141F08001C16000218160CF
:100E0000016070472DE9F74F15460C464FF0FF3B48
:100E10003848D768D2F814A0074209D05046A969CB
:100E200000F0F8FE002819DB3248C0430740EF60AD
:100E30004FF000496FF000484C4501D3464600E0B2
:100E4000264600993B465046324600F0E7FEA96927
:100E500020F00042B21A1144A96128B12846FFF7D8
:100E6000C7FF5846BDE8FE8FA41BE5D10020F9E777
:100E700070B504460569C06A6168884200D80846B2
:100E8000E16821F42011E160C90312D5A84208D01D
:100E90002246411B2846FFF7B5FF10B14FF0FF3047
:100EA00070BD0020E562C4E90150E06820F48030A4
:100EB000E060002070BD10B50446C06820F020003E
:100EC000E060A16AA06988420DD02046FFF7D0FFFC
:100ED000E06820F4405040F01000E060A06AA0619B
:100EE0002069E062606044F24001E0688843E060AD
:100EF00010BD000010000200002801D000F01CB856
:100F00007047000010B5014602A000F06EF8012005
:100F100010BD000053494752545245443A2052658F
:100F20006469726563743A2063616E2774206F7020
:100F3000656E3A200000000001491820ABBEFEE7B4
:100F400026000200002140F8041B40F8041B00F0BA
:100F5000C5BD0C207047801A0844401E491E8843B6
:100F60001044704770B5144605468C464368002B04
:100F700018BF634538BF1846F8D30268104460456F
:100F800008D06646604604220821FFF7E4FF811B73
:100F90008446641A2946CCF80040BDE8704000221F
:100FA0000CF10400FFF7B9BC10B50146C268900708
:100FB00003D0900607D5886A0AE000F037F80121CF
:100FC0000160881E10BD8B69486818440B69C01AFF
:100FD00091F848301BB191F84910401A10BD110327
:100FE000FCD50028FADD401E10BD70B505460C4644
:100FF0000A2000E06D1C00F023FE35B1287800289F
:10100000F8D102E0641C00F01BFE14B12078002827
:10101000F8D1BDE870400A2000F012BE10B500F013
:101020000FF8BDE81040FFF767BF704700F0DCBC69
:1010300010B5FFF7C1FD0068BDE8104000F028B80A
:1010400010B5012805D0002103A0FFF7CEFF012035
:1010500010BD09A1F8E7000053494752544D454DD2
:101060003A204F7574206F662068656170206D6549
:101070006D6F7279000000003A2048656170206D44
:10108000656D6F727920636F72727570746564003C
:1010900010B5083000F0FAFC10BD0000CA7802F06C
:1010A0000F0CD30644BF8B784CEA030CF0B50988CB
:1010B0000D0674D086465EF8143BCC0700F1100490
:1010C0000BD023F00F0343EA0C03282A764602D004
:1010D000482A02D12646012737608E070BD523F018
:1010E000F00343EA0C13482A264602D0282A02D1EC
:1010F0007646022737604E070BD523F4706343EA28
:101100000C23482A264602D0282A02D176460427F4
:1011100037600E070BD523F4704343EA0C33482A9B
:10112000264602D0282A02D1764608273760CE0606
:101130000BD523F4702343EA0C43482A264602D0F9
:10114000282A02D17646102737608E060BD523F465
:10115000700343EA0C53482A264602D0282A02D1BB
:101160007646202737604E060BD523F0706343EA9E
:101170000C63482A264602D0282A02D17646402708
:101180003760002D0AD523F07043482A43EA0C73D8
:1011900002D0282A02D17446802727600360B1F567
:1011A000807F38BFF0BD4368CC0500F1100E00F120
:1011B00014040CD523F00F0343EA0C03282A254618
:1011C00002D0482A03D175464FF480762E608D05F3
:1011D0000CD523F0F00343EA0C13482A754602D0DD
:1011E000282A03D125464FF400762E604D050CD5F4
:1011F00023F4706343EA0C23482A754602D0282A58
:1012000003D125464FF480662E600D050CD523F4DE
:10121000704343EA0C33482A754602D0282A03D18A
:1012200025464FF400662E60CD040CD523F47023C0
:1012300043EA0C43482A754602D0282A03D12546A2
:101240004FF480562E608D040CD523F4700343EACE
:101250000C53482A754602D0282A03D125464FF45C
:1012600000562E604D040CD523F0706343EA0C63E6
:10127000482A754602D0282A03D125464FF48046D5
:101280002E6009B2B1F1FF3F01DD4360F0BD23F0F4
:101290007041482A41EA0C7302D0282AF5D1A646AB
:1012A0004FF40041CEF800104360F0BDB0B540F2FD
:1012B000040CC4F2010C0CF118031A46B0F1FF3F04
:1012C000C4BF0422C4F20102146800F44012B2F553
:1012D000401F1FFA80FE08D1DCF8005024F0706235
:1012E00025F07064CCF8004011E0C20206D46FF023
:1012F0000F0202EA50420EFA02F204E0C0F3034287
:10130000032505FA02F224EA020242F070626FF04D
:101310000F0404EA504400290EFA04F518BF2A43CA
:10132000B0F1FF3FC8BF63461A60B0BD416170476E
:101330000161704700000000000000000000000094
:10134000EFF30980BFF36F8F0D4B1A6820E9F00FA0
:1013500010602DE908404FF0100080F3118801F073
:1013600075FD4FF0000080F31188BDE80840196852
:101370000868B0E8F00F80F30988BFF36F8F7047FB
:1013800014060020002941F21801C4F202010A6883
:101390000CBF22EA000010430860704710B541F20C
:1013A0000404C4F20204226802F00C02082A41F28A
:1013B0000022C0F27A0212D12368D4F800C0C3F32D
:1013C000834E5FEACC330EF1020C02D523689B03F7
:1013D00003D540F60012C0F23D020CFB02F202609F
:1013E000236843F6A471C3F30313C0F60001CB5C7A
:1013F000DA4042602368C3F30223CB5C22FA03F392
:1014000083602368C3F3C223C95C43F6907322FA56
:1014100001F1C1602268C0F60003C2F381329A5C18
:10142000B1FBF2F1016110BD0000000000000000FE
:10143000074B19680868B0E8F00F80F30988BFF31C
:101440006F8F4FF0000080F311884EF00D0E704743
:101450001406002080B54EF21000CEF200000068A5
:1014600002F0ACFA012808BF80BDBDE8804001F061
:101470002BBE000041F20400C4F20200016801F03A
:101480000C01082941F20021C0F27A010FD1026853
:101490000368C2F38342DB0302F1020202D5036850
:1014A0009B0303D540F60011C0F23D01514340F2C9
:1014B0001402C2F200021160006843F69473C0F394
:1014C0000310C0F60003185C21FA00F010607047AA
:1014D00082B041F20400C4F2020050F8041C002261
:1014E00041F0010140F8041C0168CFF6FF021140F1
:1014F000016050F8041C4FF6FF72CFF6F6621140FF
:1015000040F8041C50F8041C21F4802140F8041C0D
:10151000016821F4FE0101604FF41F0141600021C8
:101520000191009150F8041C41F4803140F8041CF2
:1015300050F8041C01F4003100910199013101912E
:10154000009919B90199B1F5A06FF1D150F8041CB7
:10155000890354BF0021012100910099012953D131
:1015600042F20001C4F202010A6842F010020A606D
:101570000A6822F007020A600A6842F002020A6062
:101580000168016001680160016841F480610160E7
:10159000016821F47C110160016841F4E8110160E7
:1015A00050F8041C41F0807140F8041C50F8041CF1
:1015B00089010CD450F8041C89015CBF50F8041C4C
:1015C0005FEA811103D450F8041C8901EED501684B
:1015D00021F003010160016841F00201016000BFD8
:1015E000016801F00C0108290ED0016801F00C011E
:1015F000082909D0016801F00C01082904D001680C
:1016000001F00C010829EBD14EF60850CEF2000093
:101610004FF00061016002B07047000096B040F2E8
:10162000783440F2D01A40F27C1843F6E275C2F2E8
:1016300000044FF0FF39C2F2000AC2F20008C0F6FF
:10164000000502AE13E000BF01273046394600F026
:10165000F9FADAF8000000210022002301F01AFE56
:101660002068022101F064FC012001F021FA2068C9
:10167000012101220023CDF8009001F095FCC00764
:10168000F2D0DAF800004FF0FF3102F003F84046E4
:101690002946FEF753FE00280290D5D000202946A7
:1016A000FEF74CFE0028CFD0012100BF4F1C46F8AA
:1016B000210000202946FEF741FE00283946F5D1D9
:1016C000C3E7000082B040F6004B40F2783640F2AB
:1016D000D01540F27D3440F27C3843F6CB7A43F6A5
:1016E000DB79C4F2010BC2F200064FF0FF37C2F201
:1016F0000005C2F20004C2F20008C0F6000AC0F6FB
:10170000000908E0286800210022002301F0C2FD42
:10171000012001F0CDF93068032101220023009758
:1017200001F042FC8007F3D528684FF0FF3101F04B
:10173000B1FF217898F800205046FEF76DFD207823
:1017400030B14846FEF7E4FD58460421FFF7F0FDAE
:1017500098F800000028D5D043F6D470C0F60000F9
:10176000FEF7D6FD58460421FFF7E0FDCAE700006A
:1017700040F2D01440F2CC1540F27837C2F20004A7
:10178000C2F200050026C2F2000708E0206800212E
:101790000022002301F07EFD012001F089F920687C
:1017A0004FF0FF3101F076FF28780128EED12E703E
:1017B0003868012101F0BCFBE8E7000082B040F28C
:1017C000783540F2D01740F27C14C2F200054FF099
:1017D000FF36C2F20007C2F2000402E0012001F06D
:1017E00067F92868012101220023009601F0DCFB43
:1017F000C007F3D038684FF0FF3101F04BFF2046AF
:10180000FEF786FD386800210022002301F042FD2A
:10181000E4E7000010B543F60004C4F201042046DA
:1018200040F2255100F04CF830B3204600F0D4F8D7
:10183000C1B20A2940F2CD11C2F2000113D10878D9
:1018400040F68C22C2F2000210800A7840F27C132B
:10185000C2F200030020985440F2CC12C2F20002FF
:101860000123137007E00A7840F27C13C2F20003F0
:101870009854087801300870204640F22551BDE8A0
:10188000104000F005B80000C94301807047000017
:10189000090A012202FA01F1C943018070470000E0
:1018A0008289002918BF012122F4005242EA413105
:1018B000818170470088084018BF012070470000F0
:1018C000C1F34212022A06D0012A14BF00F1140209
:1018D00000F10C0201E000F110021288008801F012
:1018E0001F03090ADA40C840104000F001007047A9
:1018F000C1F3421301F01F0C1421022B08BF102169
:10190000012B4FF0010308BF0C21002A03FA0CF24F
:1019100043580CBF23EA02021A43425070470000AA
:1019200070B586B00446008A0D46C98820F4405040
:1019300008432082A0894EF6F3110840A9882A891D
:101940006B89084310431843A081A08AA98920F419
:101950004070084301AEA0823046FFF71FFD43F6FA
:10196000000106F10800C4F201018C4208BF06F133
:101970000C0000681922B4F90C1050432A680123A6
:10198000B1F1FF3FC8BF022302FA03F1B0FBF1F04F
:1019900048F21F51C5F2EB11A0FB01235A096FF069
:1019A000630302FB0300B4F90C300326B3F1FF3FDD
:1019B000C8BF042600FA06F000F13200A0FB0101C6
:1019C0004FF00700C8BF0F2000EA511040EA021094
:1019D000208106B070BD000080886FF35F207047E3
:1019E0006FF35F2181807047B0B501F0E7FF40F2EF
:1019F0008035C2F20005022805F5C0742FD101F030
:101A0000D7FF40F26051C2F200010A68A2B18242DF
:101A100015D00A4652F8043F9BB1834213D00A46C0
:101A200052F8083F8BB1834214D051F80C2FC2B149
:101A3000824214D103200EE000230A4606E0002073
:101A400009E0012302E0012005E00223106003EB1E
:101A5000430002E0022000EB400005EB401420466A
:101A6000B0BD0323E9E7000010B5044601F0A6FF6E
:101A7000022818BF10BDEFF3058000B110BD20682B
:101A80004FF0FF31BDE8104001F004BE10B5044630
:101A9000006800F0E1FF40F26430C2F2000021680B
:101AA0000268914217D0024652F8043F99420FD083
:101AB000024652F8083F99420AD0024652F80C3FBB
:101AC000994205D050F8102F9142024618BF10BD20
:101AD0000020106010BD0246FAE70000B0B50446D1
:101AE000002040F264312060C2F200010A687AB13D
:101AF0000D4655F8040F68B10D4655F8080F58B15A
:101B00000D4655F80C0F48B151F8100FA8B9042034
:101B10000D4604E0012002E0022000E0032040F234
:101B2000D41100EB8000C2F2000101EB0011012092
:101B300001F0F6FA2860206038B901F03FFF022872
:101B400003D1012001F0D8FA2060002080F3118831
:101B50002068002818BF0120B0BD000010B5044661
:101B600001F02CFF022818BF10BDEFF3058000B173
:101B700010BD2068002100220023BDE8104001F0C4
:101B800089BB00007047000048F20401411A0020A0
:101B900011F1030F38BF4FF0FF307047002070473E
:101BA00048F20101411A0020032938BF0120704783
:101BB000002804BF4FF0FF30704710B5044600788E
:101BC0003A281CBF4FF0FF3010BD43F6BC71C0F681
:101BD00000012046FEF728FCB0B143F6C371C0F601
:101BE00000012046FEF720FC88B143F6B471C0F630
:101BF00000012046FEF718FC01464FF0FF30002997
:101C000008BF48F2030010BD48F2010010BD48F2C1
:101C1000020010BD4FF0FF307047000048F2030192
:101C200088420AD048F2020188421CBF4FF0FF30C0
:101C3000704712B1013A00BEFCD10020704700008D
:101C400000BE70470C29C8BF704710B5046821A1B9
:101C50002046FEF7E9FB60B11FA12046FEF7E4FB3A
:101C600090B11EA12046FEF7DFFBC0B1BDE81040D9
:101C7000704721A0FEF74CFB40F27D30C2F200001D
:101C80000121017000201CE019A0FEF741FB40F289
:101C90007D30C2F2000000210170012011E011A08E
:101CA000FEF736FB40F27D30C2F2000040F27C329B
:101CB0000178C2F20002127881F00101017082F015
:101CC000010040F27C31C2F200010870BDE8104012
:101CD000704700BF4F4E00004F464600544F4747E5
:101CE0004C450000544F47474C45204C45440000AC
:101CF0004F4646204C4544004F4E204C4544000082
:101D0000B0B543F60005C4F201050446C1B2284649
:101D1000FFF766FE28468021FFF7CCFD0028F9D0AA
:101D20002046B0BDB0B584B00120012401F0E4F933
:101D300040F2D011C2F20001086001F0EBF840F26D
:101D40007831C2F200010860FFF7C2FBFFF792FB97
:101D50004FF4165000F014FD2AA0FEF7D9FA08201F
:101D60000121FFF70FFB01200121FFF70BFB40F2E0
:101D70000020C0F230000121FFF798FA0420C1F2E0
:101D80000300039040F60040C4F2010003A9FFF7EE
:101D900085F91FA0FEF7BCFA41F271700025C0F66C
:101DA00000001FA180220023CDE9004501F0A8FD1D
:101DB00041F2BD70C0F600001CA180220023CDE9D5
:101DC000004501F09DFD41F21D60C0F600001AA122
:101DD00080220023CDE9004501F092FD41F2C5606B
:101DE000C0F6000019A180220023CDE9004501F0D2
:101DF00087FD1BA0FEF78CFA00F0C2FF002004B0A4
:101E0000B0BD00BF68656C6C6F20776F726C64004A
:101E1000646F6E6520636F6E666967206932730058
:101E20006E68616E20756172742000005461736B7E
:101E30005F73656E640000005461736B5F63686577
:101E4000636B5F73796E7461780000005461736B2B
:101E50005F636F6E74726F6C6C5F6C656400000022
:101E6000537461727420565461736B536368656474
:101E7000756C657200000000F0B581B00D4642F649
:101E8000547140F21466C2F20001C2F200060F68FB
:101E900031680446081D00F0D1FC601C18D1BDB1AA
:101EA00042F62C70C2F200004168326891608A6884
:101EB0003368DA6032688B6804325A603268043200
:101EC0008A603168486101680131016001B0F0BD8C
:101ED0003068E41944600BD340F22460C2F2000081
:101EE00000683168043101B0BDE8F04000F0F4BC96
:101EF00040F21C60C2F2000000683168043100F05A
:101F0000EBFC42F6F860C2F2000001688C4238BF78
:101F1000046001B0F0BD00002DE9F047044600F078
:101F20000BFD42F69020C2F20000016840F21467F7
:101F300001310160C2F20007396842F6207A40F2AE
:101F40002C66C2F2000AC2F2000651B1DAF80000B3
:101F500000283ED13868E16AC06A884298BF3C6078
:101F600037E03C600068012833D10025701900F08B
:101F7000A3FC1435B5F58C6FF8D142F6C468C2F2F3
:101F80000008404600F098FC42F6D869C2F2000909
:101F9000484600F091FC42F60C70C2F2000000F0DE
:101FA0008BFC42F64070C2F2000000F085FC42F665
:101FB0002C70C2F2000000F07FFC40F21C60C2F204
:101FC0000000C0F8008040F22460C2F20000C0F8B7
:101FD000009042F69C20C2F200000168251D0131EC
:101FE0000160616442F6A021C2F20001E06A0A6861
:101FF000904288BF086000EB800006EB80014A68D1
:1020000061619368A260E360936895605D6056F8D3
:102010002010013146F8201000F09EFCDAF8000094
:1020200088B13868E16AC06A884228BFBDE8F08795
:102030004EF60450CEF200004FF080510160BFF325
:102040004F8FBFF36F8FBDE8F087000042F69425F5
:1020500040F22C6A4EF6045842F6407742F690263B
:10206000C2F20005C2F2000ACEF200084FF0805919
:10207000C2F20007C2F2000606E000BF206B00F0CB
:1020800079FC204600F076FC2868A8B100F054FCEA
:10209000F868C468201D00F0D1FB3068013830605A
:1020A00028680138286000F057FC94F8590001288E
:1020B000E7D00028E2D0E7E7DAF800000228E3D30F
:1020C000C8F80090BFF34F8FBFF36F8FDCE70000BD
:1020D0002DE9F0470A9C8246206B16460F46DDE943
:1020E00008599100A5229846FEF773F9206B002F3E
:1020F00000EB8600A0F1040020F0070654D03878E9
:1021000084F83400387800284BD0787884F835008B
:102110007878002845D0B87884F83600B878002858
:102120003FD0F87884F83700F878D0B3387984F85D
:1021300038003879A8B3787984F83900787980B391
:10214000B87984F83A00B87958B3F87984F83B0044
:10215000F87930B3387A84F83C00387A08B3787A62
:1021600084F83D00787AE0B1B87A84F83E00B87A15
:10217000B8B1F87A84F83F00F87A90B1387B84F8E7
:102180004000387B68B1787B84F84100787B40B1AF
:10219000B87B84F84200B87B00281CBFF87B84F829
:1021A0004300002084F84300201D372D28BF372529
:1021B000E562E56400F08CFB04F1180000F088FB98
:1021C000C5F13800A0613046514642462461646240
:1021D00000F0C6FAB9F1000F206018BFC9F800403E
:1021E000BDE8F08706480068006880F3088862B69A
:1021F00061B6BFF34F8FBFF36F8F00DF00BF0000EA
:1022000008ED00E02DE9F04F81B0814601F0EAFBD6
:1022100040F21062C2F2000211688346884244D242
:1022200040F21864C2F20004206840F2286A016893
:10223000C2F2000AA9B9DAF8001040F21062CAF836
:1022400000000120C2F2000221602FE000F0FE0039
:1022500086F82800316A30468847206801680029DE
:10226000E9D0C068C668D0F80080371D384600F055
:10227000E5FA96F828004107E8D5B06900EB0805B3
:10228000756010EB0800366109D200BF316A304634
:102290008847B0692918054475603661F6D3DAF8C5
:1022A0000000394600F018FBD4E70020C9F8000010
:1022B0005846C2F800B001B0BDE8F08F81B00020F0
:1022C00000904FF0100080F31188BFF36F8FBFF3C1
:1022D0004F8F00BF009830B9009820B9009810B90E
:1022E00000980028F6D001B07047000086B040F298
:1022F000186840F2286BC2F200080DF10809C2F21A
:10230000000B00BFD8F80000DA46066816B1C068B6
:10231000046800E0002400F091FD4846FFF772FFDA
:10232000029949B101F026FDD34642F6587A01AC34
:10233000C2F2000A5CE000BF054646B3AC4226D8B4
:1023400001F018FDD8F80000C068C66806F1040B5B
:10235000584600F073FA96F8280041070BD400F0B5
:10236000FE0086F828003CE0291B814232D3316A06
:10237000304688473C46B06936610719AF427760FE
:10238000F2D9A54228D2A7424046F0D225E00EB1AC
:10239000002205E0DAF800000068B0FA80F0420997
:1023A00042F65876C2F200063068611B00F05CFB12
:1023B00001F0E0FCD346B24601ACC8B94EF6045079
:1023C000CEF200004FF080510160BFF34F8FBFF39A
:1023D0006F8F0DE0504600E040460068594600F01F
:1023E0007BFAD34642F6587A01ACC2F2000A77E093
:1023F000DAF800004946002201F060F800283FF4B6
:1024000081AF0298B0F1FF3F06DCDDE903200599BA
:10241000904702980028EBD4049E706910B1301DDB
:1024200000F00CFA2046FFF7EDFE02990139082969
:10243000DED80746DFE801F005051A1D3905051A43
:102440001D0096F82810039AB06941F0010386F840
:1024500028308318354645F8043FBB4236611FD902
:10246000974230D29342424634D22DE096F828006B
:1024700024E096F82800366140F00101039886F8C0
:102480002810C219314641F8042FBA424246B061C1
:1024900002D800285A46ABD0106800F01DFAA7E712
:1024A000BA1A82425A4615D20EE096F828008107E1
:1024B00004D4304600F05EFA9AE700BF00F0FE0058
:1024C00086F8280094E742461068294600F004FA8E
:1024D0008EE700BF4A0707D401F0FE0086F8280007
:1024E000316A3046884783E70399014408E000BF1A
:1024F000791A814212D3316A30468847B069514611
:1025000001EB000ABA45C6F804A03661F0D98F4243
:1025100006D28A454046EED203E000BF584600E0AE
:1025200040460068294600F0D7F95BE7F0B581B076
:10253000044600F001FA94F94560012E0FDB04F126
:10254000240500BF286850B1284601F0A3FB0028ED
:1025500018BF00F003FB70B2013E0128F2DCFF2639
:1025600084F8456000F0F8F900F0E6F994F9447059
:10257000012F0EDB04F11005286850B1284601F048
:1025800089FB002818BF00F0E9FA78B2013F012862
:10259000F2DC84F8446001B0BDE8F04000F0DCB942
:1025A000F0B581B0044600F049FC40F2206EC2F262
:1025B000000EDEF8000008B154BB2EE040F68E207D
:1025C000C2F20000C11D420700F5005218BF21F001
:1025D000070042F62471C2F200010023C1E90003A2
:1025E00022F00701A1F10802CEF8002041E90233F0
:1025F000111ADEF80020C0E9002142F6F460C2F2B0
:102600000000016042F6EC60C2F20000016024B1FB
:1026100004F007001138A04205D2002401F0AAFB03
:10262000204601B0F0BD24F0070000F11003012B9B
:102630004FF00004F2DB42F6EC6CC2F2000CDCF866
:1026400000008342EAD842F62472C2F20002106807
:102650004168994223D204680CB3054661689942E7
:1026600013D226688EB17168994211D232687AB15C
:10267000516899420FD215686DB1696899420DD2BF
:102680002C682846002CE9D109E020462A4606E0BD
:102690003046224603E01046324600E02846DEF887
:1026A0000040A042B9D014680668CD1A112D1660FA
:1026B0002ED342F62472C118C2F200024D6043606C
:1026C00015688D420AD22A688A420AD215688D425C
:1026D00004D22A682B468A42F2D303E013462A46E4
:1026E00000E02B465E684D689F198F4202D1354449
:1026F00019465D604E19964206D1DEF80070BA4266
:1027000002D084CA2F444F608B420A6018BF196000
:1027100042F6F4624168DCF80030C2F20002176849
:102720005B1ABB42CCF8003038BF136042F600732E
:10273000C2F200031F6841F0004100220834C0E9E2
:102740000021781C186069E740F21460C2F20000B2
:10275000016819B101680A6D01320A6500687047A5
:10276000034642F2BD20C0F600004FF0807C21F00D
:10277000010103E90310A3F1400043F8202C704746
:10278000F0B585B005464FF480400121FEF7FAFD13
:1027900004200121FEF7F6FD43F6000440F200207C
:1027A000C4F20104C1F60300A4F5405604AF04903E
:1027B00030463946FEF772FC4FF48060ADF81000E9
:1027C00048208DF8130030463946FEF767FC009527
:1027D00000254FF44020CDE9015069462046ADF870
:1027E0000C50FFF79DF820464021FFF74DF820469A
:1027F00040F225510122FFF77BF84EF20410CEF291
:102800000000202101604EF22540CEF20000102190
:10281000017020460121FFF743F840F2CC10C2F2CC
:102820000000057040F2CD10C2F20000057040F6C5
:102830008C20C2F20000058005B0F0BDD0E9013265
:1028400001699A60D1F804C082688445536008BF6A
:102850004A60002202610868013808600868704711
:1028600040F21461C2F20001086880690A68D26A05
:102870000968C2F138028A617047000042F6A44339
:10288000C2F20003036042F6A420C2F20000086016
:10289000802010607047000042F64063C2F20003DF
:1028A000036042F60050C2F2000008605020106041
:1028B00070470000704700004FF0FF31024642F8B9
:1028C000081F00214260C0E9032201607047000038
:1028D000002101617047000010B5D1F800E01EF141
:1028E000010213D000F1080462681368734511D81F
:1028F00053681C68744510D85A68146874450ED81B
:1029000054682368A4467345EED90AE00269D2F8F8
:1029100004C006E09446224603E09C4601E094464B
:102920001A46C1F804C0CCF808108A6051600861EA
:1029300001680131016010BD4FF0100080F3118873
:10294000BFF36F8FBFF34F8F40F21800C2F2000049
:10295000016801310160704740F21800C2F20000C6
:1029600001680139016018BF7047002080F31188A9
:1029700070470000B0B528B1044650F8040CB0F11F
:10298000FF3F00DDB0BDA4F108052968002918BF8C
:10299000B0BD20F0004044F8040C00F04FFA42F6BD
:1029A000EC60C2F2000054F8041C02680A440260A1
:1029B00042F62470C2F200000368AB420AD21868E3
:1029C000A8420AD20368AB4204D218681A46A84249
:1029D000F2D303E00246184600E01A465368D418C2
:1029E000AC4202D11944154651606B18834209D19B
:1029F00040F22063C2F200031B68984202D009C86B
:102A000019446960286042F60470AA4218BF156034
:102A1000C2F20000016801310160BDE8B04001F080
:102A2000A9B900004EF21000CEF2000000210160B2
:102A3000816040F21401C2F20001096844F6D352E9
:102A4000C1F26202A1FB02124FF0FF3101EB9211C1
:102A5000416007210160704790F84610002918BFB7
:102A60007047FFF787BF000070B515460E46044655
:102A7000FFF762FF94F84400FF2804BF002084F8A9
:102A8000440094F84500FF2804BF002084F8450066
:102A9000FFF762FFA06B28B904F1240031462A46F3
:102AA00000F074F82046BDE87040FFF73FBD00001D
:102AB00070B5C0B3044642F69820C2F20000016827
:102AC00040F214650131016042F65470C2F2000018
:102AD000C2F20005066828680430FFF7AFFE2868D8
:102AE000A419446009D340F22460C2F200000068D7
:102AF00029680431FFF7F0FE10E040F21C60C2F2DA
:102B00000000006829680431FFF7E6FE42F6F8602D
:102B1000C2F2000001688C4238BF046001F02AF95B
:102B2000002818BF70BD4EF60450CEF200004FF0E2
:102B300080510160BFF34F8FBFF36F8F70BD0000F6
:102B400042F6FC61C2F200010968016042F654716C
:102B5000C2F20001096841607047000042F66070EF
:102B6000C2F20000012101607047000010B50C4660
:102B700040F21461C2F2000109681831FFF7ACFE9F
:102B800020460121BDE81040FFF776B910B540F2AC
:102B9000146CC2F2000C86464068DCF80030002A53
:102BA000D8618368DCF800402362DCF80030846878
:102BB00003F118036360DCF8003003F1180383604D
:102BC000DCF80000C0F828E0DEF80030084603F129
:102BD000010318BF4FF0FF301146CEF80030BDE8BA
:102BE0001040FFF749B9000010B540F2146EC2F270
:102BF000000EDEF800C041F00041CCF8181003468A
:102C00004168DEF80000D1F808C0C161DEF80000BC
:102C1000C0F820C0DEF800C08C680CF118006060BD
:102C2000DEF8000018308860DEF800008362196862
:102C300010464A1C01211A60BDE81040FFF71CB97C
:102C4000002808BF704770B5C26C0446C06A8A424B
:102C500088BF1146884214D0226D012A11D1A26981
:102C6000E162002A5CBFC1F13801A16140F22C662B
:102C7000616900EB8000C2F2000606EB8000814231
:102C800002D0BDE870407047251D2846FFF7D6FDED
:102C900042F6A021C2F20001E06A0A68904288BFB1
:102CA000086000EB800006EB80014A686161936870
:102CB000A260E360936895605D6056F82010013172
:102CC00046F82010BDE870407047000041F0004118
:102CD0000160D0E90131026999605168D0F808C0FB
:102CE0008142C168CCF8043008BFC2F804C0B0B556
:102CF00000230361106801F1040C01381060D1E970
:102D000002034A698360D2F804E0CB68E645586064
:102D100008BF5360106842F6A02301381060C2F269
:102D20000003CA6A186840F22C6E824202EB8200ED
:102D3000C2F2000E88BF1A600EEB80035C684B6124
:102D4000A5688C60CD60A568C4F808C0C5F804C04B
:102D50005EF8201001314EF8201040F21460C2F2EB
:102D600000000068C06A8242BDE8B04098BF70476A
:102D700042F66070C2F2000001210160704700005D
:102D800070B588B00020CDE9050006A805A904AA01
:102D9000FFF774FD059E002E44D0069C002C41D008
:102DA000049D20465C21FDF71CFB022084F859009D
:102DB00007A800212663CDE9001042F24D00C0F6BD
:102DC00000001CA12A4600230294FFF781F9204647
:102DD000FFF7A2F8079842F6F061C2F2000108601E
:102DE00000B301F079F801281CD14FF0100080F3F6
:102DF0001188BFF36F8FBFF34F8F42F6F860C2F2B6
:102E000000004FF0FF31016042F62070C2F2000076
:102E10000121016042F65470C2F2000000210160FD
:102E200000F022F943F6E470C0F60000006808B034
:102E300070BD00BF49444C450000000042F6982098
:102E4000C2F20000016801310160704742F698202B
:102E5000C2F20000006830B142F66070C2F20000B9
:102E600001210160704710B542F66070C2F20000A7
:102E7000002140F214640160C2F200042068006B7B
:102E80000168B1F1A53F0BD14168B1F1A53F07D170
:102E90008168B1F1A53F03D1C068B0F1A53F04D06E
:102EA000206821683431FFF705FD42F6A02CC2F2FC
:102EB000000CDCF8001040F22C6201EB8103C2F23E
:102EC000000202EB8303143B586980B9186858B9B3
:102ED00053F8140C50B953F8280C04390028A3F106
:102EE0005003F1D0013102E0013900E0023901EB79
:102EF000810002EB800353F8040F4268181D8242E0
:102F00001A6001D152681A60D0682060CCF80010B5
:102F100010BD0000B0B52020FFF742FB044628B1E9
:102F20000025201D2560FFF7C7FC25772046B0BD92
:102F30002DE9F0410D46804600F10C06FFF77EFFBB
:102F4000D8F80000D8F810702843B742C8F800003D
:102F50001ED000250AE000BF34B141F00071DB0152
:102F600048BF1543FFF7B2FEB7420DD03846D7E948
:102F70000037D8F8001023F07F425C0101EA020418
:102F8000EAD59442E9D0EFE7D8F80000E94301E040
:102F90004FF0FF310840C8F8000000F0EBFED8F811
:102FA0000000BDE8F08100002DE9F0411F46904689
:102FB0000D460446FFF742FF266806EA0500B0FA10
:102FC00080F1401B18BF0120002F08BF48090028CE
:102FD0003FD0069A002A42D04046B8F1000F18BFF1
:102FE0000120010601F18061002F08BF0106201DAC
:102FF0002943FFF7F9FD00F0BDFE50B94EF604502D
:10300000CEF200004FF080510160BFF34F8FBFF34D
:103010006F8FFFF725FC0646800116D4FFF78CFC66
:10302000266816EA0500A0EB050118BF0120002F55
:10303000B1FA81F118BF4809B8F1000F1EBF00288E
:1030400026EA05002060FFF787FC26F07F40BDE8F8
:10305000F081B8F1000F1CBF26EA0500206000F0E7
:1030600089FE3046BDE8F08110B582B04EF62050A2
:10307000CEF20000016841F47F010160016841F077
:103080007F410160FFF7CEFC40F21800C2F2000061
:1030900000240460FFF7A6F8FFF7D8FE01944FF074
:1030A000100080F31188BFF36F8FBFF34F8F00BF05
:1030B000019830B9019820B9019810B901980028F9
:1030C000F6D0002002B010BD80B54FF0100080F3A4
:1030D0001188BFF36F8FBFF34F8F00F089FC30B1C1
:1030E0004EF60450CEF200004FF0805101600020F7
:1030F00080F3118880BD0000B0B502460120002198
:10310000002500F043F8044640B12046002100228B
:1031100000232560C4E9025500F0BCF82046B0BD8C
:1031200070B50C4679B305460120002684F84600A8
:103130002460C4E90F06FFF7FFFB2068D4E90F12F3
:10314000A66302FB0103013901FB0201C4E901038B
:10315000FF20E16084F8440084F8450004F1100089
:10316000FFF7AAFB04F12400FFF7A6FBFFF7F4FB2F
:10317000204600210022002384F84C502660C4E938
:10318000026600F087F8204670BD00002DE9F0418E
:10319000E0B307460C46A0FB0101B9BB04FB07F0F6
:1031A00010F1510F32D850309046FFF7F9F94FF037
:1031B000000640B3054680F84660002C18BF50302A
:1031C0002860C5E90F74FFF7B7FB2868D5E90F122F
:1031D000AE6302FB0103013901FB0201C5E90103F2
:1031E000FF20E96085F8440085F8450005F11000EE
:1031F000FFF762FB05F12400FFF75EFBFFF7ACFB76
:103200002E4685F84C803046BDE8F0810020BDE8B0
:10321000F081000070B51C4600284FF0000318BF75
:10322000002C01D1184670BD09B9002AFAD109B1A4
:10323000002AF7D0A0FB01350123049E002984F861
:10324000463008BF22462260C4E90F01EDB9FFF7FE
:1032500073FB2068D4E90F12002502FB010301393A
:1032600001FB0201A563C4E90103FF20E16084F8CA
:10327000440084F8450004F11000FFF71DFB04F141
:103280002400FFF719FBFFF767FB234684F84C6027
:10329000184670BD2DE9F04F83B01D4617468A468B
:1032A00004460292FFF748FBA06B022D54D0E16B5D
:1032B000884251D3002F00F0FB806846FFF740FCA6
:1032C000FFF74AFBFFF7BAFDFFF736FB94F844001F
:1032D000FF2804BF002084F8440094F84500FF282C
:1032E00004BF002084F84500FFF736FB684602A9BA
:1032F00000F0D6FA28B12046FFF718F900F03AFDA1
:10330000D8E004F11008FFF717FBA76BE66BFFF797
:1033100023FBB74215D102994046FFF727FC204610
:10332000FFF704F900F026FD80B94EF60450CEF206
:1033300000004FF080510160BFF34F8FBFF36F8FDC
:1033400004E02046FFF7F2F800F014FDFFF7F4FA6E
:10335000A06BE16B88425BD2A76B226CD2B115B334
:10336000E0685146FCF7F0FFE168206C2268091A1A
:103370009142E16003D2A16840420844E060A81E87
:10338000B0FA80F040093946002F18BF01210840EB
:103390003F1A15E02068002598B9A06800F0ECFB02
:1033A000A56005460DE060685146FCF7CDFFD4E905
:1033B0000101226C10448842606001D32068606083
:1033C0000025781CA06354F8240F78B1204600F043
:1033D00061FCB8B14EF60450CEF200004FF08051BF
:1033E0000160BFF34F8FBFF36F8F0BE055B14EF607
:1033F0000450CEF200004FF080510160BFF34F8FB8
:10340000BFF36F8FFFF7A8FA012003B0BDE8F08F7C
:10341000E94602AF0CE000BF2046FFF787F800F056
:10342000A9FCFFF789FAA06BE16B8842FFF494AF27
:10343000029800283CD0FFF78FFAFFF7FFFCFFF758
:103440007BFA94F84400FF2804BF002084F844006D
:1034500094F84500FF2804BF002084F84500FFF7DA
:103460007BFA4846394600F01BFA00287FF443AF48
:10347000FFF762FAA66BD4F83CB0FFF76DFA5E4531
:10348000CAD102994046FFF771FB2046FFF74EF87C
:1034900000F070FC0028C4D14EF60450CEF20000BB
:1034A0004FF080510160BFF34F8FBFF36F8FB8E7CC
:1034B000FFF752FA002003B0BDE8F08F2DE9F04F7E
:1034C00083B016460D4604460292FFF735FAD4F84B
:1034D00038A0BAF1000F28D0226C52B1D4E9020111
:1034E0001144E160814224BF2168E1602846FCF775
:1034F0002BFFAAF10100A06354F8100F70B1204611
:1035000000F0C8FB50B14EF60450CEF200004FF070
:1035100080510160BFF34F8FBFF36F8F0124FFF71E
:103520001BFA204603B0BDE8F08F002E00F0B080FB
:103530006846FFF705FBFFF70FFAFFF77FFCFFF781
:10354000FBF994F8440004F12408FF2804BF00208C
:1035500084F8440094F84500FF2804BF002084F854
:103560004500FFF7F9F9684602A900F099F960B142
:103570002046FEF7DBFF00F0FDFBFFF7DDF9A66B51
:10358000FFF7EAF916BB0024CBE7FFF7D5F9A66BE6
:10359000FFF7E2F92EB12046FEF7C8FF00F0EAFB84
:1035A00014E002994046FFF7E1FA2046FEF7BEFF1D
:1035B00000F0E0FB50B94EF60450CEF200004FF0A0
:1035C00080510160BFF34F8FBFF36F8FFFF7B4F9E6
:1035D000D4F838A0BAF1000F7FF47EAF4FF00009A5
:1035E000EB4602AE14E000BF2046FEF79FFF00F05E
:1035F000C1FBFFF7A1F9A76BFFF7AEF9002FC2D00F
:10360000FFF79AF9D4F838A0BAF1000F7FF464AF4D
:10361000029800283CD0FFF79FF9FFF70FFCFFF757
:103620008BF994F84400FF2808BF84F8449094F87C
:103630004500FF2808BF84F84590FFF78DF95846EC
:10364000314600F02DF90028CED1FFF775F9A76BB0
:10365000FFF782F92FB12046FEF768FF00F08AFBE2
:10366000CEE702994046FFF781FA2046FEF75EFF5B
:1036700000F080FB0028C3D14EF60450CEF20000CB
:103680004FF080510160BFF34F8FBFF36F8FB7E7EB
:10369000002444E72DE9F04F83B00D460446029123
:1036A000FFF74AF9A06BF8B10138A063206810B9A0
:1036B000FFF74AF8A06054F8100F70B1204600F0F0
:1036C000E9FA50B14EF60450CEF200004FF08051AE
:1036D0000160BFF34F8FBFF36F8F0126FFF73CF9F7
:1036E000304603B0BDE8F08F002D00F0D78068466B
:1036F000FFF726FAFFF730F9FFF7A0FBFFF71CF9F9
:1037000094F8440004F12408FF2804BF002084F842
:10371000440094F84500FF2804BF002084F84500C9
:10372000FFF71AF9684602A900F0BAF868B1204616
:10373000FEF7FCFE00F01EFBFFF7FEF8A56BFFF79F
:103740000BF94FF0000675BBCAE7FFF7F5F8A56B5C
:10375000FFF702F935B12046FEF7E8FE00F00AFB5C
:10376000002620E0206808B1002607E0FFF7E4F813
:10377000A06800F03BFA0646FFF7EEF802994046D3
:10378000FFF7F4F92046FEF7D1FE00F0F3FA50B946
:103790004EF60450CEF200004FF080510160BFF3AE
:1037A0004F8FBFF36F8FFFF7C7F8A06B00287FF430
:1037B0007BAF4FF00009EB4602AD11E02046FEF76B
:1037C000B5FE00F0D7FAFFF7B7F8A76BFFF7C4F81C
:1037D000002F52D0FFF7B0F8A06B00287FF464AF41
:1037E000029800285AD0FFF7B7F8FFF727FBFFF73A
:1037F000A3F894F84400FF2808BF84F8449094F894
:103800004500FF2808BF84F84590FFF7A5F8584603
:10381000294600F045F80028D0D1FFF78DF8D4F8FC
:1038200038A0FFF799F8BAF1000F05D02046FEF74F
:103830007DFE00F09FFACDE7206838B9FFF77CF8ED
:10384000A06800F0D3F90646FFF786F802994046D3
:10385000FFF78CF92046FEF769FE00F08BFA00288E
:10386000B8D14EF60450CEF200004FF08051016006
:10387000BFF34F8FBFF36F8FACE74EB1FFF75CF82C
:10388000D8F8000030B1206B0068C0F1380102E0C8
:10389000002625E70021A068FFF7D2F900261DE7E2
:1038A00070B50C460546FFF747F842F6547EC2F263
:1038B000000EDEF8003021684A1C1CD042F6FC6C79
:1038C000C2F2000CD5E90002DCF80060864201D0AB
:1038D00093420CD29A1A914209D9881A2060DCF8D6
:1038E000000000242860DEF80000686004E000208A
:1038F0002060012400E00024FFF72EF8204670BD70
:103900002DE9F04F83B0074690009846154689464A
:10391000FEF746FEF0B106465C20FEF741FEB0B170
:10392000DDE90CBA5C210446FCF75BFD38464946EC
:103930002A4643462663CDE900BA0294FEF7C8FB47
:103940002046FEF7E9FA012003B0BDE8F08F3046CB
:10395000FFF710F84FF0FF3003B0BDE8F08F000024
:103960002DE9F04784B00D9D04464FF00000E5B10D
:103970000E9FD7B10E46DDF830A038465C21984640
:103980009146FCF72EFD022087F8590003A83D63FD
:10399000CDE900A0204631464A4643460297FEF74D
:1039A00097FB3846FEF7B8FA039804B0BDE8F087F5
:1039B00040F21460C2F200000068704742F62070C6
:1039C000C2F200000068002804BF0120704742F6E0
:1039D0009820C2F200000068B0FA80F04009400070
:1039E0007047000042F65470C2F200000068704751
:1039F00042F69820C2F20000006840B142F608701A
:103A0000C2F20000016801310160002070472DE919
:103A1000F04F42F65470C2F20000016842F6F862BC
:103A200011F1010BC2F20002C0F800B01CD340F249
:103A30001C6040F22463C2F20000C2F2000301687D
:103A40001F680760196042F6FC61C2F200010B6852
:103A500001330B600168096819B10068C06800682B
:103A600001E04FF0FF301060106840F2146E40F239
:103A70002C688345C2F2000EC2F2000801D2002079
:103A800065E040F21C6AC2F2000ADAF80000006841
:103A9000002851D042F6A029C2F20009002021E0FE
:103AA000F46AD9F800108C4204EB840188BFC9F88D
:103AB000004008EB810255687261AB68B560F36045
:103AC000AB68AF605F6058F82120013248F82120D0
:103AD000DEF80010C96ADAF800208C4288BF0120A5
:103AE000116869B3DAF80040E468E668374657F8C9
:103AF000044FA34526D3D6E9021574698D60626828
:103B0000F568BA42696008BF6560216801392160C3
:103B1000B46A002CC4D0D6E9071206F1180C8A60EA
:103B2000356A626869600021624508BF6560B162FC
:103B3000216801392160B3E74FF0FF34002005E030
:103B40004FF0FF3442F6F862C2F200021460DEF871
:103B50000010C96A01EB810158F82110012942F6D1
:103B60006071C2F2000188BF01200968002918BFF6
:103B70000120BDE8F08F0000002804BF002070473E
:103B8000B0B50446016DC06CE26A013982424FF063
:103B90000000216508BFB0BD31BB251D2846FEF7DA
:103BA0004DFEE06C40F22C6CC0F13801A16142F690
:103BB000A021E062C2F200010A68C2F2000C904249
:103BC00088BF086000EB80000CEB800253686261E4
:103BD0009968A360E16099689D604D605CF8201071
:103BE00001314CF820100120B0BD0000002804BFB6
:103BF00000207047F0B581B040F21467C2F20007B0
:103C00000446C06A3968C96A884216D2A169002987
:103C100004D43968C96AC1F13801A16140F22C6647
:103C2000616900EB8000C2F2000606EB8000814271
:103C30000CD03868C06AE06228E0E16C3868C26A7B
:103C40000020914238BF012001B0F0BD251D28465B
:103C5000FEF7F4FD386842F6A021C06AC2F2000106
:103C6000E0620A68904288BF086000EB800006EBC3
:103C700080014A6861619368A260E360936895601F
:103C80005D6056F82010013146F82010012001B087
:103C9000F0BD0000B0B5C068C068D0E90713826A03
:103CA0008B60036AD2F804E000F1180C596000211F
:103CB000E64508BF5360816211680139116042F620
:103CC0009821C2F20001096891B142F60C71C2F26A
:103CD00000010A684B6801329D68C36105629D68F6
:103CE000C3F808C0C5F804C081620A60C26A2FE048
:103CF000D0E9021342698B60D2F804E0C36800F196
:103D0000040CE645596008BF5360116842F6A023D1
:103D100001391160C2F20003C26A196840F22C6EC8
:103D20008A4202EB8201C2F2000E88BF1A600EEBDB
:103D300081035C684361A5688460C560A568C4F8B8
:103D400008C0C5F804C05EF8210001304EF821001B
:103D500040F21460C2F200000068C06A824291BF63
:103D6000002042F66071C2F20001012088BF0860A5
:103D7000B0BD00002DE9F04F81B0FEF7DDFD42F649
:103D80009820C2F20000016801390160006830B17A
:103D90000024FEF7E1FD204601B0BDE8F08F42F6B9
:103DA0009020C2F2000000680028F1D042F60C7B9F
:103DB000C2F2000BDBF8001042F660780029C2F274
:103DC000000866D042F6A02A40F22C6340F2146943
:103DD0004FF0000EC2F2000AC2F20003C2F2000964
:103DE0004FF0010CDBF80C10CD68D5E90746AF6A3F
:103DF000A6607A682E6A05F118018A42746008BFCD
:103E00007E60C5F828E039682E1D01393960D5E992
:103E100002216F6991607C68E968B4424A6008BF1A
:103E20007960396801393960EF6ADAF800108F4239
:103E300007EB870188BFCAF8007003EB8102546862
:103E40006A61A068AC60E860A068A660466053F84C
:103E50002100013043F82100D9F80000C06A8742F0
:103E600028BFC8F800C0DBF800000028BAD140F233
:103E70001C60C2F200000168096819B10068C068DE
:103E8000006801E04FF0FF3042F6F861C2F2000135
:103E9000086042F60874C2F20004256855B1012694
:103EA000FFF7A6FD002818BFC8F80060013DF7D154
:103EB00000202060D8F8000000283FF469AF4EF6DB
:103EC0000450CEF200004FF080510160BFF34F8FDD
:103ED0000124BFF36F8F5CE770B586B0FEF72CFD51
:103EE00042F65876C2F20006306830BB42F69C6457
:103EF000C2F200042046FEF7DFFC42F6B065C2F2D3
:103F000000052846FEF7D8FC40F21860C2F2000017
:103F1000046040F22860C2F2000040F2705240F2A9
:103F2000C05305600025C2F20002C2F20003052062
:103F300010210095FFF76EF93060FEF70DFD306837
:103F400000284FF000001DD0CDE9040005A804A909
:103F500003AAFEF7A1FCDDE903202821059ECDE997
:103F6000001042F2ED20C0F6000007A100230296E7
:103F7000FFF7F6FC42F65C71C2F20001086000280F
:103F800018BF012006B070BD546D722053766300D7
:103F90000204060800000000000000000102030403
:103FA00006070809000000000102030401020304DF
:103FB000060708093A535444455252003A535444B0
:103FC000494E003A5354444F5554002564202D2047
:103FD00025640A004F4646494E47004F4E4E494E13
:103FE00047005F0037000000084000080000002084
:103FF0002000000050010008284000082000002098
:1040000048350000700100080000000000000000BA
:1040100000000000000000000000000000A24A04B0
:08402000AAAAAAAA00000000F0
:04000005080000ED02
:00000001FF
