:020000040800F2
:10000000C0070020CD010008D5010008D701000875
:10001000D9010008DB010008DD0100080000000034
:10002000000000000000000000000000DF010008E8
:10003000E101000800000000E3010008D90F0008FA
:10004000E7010008E7010008E7010008E7010008F0
:10005000E7010008E7010008E7010008E7010008E0
:10006000E7010008E7010008E7010008E7010008D0
:10007000E7010008E7010008E7010008E7010008C0
:10008000E7010008E7010008E7010008E7010008B0
:10009000E7010008E7010008E7010008E7010008A0
:1000A000E7010008E7010008E7010008E701000890
:1000B000E7010008E7010008E7010008E701000880
:1000C000E7010008E7010008E7010008E701000870
:1000D000E70100080D110008E7010008E70100082A
:1000E000E7010008E7010008E701000800F002F856
:1000F00000F05DF814A696E8000CB244B344DA456B
:1001000001D100F054F8BAE80F000FA696E83000CD
:10011000A5EB040504EB0607AAEB0704A7F101070A
:100120004FEA15154FEA3414A4F10104AC4201D38F
:1001300000F03DF813F0010F18BFFB1A43F0010364
:1001400000F001F8DBE718475C1900007C1900009B
:10015000103A24BF78C878C1FAD8520724BF30C8F3
:1001600030C144BF04680C60704700007047000055
:100170000023002400250026103A28BF78C1FBD8B0
:10018000520728BF30C148BF0B607047642900F098
:100190007D80002070471FB59DE8030000F07EFBC6
:1001A00000F07AF91FBD10B500F0DFF910BD00F0C6
:1001B0000FFA1146FFF7EFFF01F0E6F900F016FB2A
:1001C00003B4FFF7F0FF03BC00F0E6FC09488047EA
:1001D00009480047FEE7FEE7FEE7FEE7FEE7FEE729
:1001E000FEE7FEE7FEE7FEE704480549054A064B41
:1001F00070470000FD0F0008ED000008C00100205E
:10020000C0070020C0030020C00300200FB4044931
:1002100010B503AA029800F011F910BC5DF814FBA8
:10022000640000202DE9F0410E46044600202062C3
:100230002046E168884730B3252805D0D4E901215C
:100240009047206A401CF2E7E16820460027884773
:10025000050018D0A5F14100192802D820354FF427
:1002600000673246294620462760FFF78FFF40B1DE
:10027000012804D0F61D26F007060836D8E7361DFB
:10028000D6E72846DAE7206ABDE8F0812DE9F0419B
:100290000646002410687529314616A510D0AFF324
:1002A0000080002802DA404213A507E031688A077F
:1002B00001D512A502E0490704D511A5012401E0EA
:1002C000AFF3008000210A2206F1240709E0B0FB09
:1002D000F2FCB0FBF2F302FB1C00303078541846FD
:1002E000491C0028F3D123462A463046BDE8F04198
:1002F00000F04BB8000000002D0000002B000000B3
:10030000200000004FF0013C50F8042B51F8043B52
:100310009A4221D1A2EB0C03934313EACC1317D1D9
:1003200050F8042B51F8043B9A4215D1A2EB0C0370
:10033000934313EACC130BD150F8042B51F8043B30
:100340009A4209D1A2EB0C03934313EACC13DBD0FE
:100350004FF00000704700BFD01A01BAB1FA81F126
:1003600001F0180122FA01F0CB40DBB2C0B2C01A92
:10037000C1F120012CFA01F3D11A914311EAC31102
:10038000E6D170477047704770472DE9F0470D463A
:1003900099469246044600F124080168880604D56F
:1003A000E06921F01001216000E00120A84201DD98
:1003B000471B00E00027A1697A1902EB0900081A1F
:1003C000A0612078C00602D42046AFF3008000264A
:1003D00008E0D4E901211AF806009047206A401C81
:1003E000761C20624E45F4DB2078C0060AD52046F4
:1003F000AFF3008006E0D4E9012130209047206A65
:10040000401C2062381EA7F10107F4DC07E0D4E9A4
:10041000012118F805009047206A401C2062281E20
:10042000A5F10105F3DC2046AFF30080207800063B
:1004300002D50220BDE8F0870120FBE7074B70B52D
:100440000D467B4400F011F80446284600F020F8E1
:1004500010B14FF0FF3070BD204670BD031000009A
:1004600001694A1C02610878704700B58FB0CDE978
:1004700001310021059105497944CDE90310114668
:100480006846FFF7CFFE0FB000BD0000E5FFFFFF9D
:10049000007B00F08000704710B54248542100F006
:1004A000B5F94148542100F0B1F94048542100F019
:1004B000ADF93F493B483C4A3F4B08603D490A6023
:1004C0003A491960531C0365481C106501200865F2
:1004D0003B48344A39A1784400F0EAF820B938485A
:1004E00078440A3800F08BF937482F4A35A1784410
:1004F00000F0DEF820B9344878440A3800F07FF97B
:1005000032482A4A2FA1784400F0D2F820B92F4867
:1005100078440A3800F073F940232248DC000021B7
:10052000224600F0A1F820B125487844543800F064
:1005300066F91D4822464023002100F095F820B1BD
:1005400021487844543800F05AF9184822461023BC
:10055000002100F089F8002806D01C487844BDE846
:100560001040563800F04BB910BD104870B5006D02
:1005700020F001040B4800F013F90B4800F010F9CB
:100580000A4800F00DF909E0206D20F00105204631
:1005900000F006F9204600F040F82C46002CF3D17C
:1005A00070BD00001000002064000020B800002092
:1005B000000000200400002008000020720000005D
:1005C000BA15000077000000A91500008215000090
:1005D000754600F043F9AE4605006946534620F0E3
:1005E0000700854618B020B5FFF7FEFDBDE82040A6
:1005F0004FF000064FF000074FF000084FF0000BDF
:10060000AC46ACE8C009ACE8C009ACE8C009ACE84D
:10061000C00921F007018D46704770B50446051FDB
:1006200000F020F90068002C14BF446870BD002C55
:1006300018BFAC423CBF20466468F8D301680A1872
:10064000AA4218BF456003D12A68054611440160DB
:1006500028684119A1421CBF6C6070BD6168696067
:1006600021680844286070BD70B5C468A50713D020
:10067000650211D4B2F5807F09D0B2F5007F06D0B3
:10068000B2F5806F08D1012300F1240106E05D1E60
:100690006FF07F46B54201D3012070BD0161C36197
:1006A000416024F470611143C160002070BD0000FE
:1006B0002DE9F0410C461646070047D0104600F0E1
:1006C0006FF82078611C61280AD0722802D0772840
:1006D0003CD102E00125002405E00225042402E0CB
:1006E000082448F2020511F8010B2B2806D06228D5
:1006F00009D011F8010C74280AD00BE045F003056D
:1007000044F00204EFE745F0040544F00104EAE791
:1007100044F010043846214600F0F6FD411C15D087
:100720000021316171604FF40071F560F161706119
:10073000200704D530460222002100F00DF9306D6B
:1007400040F0010030653046BDE8F0810020FBE755
:100750002DE9F0410D460646104C206DC10704D02E
:10076000410804D020F00104F7E722460EE05420AF
:1007700000F0C3F807000ED0206D47F001010843D8
:1007800054212065384600F041F83A462946304663
:10079000BDE8F0418CE70020D6E700001000002003
:1007A0002DE9F04704464FF0FF380026C568D4E92C
:1007B0000497A80718D0204600F08AF9384600F0C0
:1007C0008FFD002800DA4646280502D54846FFF787
:1007D00024FF4C21204600F019F8206D20F0010084
:1007E00020653046BDE8F0874046FBE710B504467B
:1007F000AFF300802046BDE81040FFF7E1BC10B524
:1008000000F0B0F9BDE8104000F0A6B94FF00002CA
:1008100000B5134694469646203922BFA0E80C50F6
:10082000A0E80C50B1F12001BFF4F7AF090728BFD1
:10083000A0E80C5048BF0CC05DF804EB890028BF4D
:1008400040F8042B08BF704748BF20F8022B11F076
:10085000804F18BF00F8012B704700000048704718
:100860000C010020004870471401002070477047B9
:100870007047704738B504460A4600206946AFF312
:100880000080002808BF38BD02460099204600F0CD
:100890008FF9012038BD012000F0DEB9F8B5AFF3C3
:1008A0000080054600200C460C2000BF0646A81913
:1008B000A0420DD9324669460020AFF30080070000
:1008C00008BF00F0C9F90098A04218BF0546C41936
:1008D000FFF7C8FF05600746F01D20F00700461926
:1008E000284600F05FF9B44208BFF8BDA21B3146AC
:1008F0003868BDE8F84000F05BB970B50646FFF710
:10090000B1FF056806F10B0020F00704B4429CBF5C
:10091000002070BD2B466A68BAB11068A04210D39F
:1009200004F1080188423CBF5068586007D3516801
:10093000101941601168091B016058601460101D96
:1009400070BD13465268002AE7D121462846FFF7BA
:1009500091FF0028DED170BD2DE9F0410446164616
:100960000D464769007B80072ED0384600F0C4FC56
:1009700050BB3EB3012E02D0022E25D104E020460A
:1009800000F030F905441DE0384600F0B3FCE168A2
:10099000002841F01001E16005DA204600F058F827
:1009A0000120BDE8F081C9030BD56268E16A91427C
:1009B00000D81146A26911442269891A814200DDDA
:1009C00008460544002D01DA0220EAE7E16A606882
:1009D000E268814206D29103E06203D522F400313D
:1009E00041F01002A6690027AE4213DCE16A8142A1
:1009F00001D90B4600E0034603EB060C2369ACEB80
:100A0000030CAC4506DD814201D98C4600E08446EA
:100A10009C4505D1A760276042F02000A5620DE04B
:100A2000AD1BE669AE1B8142A66000D90846C01A1C
:100A3000281A20605819606022F0200003490840FD
:100A4000E060002084F84870ABE70000BFCFD7FF1C
:100A5000C16821F4001141F08001C1600021816072
:100A6000016070472DE9F74F15460C464FF0FF3BEC
:100A70003848D768D2F814A0074209D05046A9696F
:100A800000F074FC002819DB3248C0430740EF60D7
:100A90004FF000496FF000484C4501D3464600E056
:100AA000264600993B465046324600F063FCA96951
:100AB00020F00042B21A1144A96128B12846FFF77C
:100AC000C7FF5846BDE8FE8FA41BE5D10020F9E71B
:100AD00070B504460569C06A6168884200D8084656
:100AE000E16821F42011E160C90312D5A84208D0C1
:100AF0002246411B2846FFF7B5FF10B14FF0FF30EB
:100B000070BD0020E562C4E90150E06820F4803047
:100B1000E060002070BD10B50446C06820F02000E1
:100B2000E060A16AA06988420DD02046FFF7D0FF9F
:100B3000E06820F4405040F01000E060A06AA0613E
:100B40002069E062606044F24001E0688843E06050
:100B500010BD000010000200002801D000F01CB8F9
:100B60007047000010B5014602A000F05CF80120BB
:100B700010BD000053494752545245443A20526533
:100B80006469726563743A2063616E2774206F70C4
:100B9000656E3A200000000001491820ABBEFEE758
:100BA0002600020000210160416070470C20704760
:100BB000034640688C46002818BF88423CBF034665
:100BC0004068F8D318681844884207D00CF1030035
:100BD00020F00700001D411A521A0146081D0A6044
:100BE000FFF71BBD10B50146C268900703D0900601
:100BF00007D5886A0AE000F037F801210160881EF5
:100C000010BD8B69486818440B69C01A91F84830C8
:100C10001BB191F84910401A10BD1103FCD50028F2
:100C2000FADD401E10BD70B505460C460A2000E0F6
:100C30006D1C00F0B1FB35B128780028F8D102E036
:100C4000641C00F0A9FB14B120780028F8D1BDE89D
:100C500070400A2000F0A0BB10B500F009F8BDE814
:100C60001040FFF779BF7047004870470C01002023
:100C700010B5012805D0002103A0FFF7D4FF012003
:100C800010BD09A1F8E7000053494752544D454DA6
:100C90003A204F7574206F662068656170206D651D
:100CA0006D6F7279000000003A2048656170206D18
:100CB000656D6F727920636F727275707465640010
:100CC00010B582B045F20044C4F20004204646212B
:100CD000102200F01DFCB42000F092FB0DF1060381
:100CE00020464621022200F0C1FBBDF8060040BAB2
:100CF00000F057FE43F23333C3F6F3734FF0333251
:100D000000F0C6FC00F01EFE02B010BDCA7802F072
:100D10000F0CD30644BF8B784CEA030C2DE9F04747
:100D200009880B0625D082465AF8144B00F1100EA4
:100D300000254FF001094FF00F08002706E000BF23
:100D40001E600137082F05F1040511D009FA07F6D6
:100D50000E42F6D008FA05F324EA03030CFA05F470
:100D60001C43282A5346EBD0482AEAD17346E7E7CA
:100D70000460B1F5807F38BFBDE8F087436800F1BB
:100D8000100E00F1140900254FF4807A4FF00F087F
:100D9000002705E034600137082F05F1040512D063
:100DA0000AFA07F404EA0106A642F4D108FA05F6A5
:100DB000B3430CFA05F63343282A4E46EAD0482AB4
:100DC000E9D17646E6E74360BDE8F087028800296E
:100DD00018BF012122F4806242EA8121018070471C
:100DE000828A008B60F3174202EA0100401AB0FACF
:100DF00080F04009704700000288002918BF0121D7
:100E000022F001021144018070470000028800298D
:100E100018BF012122F4807242EA0121018070474B
:100E20000288002918BF012122F4007242EA412100
:100E30000180704770B586B0044680880D4620F06A
:100E40003F0601A800F082F803994DF68360C4F2D2
:100E50001B30A1FB000346EA9340A080208820F0CD
:100E6000010020802A6848F2A060C0F2010082429E
:100E70004FEA934008D85200B1FBF2F14FF6FC72F2
:100E8000114208BF042124E0EB884BF6FF76B34201
:100E900004D102EB4202B1FBF2F105E019235A43FF
:100EA000B1FBF2F141F480410A466FF31F32B2FA0E
:100EB00082F25209114348F20002CFF6FF72114349
:100EC0004FF49672504348F63812C0F24102A0FB2C
:100ED000022001302084A18320884FF6F53140F0B4
:100EE0000100208020886A890840A98808431043AF
:100EF0002080A88929890843208106B070BD0000A0
:100F0000008AC0B27047000001F0FE01002A18BF3D
:100F1000012211440182704701827047002941F289
:100F20001C01C4F202010A680CBF22EA000010434F
:100F300008607047002941F21801C4F202010A68F2
:100F40000CBF22EA000010430860704710B541F260
:100F50000404C4F20204226802F00C02082A41F2DE
:100F60000022C0F27A0212D12368D4F800C0C3F381
:100F7000834E5FEACC330EF1020C02D523689B034B
:100F800003D540F60012C0F23D020CFB02F20260F3
:100F9000226841F67C23C2F30312C0F600039A5C78
:100FA0000168D14041602268C2F302229A5C21FAB2
:100FB00002F282602268C2F3C2229A5C41F6782370
:100FC000D140C1602268C0F60003C2F381329A5C4E
:100FD000B1FBF2F1016110BD40F20C00C2F2000061
:100FE00001680131016070474EF21000CEF200003E
:100FF0006FF07F41416007210160704782B041F28C
:101000000400C4F2020050F8041C002241F0010167
:1010100040F8041C0168CFF6FF021140016050F84F
:10102000041C4FF6FF72CFF6F662114040F8041C24
:1010300050F8041C21F4802140F8041C016821F4BC
:10104000FE0101604FF41F014160002101910091F8
:1010500050F8041C41F4803140F8041C50F8041C82
:1010600001F400310091019901310191009919B900
:101070000199B1F5A06FF1D150F8041C890354BF58
:101080000021012100910099012936D142F200018D
:10109000C4F202010A6842F010020A600A6822F0F3
:1010A00007020A600A6842F002020A6001680160F1
:1010B00001680160016841F480610160016821F408
:1010C0007C110160016841F4E811016050F8041CD2
:1010D00041F0807140F8041C50F8041C8901FBD5D4
:1010E000016821F003010160016841F00201016023
:1010F000016801F00C010829FAD14EF60850CEF231
:1011000000004FF00061016002B0704710B543F677
:101110000004C4F20104204640F2255100F04CF8CE
:1011200030B3204600F0D4F8C1B20A2940F2BD1114
:10113000C2F2000113D1087840F2BE12C2F20002DE
:1011400010800A7840F26C13C2F200030020985419
:1011500040F2BC12C2F200020123137007E00A78C9
:1011600040F26C13C2F20003985408780130087002
:10117000204640F22551BDE8104000F005B80000BF
:10118000C943018070470000090A012202FA01F1F7
:10119000C9430180704700008289002918BF0121DE
:1011A00022F4005242EA41318181704700880840B0
:1011B00018BF012070470000C1F34212022A06D076
:1011C000012A14BF00F1140200F10C0201E000F149
:1011D00010021288008801F01F03090ADA40C84093
:1011E000104000F001007047C1F3421301F01F0CE2
:1011F0001421022B08BF1021012B4FF0010308BF5F
:101200000C21002A03FA0CF243580CBF23EA020215
:101210001A4342507047000070B586B00446008AF9
:101220000D46C98820F4405008432082A0894EF61C
:10123000F3110840A9882A896B8908431043184391
:10124000A081A08AA98920F44070084301AEA08241
:101250003046FFF77BFE43F6000106F10800C4F2BA
:1012600001018C4208BF06F10C0000681922B4F994
:101270000C1050432A680123B1F1FF3FC8BF02237D
:1012800002FA03F1B0FBF1F048F21F51C5F2EB1185
:10129000A0FB01235A096FF0630302FB0300B4F9BA
:1012A0000C300326B3F1FF3FC8BF042600FA06F056
:1012B00000F13200A0FB01014FF00700C8BF0F2072
:1012C00000EA511040EA0210208106B070BD000013
:1012D00080886FF35F2070476FF35F2181807047D4
:1012E00048F20401411A002011F1030F38BF4FF0FA
:1012F000FF3070470020704748F20101411A00207A
:10130000032938BF01207047002804BF4FF0FF3089
:10131000704710B5044600783A281CBF4FF0FF30E4
:1013200010BD41F69421C0F600012046FEF7EAFF09
:10133000B0B141F69B21C0F600012046FEF7E2FF66
:1013400088B141F68C21C0F600012046FEF7DAFF95
:1013500001464FF0FF30002908BF48F2030010BDDE
:1013600048F2010010BD48F2020010BD4FF0FF30FE
:101370007047000048F2030188420AD048F2020197
:1013800088421CBF4FF0FF30704712B1013A00BED7
:10139000FCD100207047000000BE704710B586B039
:1013A0004FF400100121FFF7B9FD08200121FFF7DC
:1013B000C1FDC02045F20044C1F60340C4F2000460
:1013C000059004F5384005A9FFF7A0FC0020CBF6F6
:1013D000FF7002904FF0806003904FF48040ADF8B2
:1013E000100048F2A060C0F20100019001A920465F
:1013F000FFF720FD20460121FFF7FEFC06B010BDDF
:10140000002808BF7047B0B54EF2180E40F20C022B
:1014100041F6401CCEF2000EC2F20002C0F2010CF6
:101420001168DEF800304CEA016100BF1468DEF894
:10143000005003EB04640C1B2C44002CF6DC013838
:10144000EED1BDE8B0407047B0B543F60005C4F238
:1014500001050446C1B22846FFF73EFF2846802119
:10146000FFF7A4FE0028F9D02046B0BD2DE9F047D3
:10147000884640270121994692460546C0F2030757
:10148000FFF7C4FCA7F13F0428462146FFF7A8FC5C
:101490000028F9D05FFA88F128460122FFF734FDD1
:1014A000A7F13E0428462146FFF79AFC0028F9D010
:1014B000BAF1000F25D0AAF10104002608E000BF10
:1014C0002846FFF71DFD09F806000136564518D0DD
:1014D0002846A6420AD10021FFF778FC2846394663
:1014E000FFF77EFC0028F9D0EAE700BF0121FFF7F3
:1014F0006DFC00BF28463946FFF772FC0028F9D082
:10150000DEE728460121BDE8F047FFF789BC00006F
:10151000F0B581B00F46012115460446FFF776FC71
:101520000126C0F2030600BF20463146FFF758FCF3
:101530000028F9D08026F9B220460022C0F2070622
:10154000FFF7E2FCB71C00BF20463946FFF748FC16
:101550000028F9D020462946FFF7DEFC2046314618
:10156000FFF73EFC0028F9D0351D00BF2046294674
:10157000FFF736FC0028F9D02046012101B0BDE874
:10158000F040FFF74DBC0000FFF72EFD4FF4165062
:1015900000F020F8FFF702FF06A400BFFFF790FB62
:1015A00001462046FEF732FE4FF47A70FFF728FF1F
:1015B000F4E700BF43756F6E6720646F20616E684B
:1015C0002073616E67206C613A202564206C757809
:1015D0000A000000F0B585B005464FF480400121B7
:1015E000FFF7A8FC04200121FFF7A4FC43F6000448
:1015F00040F20020C4F20104C1F60300A4F54056F5
:1016000004AF049030463946FFF780FB4FF480600A
:10161000ADF8100048208DF8130030463946FFF72A
:1016200075FB009500254FF44020CDE90150694637
:101630002046ADF80C50FFF7EFFD20464021FFF7A4
:101640009FFD204640F225510122FFF7CDFD4EF2CD
:101650000410CEF20000202101604EF22540CEF2AF
:1016600000001021017020460121FFF795FD40F296
:10167000BC10C2F20000057040F2BD10C2F20000C2
:10168000057040F2BE10C2F20000058005B0F0BD4A
:101690002DE9C04130B4DFF8A4C23CEA111418BFF0
:1016A0003CEA131400F0ED801CEA111481EA0305F2
:1016B00044EAD57418BF1CEA131500F0C880A4EBE7
:1016C000050404F17F7404F500344FF0004545EA49
:1016D000C12145EAC32341EA505143EA52534FEA3C
:1016E000C0204FEAC222994208BF904200F09D807C
:1016F0004FEA13650FF24416765D4FEA134506FB79
:1017000005F7C7F1807706FB07F74FEAD737A7FB46
:1017100003687642A7FB06CEC8F5803838BFA8F12B
:10172000010807FB08E6A6FB028C4FF0000EE6FB63
:1017300003CEDCF1000CCEF1004E38BFAEF1010E4D
:10174000A6FB0C584FF00007E6FB0E87A1FB08C66E
:10175000A0FB07CE16EB0E064FF0000545F1000585
:10176000E1FB076515F1E04E7EBFA4F580345FEA2A
:1017700046066D4116F1800745F100054FEA17272F
:1017800047EA05674FEA15254FEA0666A6F1DE46E9
:10179000B6F1805F20D9384605EBC47124F0010C06
:1017A00001EB0C11BCF1FE6F02D8F0BCBDE800816A
:1017B00024425CBF01F5801E9EEAC47F02D4F0BCC7
:1017C000BDE80081244200F13980A1F1C041F0BCA4
:1017D000BDE8004100F04AB94FEAD02040EA41504C
:1017E0004FEAD1214FEAD22242EA43524FEAD323B1
:1017F000A7FB028607FB036605FB02661EEA0E0FC7
:1018000058BFA6EB0056B6EB00564FEA520E4EEA12
:10181000C37E18EB0E0E56EB530EBCD518EB020828
:101820005E417F1C55F10005B5E74FF480154FF080
:1018300000074FF000064FF00008ACE701F1C0418F
:1018400001F000414FF00000F0BCBDE800810CEA5F
:10185000131511EA0C1F00D00CE013EA0C1F00F066
:1018600026804FF0000081EA030101F00041F0BC46
:10187000BDE80081F0BCBDE8004181EA030100F051
:10188000F5B8F0BCBDE8004170B500F0A1F800BFAC
:10189000097EFC3E00F007B84FF0000081EA03012A
:1018A00001F00041704781EA030100F0DFB8F0BCAD
:1018B000BDE8004122494FF000007047FFFDFBF9F1
:1018C000F7F5F4F2F0EEEDEBE9E8E6E4E3E1E0DE73
:1018D000DDDBDAD8D7D5D4D3D1D0CFCDCCCBCAC8E5
:1018E000C7C6C5C4C2C1C0BFBEBDBCBBBAB9B8B70C
:1018F000B6B5B4B3B2B1B0AFAEADACABAAA9A8A8FF
:10190000A7A6A5A4A3A3A2A1A09F9F9E9D9C9C9BCC
:101910009A99999897979695959493939291919077
:101920008F8F8E8E8D8C8C8B8B8A89898888878708
:101930008685858484838382828181800000FF077D
:101940000000F87F4FEA41034FEA5353A3F5806349
:10195000D3F11E03C8BFD3F1210C0CDD4FF00042C0
:1019600042EAC12242EA505232FA03FC8CEAE17C9C
:10197000ACEBE1707047102BC4BF0020704703F53B
:10198000787CBCF1FF3F04D06FF0004282EA210076
:10199000704770B500F01CF8499224800020704711
:1019A000F2E710F0004248BF4042B0FA80F310FA6C
:1019B00003F10AD0C3F11D0303F5806302EB035268
:1019C0004FEA415002EBD12170474FF000007047C1
:1019D0000EF1020E2EF0030E5EF8046B364205D4B3
:1019E000012A43EB030515F5001F12D8012841EB2E
:1019F000010C1CF5001F0CD80ED14FEAD17C0CEB6A
:101A00004C0C0CF1020C15F5001F08BF4CEBD37CFD
:101A100004E04FF0080C01E04FEAD37C0CEB4C05DE
:101A200026FA05F606F00706B6F1040C06D20EEB10
:101A3000860CBDE870404CF0010C6047DFE80CF00C
:101A4000090B02024FF00041A1F500214FF0000008
:101A500070BD19461046012851EB010418BFD4F59A
:101A6000001484BF002001F0004170BD0808A0F5FB
:101A700000114FEA3101704702040608000000001F
:101A80000102030401020304060708093A535444FF
:101A9000455252003A535444494E003A5354444F2D
:101AA00055540000C81A0008000000201000000073
:101AB00050010008D81A000810000020B0070000EC
:101AC000700100080000000000000000000000009D
:081AD00000000000010000000D
:04000005080000ED02
:00000001FF
