:020000040800F2
:10000000E0060020B5010008BD010008BF0100089E
:10001000C1010008C3010008C5010008000000007C
:10002000000000000000000000000000C701000800
:10003000C901000800000000CB010008B10400085D
:10004000CF010008CF010008CF010008CF01000850
:10005000CF010008CF010008CF010008CF01000840
:10006000CF010008CF010008CF010008CF01000830
:10007000CF010008CF010008CF010008CF01000820
:10008000CF010008CF010008CF010008CF01000810
:10009000CF010008CF010008CF010008CF01000800
:1000A000CF010008CF010008CF010008CF010008F0
:1000B000CF010008CF010008CF010008CF010008E0
:1000C000CF010008CF010008CF010008CF010008D0
:1000D000CF01000809080008CF010008CF0100087F
:1000E000CF010008CF010008CF01000800F002F89E
:1000F00000F050F814A696E8000CB244B344DA4578
:1001000001D100F047F8BAE80F000FA696E83000DA
:10011000A5EB040504EB0607AAEB0704A7F101070A
:100120004FEA15154FEA3414A4F10104AC4201D38F
:1001300000F030F813F0010F18BFFB1A43F0010371
:1001400000F001F8DBE7184790070000B007000057
:10015000103A24BF78C878C1FAD8520724BF30C8F3
:1001600030C144BF04680C60704700007047000055
:100170000023002400250026103A28BF78C1FBD8B0
:10018000520728BF30C148BF0B6070471FB51FBD65
:1001900010B510BD00F031F81146FFF7F7FF00F081
:1001A00091FB00F04FF803B4FFF7F2FF03BC00F03F
:1001B00057F800000948804709480047FEE7FEE776
:1001C000FEE7FEE7FEE7FEE7FEE7FEE7FEE7FEE707
:1001D00004480549054A064B70470000D50400084D
:1001E000ED000008E0000020E0060020E002002012
:1001F000E0020020704770477047754600F02CF809
:10020000AE4605006946534620F00700854618B003
:1002100020B5FFF7DDFFBDE820404FF000064FF0AE
:1002200000074FF000084FF0000BAC46ACE8C009E7
:10023000ACE8C009ACE8C009ACE8C00921F007018E
:100240008D46704710B50446AFF300802046BDE8E8
:100250001040FFF7A8BF00000048704708000020CA
:1002600001491820ABBEFEE72600020070470000DF
:10027000CA7802F00F0CD30644BF8B784CEA030C0B
:10028000F0B509880D0674D086465EF8143BCC079D
:1002900000F110040BD023F00F0343EA0C03282ACB
:1002A000764602D0482A02D12646012737608E07BB
:1002B0000BD523F0F00343EA0C13482A264602D05C
:1002C000282A02D17646022737604E070BD523F441
:1002D000706343EA0C23482A264602D0282A02D11A
:1002E0007646042737600E070BD523F4704343EAA4
:1002F0000C33482A264602D0282A02D176460827FF
:100300003760CE060BD523F4702343EA0C43482A0A
:10031000264602D0282A02D17646102737608E065C
:100320000BD523F4700343EA0C53482A264602D027
:10033000282A02D17646202737604E060BD523F0B7
:10034000706343EA0C63482A264602D0282A02D169
:10035000764640273760002D0AD523F07043482A9F
:1003600043EA0C7302D0282A02D174468027276002
:100370000360B1F5807F38BFF0BD4368CC0500F164
:10038000100E00F114040CD523F00F0343EA0C0304
:10039000282A254602D0482A03D175464FF4807694
:1003A0002E608D050CD523F0F00343EA0C13482A88
:1003B000754602D0282A03D125464FF400762E60D8
:1003C0004D050CD523F4706343EA0C23482A754687
:1003D00002D0282A03D125464FF480662E600D05F1
:1003E0000CD523F4704343EA0C33482A754602D0F7
:1003F000282A03D125464FF400662E60CD040CD583
:1004000023F4702343EA0C43482A754602D0282A75
:1004100003D125464FF480562E608D040CD523F46D
:10042000700343EA0C53482A754602D0282A03D1A8
:1004300025464FF400562E604D040CD523F0706312
:1004400043EA0C63482A754602D0282A03D1254680
:100450004FF480462E6009B2B1F1FF3F01DD4360E9
:10046000F0BD23F07041482A41EA0C7302D0282ADB
:10047000F5D1A6464FF40041CEF800104360F0BD20
:10048000002941F21C01C4F202010A680CBF22EAF1
:100490000000104308607047002941F21801C4F2BF
:1004A00002010A680CBF22EA00001043086070478E
:1004B00040F20000C2F200000168013101607047A3
:1004C0004EF21000CEF200006FF07F414160072134
:1004D0000160704782B041F20400C4F2020050F89B
:1004E000041C002241F0010140F8041C0168CFF611
:1004F000FF021140016050F8041C4FF6FF72CFF666
:10050000F662114040F8041C50F8041C21F48021CC
:1005100040F8041C016821F4FE0101604FF41F0142
:10052000416000210191009150F8041C41F4803198
:1005300040F8041C50F8041C01F4003100910199AA
:1005400001310191009919B90199B1F5A06FF1D16B
:1005500050F8041C890354BF002101210091009927
:10056000012953D142F20001C4F202010A6842F0AB
:1005700010020A600A6822F007020A600A6842F064
:1005800002020A600168016001680160016841F4CB
:1005900080610160016821F47C110160016841F40F
:1005A000E811016050F8041C41F0807140F8041C0F
:1005B00050F8041C89010CD450F8041C89015CBF5C
:1005C00050F8041C5FEA811103D450F8041C89011F
:1005D000EED5016821F003010160016841F00201DC
:1005E000016000BF016801F00C0108290ED001680C
:1005F00001F00C01082909D0016801F00C0108295B
:1006000004D0016801F00C010829EBD14EF6085026
:10061000CEF200004FF00061016002B070470000B0
:1006200070B50C46054608200121FFF735FF042070
:100630000121FFF725FF44F24020C0F20F00B0FB7C
:10064000F5F545F6294105FB04F0C0F28F21A0FB2A
:10065000010640F2680140F2002040F60004C2F2B8
:100660000001C1F60300C4F20004086004F5823002
:10067000FFF7FEFD40F2CE01C2F200014720086004
:10068000681E888000252046CD800D7200F066F837
:1006900040F2BE016020C2F20001C0F20100086019
:1006A0002046CE800D8100F023F82046082100F07E
:1006B0004DF82046012100F007F820460121BDE851
:1006C000704000F00BB800000288002918BF01211B
:1006D00022F0800242EAC11101807047028800299D
:1006E00018BF012122F0010211440180704700006F
:1006F00070B5028C43F2004622F480520284038CCF
:100700008288B0F81CE0B1F800C00C894D88C4F2B2
:100710000106B04205D042F60046C4F20106B042DE
:1007200004D18E8922F4804242EA86122EF4E646F3
:1007300046EA0C268280868323F400532C43C98822
:1007400043EA0432A0F84010028470BD828B22F488
:10075000006242EA012181837047000040F6FF33C6
:10076000B0F800C0C4F2000398420FDCB0F1804F33
:100770001ED040F20043C4F20003984218D040F665
:100780000003C4F20003984212D016E040F6004382
:10079000C4F2000398420BD043F20043C4F20103B9
:1007A000984205D042F60043C4F20103984204D1B6
:1007B0004B882CF0700243EA020C41F2004240F4F4
:1007C0008063C4F20002934204D0CA882CF44073C0
:1007D00042EA030CA0F800C08A8883058285A0F154
:1007E0008042A2F5963243EA92220B88072A0385BB
:1007F00007D8012303FA02F212F0E50F1CBF097AB1
:10080000018601218182704710B543F60004C4F2CD
:100810000104204640F2255100F038F830B320465C
:1008200000F04CF8C1B20A2940F2BD01C2F2000149
:1008300013D1087840F2D802C2F2000210800A7880
:1008400040F26C03C2F200030020985440F2BC0254
:10085000C2F200020123137007E00A7840F26C0331
:10086000C2F200039854087801300870204640F224
:100870002551BDE8104000F001B80000090A01222E
:1008800002FA01F1C943018070470000C1F342122E
:10089000022A06D0012A14BF00F1140200F10C0252
:1008A00001E000F110021288008801F01F03090A1C
:1008B000DA40C840104000F00100704780886FF3B4
:1008C0005F2070474FF47A701E21FFF7A9FEFFF7F3
:1008D000F7FD00BFFEE70000F80800080000002058
:1008E000080000005001000800090008080000206E
:1008F000D8060000700100080100000000000000A0
:04000005080000ED02
:00000001FF
