:020000040800F2
:1000000070060020B5010008BD010008BF0100080E
:10001000C1010008C3010008C5010008000000007C
:10002000000000000000000000000000C701000800
:10003000C901000800000000CB0100080506000807
:10004000CF010008CF010008CF010008CF01000850
:10005000CF010008CF010008CF010008CF01000840
:10006000CF010008CF010008CF010008CF01000830
:10007000CF010008CF010008CF010008CF01000820
:10008000CF010008CF010008CF010008CF01000810
:10009000CF010008CF010008CF010008CF01000800
:1000A000CF010008CF010008CF010008CF010008F0
:1000B000CF010008CF010008CF010008CF010008E0
:1000C000CF010008CF010008CF010008CF010008D0
:1000D000CF010008CF010008CF010008CF010008C0
:1000E000CF010008CF010008CF01000800F002F89E
:1000F00000F050F814A696E8000CB244B344DA4578
:1001000001D100F047F8BAE80F000FA696E83000DA
:10011000A5EB040504EB0607AAEB0704A7F101070A
:100120004FEA15154FEA3414A4F10104AC4201D38F
:1001300000F030F813F0010F18BFFB1A43F0010371
:1001400000F001F8DBE71847B00C0000D00C00000D
:10015000103A24BF78C878C1FAD8520724BF30C8F3
:1001600030C144BF04680C60704700007047000055
:100170000023002400250026103A28BF78C1FBD8B0
:10018000520728BF30C148BF0B6070471FB51FBD65
:1001900010B510BD00F031F81146FFF7F7FF00F081
:1001A000F5FB00F04FF803B4FFF7F2FF03BC00F0DB
:1001B00057F800000948804709480047FEE7FEE776
:1001C000FEE7FEE7FEE7FEE7FEE7FEE7FEE7FEE707
:1001D00004480549054A064B7047000029060008F7
:1001E000ED00000870000020700600207002002062
:1001F00070020020704770477047754600F02CF879
:10020000AE4605006946534620F00700854618B003
:1002100020B5FFF7DDFFBDE820404FF000064FF0AE
:1002200000074FF000084FF0000BAC46ACE8C009E7
:10023000ACE8C009ACE8C009ACE8C00921F007018E
:100240008D46704710B50446AFF300802046BDE8E8
:100250001040FFF7A8BF00000048704708000020CA
:1002600001491820ABBEFEE72600020070470000DF
:1002700010B582B045F20044C4F200042046462185
:10028000102200F047FBB42000F0CEFA0DF1060377
:1002900020464621022200F0EBFABDF8060040BAE3
:1002A00000F021FD43F23333C3F6F3734FF03332E2
:1002B00000F090FB00F0E8FC02B010BD014640F2F7
:1002C0006800C2F20000016070470000CA7802F0C6
:1002D0000F0CD30644BF8B784CEA030C2DE9F04792
:1002E00009880B0625D082465AF8144B00F1100EEF
:1002F00000254FF001094FF00F08002706E000BF6E
:100300001E600137082F05F1040511D009FA07F620
:100310000E42F6D008FA05F324EA03030CFA05F4BA
:100320001C43282A5346EBD0482AEAD17346E7E714
:100330000460B1F5807F38BFBDE8F087436800F105
:10034000100E00F1140900254FF4807A4FF00F08C9
:10035000002705E034600137082F05F1040512D0AD
:100360000AFA07F404EA0106A642F4D108FA05F6EF
:10037000B3430CFA05F63343282A4E46EAD0482AFE
:10038000E9D17646E6E74360BDE8F08702880029B8
:1003900018BF012122F4806242EA81210180704766
:1003A000828A008B60F3174202EA0100401AB0FA19
:1003B00080F04009704700000288002918BF012121
:1003C00022F00102114401807047000002880029D8
:1003D00018BF012122F4807242EA01210180704796
:1003E0000288002918BF012122F4007242EA41214B
:1003F0000180704770B586B0044680880D4620F0B5
:100400003F0601A800F0B8F803994DF68360C4F2E6
:100410001B30A1FB000346EA9340A080208820F017
:10042000010020802A6848F2A060C0F201008242E8
:100430004FEA934008D85200B1FBF2F14FF6FC723C
:10044000114208BF042124E0EB884BF6FF76B3424B
:1004500004D102EB4202B1FBF2F105E019235A4349
:10046000B1FBF2F141F480410A466FF31F32B2FA58
:1004700082F25209114348F20002CFF6FF72114393
:100480004FF49672504348F63812C0F24102A0FB76
:10049000022001302084A18320884FF6F53140F0FE
:1004A0000100208020886A890840A98808431043F9
:1004B0002080A88929890843208106B070BD0000EA
:1004C000008AC0B27047000001F0FE01002A18BF88
:1004D00001221144018270470182704770B51646AF
:1004E00045F2AA52C0F20042B07101203546326096
:1004F0004FF4206205F8070F0846B280FFF7DEFED2
:10050000032100BF425C01394B1C05F8012FF9D1D2
:100510004FF6FF7100204AF2010200BF335C5940E0
:10052000082300BF0D4682EA5101EC07A3F1010345
:1005300008BF69081D04F5D101300C28EED1080A66
:1005400030730E20717370BD002941F21C01C4F29A
:1005500002010A680CBF22EA0000104308607047DD
:10056000002941F21801C4F202010A680CBF22EA14
:10057000000010430860704710B541F20404C4F253
:100580000204226802F00C02082A41F20022C0F2A2
:100590007A0212D12368D4F800C0C3F3834E5FEA15
:1005A000CC330EF1020C02D523689B0303D540F631
:1005B0000012C0F23D020CFB02F20260226840F61B
:1005C000E653C2F30312C0F600039A5C0168D140FF
:1005D00041602268C2F302229A5C21FA02F2826030
:1005E0002268C2F3C2229A5C40F6E253D140C16055
:1005F0002268C0F60003C2F381329A5CB1FBF2F1CB
:10060000016110BD40F20000C2F20000016801313A
:10061000016070474EF21000CEF200006FF07F4193
:10062000416007210160704782B041F20400C4F2CA
:10063000020050F8041C002241F0010140F8041CA3
:100640000168CFF6FF021140016050F8041C4FF61C
:10065000FF72CFF6F662114040F8041C50F8041CFB
:1006600021F4802140F8041C016821F4FE0101609E
:100670004FF41F01416000210191009150F8041CCA
:1006800041F4803140F8041C50F8041C01F400319E
:100690000091019901310191009919B90199B1F5C0
:1006A000A06FF1D150F8041C890354BF002101212F
:1006B00000910099012936D142F20001C4F20201F1
:1006C0000A6842F010020A600A6822F007020A6013
:1006D0000A6842F002020A60016801600168016074
:1006E000016841F480610160016821F47C110160BE
:1006F000016841F4E811016050F8041C41F0807178
:1007000040F8041C50F8041C8901FBD5016821F055
:1007100003010160016841F002010160016801F01C
:100720000C010829FAD14EF60850CEF200004FF025
:100730000061016002B0704741F21801C4F2020189
:100740000A6844F204031A430A6040F60401C4F242
:1007500001010A6822F0F0020A600A6842F0B00261
:100760000A600A6822F470620A600A6842F48062D1
:100770000A604AF20021C0F24A41B1FBF0F043F6B0
:100780000C01C4F2010121F8040C088842F22C0289
:100790001043088070470000002908BF704743F6E7
:1007A00000034FF0000CC4F2010300BF1A881206C8
:1007B000FCD510F80C200CF1010C8C459A80F5D179
:1007C0007047000010B586B04FF400100121FFF70C
:1007D000BBFE08200121FFF7C3FEC02045F2004404
:1007E000C1F60340C4F20004059004F5384005A9A1
:1007F000FFF76CFD0020CBF6FF7002904FF0806099
:1008000003904FF48040ADF8100048F2A060C0F2B1
:100810000100019001A92046FFF7ECFD20460121CF
:10082000FFF7CAFD06B010BD002808BF7047B0B57D
:100830004EF2180E40F2000241F6401CCEF2000EBD
:10084000C2F20002C0F2010C1168DEF800304CEA7E
:10085000016100BF1468DEF8005003EB04640C1B58
:100860002C44002CF6DC0138EED1BDE8B0407047D6
:100870002DE9F047884640270121994692460546D2
:10088000C0F20307FFF7A2FDA7F13F042846214667
:10089000FFF786FD0028F9D05FFA88F1284601228B
:1008A000FFF712FEA7F13E0428462146FFF778FD28
:1008B0000028F9D0BAF1000F25D0AAF101040026D2
:1008C00008E000BF2846FFF7FBFD09F806000136E7
:1008D000564518D02846A6420AD10021FFF756FDFA
:1008E00028463946FFF75CFD0028F9D0EAE700BF4B
:1008F0000121FFF74BFD00BF28463946FFF750FDA9
:100900000028F9D0DEE728460121BDE8F047FFF7CF
:1009100067BD0000F0B581B00F46012115460446C1
:10092000FFF754FD0126C0F2030600BF2046314602
:10093000FFF736FD0028F9D08026F9B220460022C4
:10094000C0F20706FFF7C0FDB71C00BF20463946BE
:10095000FFF726FD0028F9D020462946FFF7BCFD09
:1009600020463146FFF71CFD0028F9D0351D00BF99
:1009700020462946FFF714FD0028F9D02046012122
:1009800001B0BDE8F040FFF72BBD000086B040F697
:100990000C05C4F20105FFF73DFE4FF41650FFF7BA
:1009A000CBFEFFF70FFF01ACFFF762FC00F006FA89
:1009B000014601202246FFF791FD01462046FFF740
:1009C000EBFE286880F4004028604FF47A70FFF74F
:1009D0002BFFE9E72DE9C04130B4DFF8A4C23CEABF
:1009E000111418BF3CEA131400F0ED801CEA111436
:1009F00081EA030544EAD57418BF1CEA131500F018
:100A0000C880A4EB050404F17F7404F500344FF0B2
:100A1000004545EAC12145EAC32341EA505143EA72
:100A200052534FEAC0204FEAC222994208BF904277
:100A300000F09D804FEA13650FF24416765D4FEA91
:100A4000134506FB05F7C7F1807706FB07F74FEA6A
:100A5000D737A7FB03687642A7FB06CEC8F58038D8
:100A600038BFA8F1010807FB08E6A6FB028C4FF08F
:100A7000000EE6FB03CEDCF1000CCEF1004E38BFD9
:100A8000AEF1010EA6FB0C584FF00007E6FB0E87F7
:100A9000A1FB08C6A0FB07CE16EB0E064FF0000523
:100AA00045F10005E1FB076515F1E04E7EBFA4F5B9
:100AB00080345FEA46066D4116F1800745F1000576
:100AC0004FEA172747EA05674FEA15254FEA0666FA
:100AD000A6F1DE46B6F1805F20D9384605EBC47139
:100AE00024F0010C01EB0C11BCF1FE6F02D8F0BC3C
:100AF000BDE8008124425CBF01F5801E9EEAC47FF0
:100B000002D4F0BCBDE80081244200F13980A1F19B
:100B1000C041F0BCBDE8004100F04AB94FEAD02026
:100B200040EA41504FEAD1214FEAD22242EA4352F1
:100B30004FEAD323A7FB028607FB036605FB026689
:100B40001EEA0E0F58BFA6EB0056B6EB00564FEA52
:100B5000520E4EEAC37E18EB0E0E56EB530EBCD56A
:100B600018EB02085E417F1C55F10005B5E74FF414
:100B700080154FF000074FF000064FF00008ACE77B
:100B800001F1C04101F000414FF00000F0BCBDE8B0
:100B900000810CEA131511EA0C1F00D00CE013EAD7
:100BA0000C1F00F026804FF0000081EA030101F0E5
:100BB0000041F0BCBDE80081F0BCBDE8004181EA25
:100BC000030100F0F5B8F0BCBDE8004170B500F0DD
:100BD000A1F800BF097EFC3E00F007B84FF000000E
:100BE00081EA030101F00041704781EA030100F04E
:100BF000DFB8F0BCBDE8004122494FF0000070476B
:100C0000FFFDFBF9F7F5F4F2F0EEEDEBE9E8E6E4D1
:100C1000E3E1E0DEDDDBDAD8D7D5D4D3D1D0CFCD58
:100C2000CCCBCAC8C7C6C5C4C2C1C0BFBEBDBCBB91
:100C3000BAB9B8B7B6B5B4B3B2B1B0AFAEADACAB8C
:100C4000AAA9A8A8A7A6A5A4A3A3A2A1A09F9F9E66
:100C50009D9C9C9B9A999998979796959594939318
:100C6000929191908F8F8E8E8D8C8C8B8B8A8989AF
:100C70008888878786858584848383828281818032
:100C80000000FF070000F87F4FEA41034FEA53538B
:100C9000A3F58063D3F11E03C8BFD3F1210C0CDD93
:100CA0004FF0004242EAC12242EA505232FA03FCBB
:100CB0008CEAE17CACEBE1707047102BC4BF0020E4
:100CC000704703F5787CBCF1FF3F04D06FF0004221
:100CD00082EA2100704770B500F01CF84992248028
:100CE00000207047F2E710F0004248BF4042B0FADF
:100CF00080F310FA03F10AD0C3F11D0303F58063FA
:100D000002EB03524FEA415002EBD12170474FF002
:100D1000000070470EF1020E2EF0030E5EF8046B19
:100D2000364205D4012A43EB030515F5001F12D8FE
:100D3000012841EB010C1CF5001F0CD80ED14FEA25
:100D4000D17C0CEB4C0C0CF1020C15F5001F08BF0C
:100D50004CEBD37C04E04FF0080C01E04FEAD37C6D
:100D60000CEB4C0526FA05F606F00706B6F1040C66
:100D700006D20EEB860CBDE870404CF0010C6047CB
:100D8000DFE80CF0090B02024FF00041A1F5002151
:100D90004FF0000070BD19461046012851EB0104C8
:100DA00018BFD4F5001484BF002001F0004170BDCD
:100DB0000808A0F500114FEA31017047B0FA80F33E
:100DC00010FA03F2C3F19D030AD0D90501EB1220FA
:100DD000530638BF704700F1010008BF20F0010042
:100DE000704702040608000000000102030401022B
:100DF0000304060708090000180E00080000002080
:100E00000800000050010008200E00080800002023
:100E100068060000700100080100000000000000EA
:04000005080000ED02
:00000001FF
