:020000040800F2
:10000000D8070020E5010008ED010008EF01000815
:10001000F1010008F3010008F501000800000000EC
:10002000000000000000000000000000F7010008D0
:10003000F901000800000000FB010008A5160008F7
:10004000FF010008FF010008FF010008FF01000890
:10005000FF010008FF010008FF010008FF01000880
:10006000FF010008FF010008FF010008FF01000870
:10007000FF010008FF010008FF010008FF01000860
:10008000FF010008FF010008FF010008FF01000850
:10009000FF010008FF010008FF010008FF01000840
:1000A000FF010008FF010008FF010008FF01000830
:1000B000FF010008FF010008FF010008FF01000820
:1000C000FF010008FF010008FF010008FF01000810
:1000D000FF010008D9170008FF010008FF01000810
:1000E000FF010008FF010008FF01000800F002F80E
:1000F00000F068F814A696E8000CB244B344DA4560
:1001000001D100F05FF8BAE80F000FA696E83000C2
:10011000A5EB040504EB0607AAEB0704A7F101070A
:100120004FEA15154FEA3414A4F10104AC4201D38F
:1001300000F048F813F0010F18BFFB1A43F0010359
:1001400000F001F8DBE71847FC2400001C25000044
:10015000103A24BF78C878C1FAD8520724BF30C8F3
:1001600030C144BF04680C60704700007047000055
:100170000023002400250026103A28BF78C1FBD8B0
:10018000520728BF30C148BF0B607047662902F094
:10019000EE81642900F05280002070471FB59DE871
:1001A000030000F0BDFE00F0A1FB040000200021D0
:1001B00002F03CF9E06000F0B1FC1FBD10B500F0AA
:1001C00016FD10BD00F04AFD1146FFF7E7FF01F0F4
:1001D0009DFC00F051FE03B4FFF7F0FF03BC01F0FB
:1001E0001DF800000948804709480047FEE7FEE780
:1001F000FEE7FEE7FEE7FEE7FEE7FEE7FEE7FEE7D7
:1002000004480549054A064B70470000C916000816
:10021000ED000008D8010020D8070020D8030020F6
:10022000D80300200FB4044910B503AA029800F0C7
:100230004BFB10BC5DF814FB640000202DE9F0417D
:100240000646002410687529314616A510D0AFF374
:100250000080002802DA404213A507E031688A07CF
:1002600001D512A502E0490704D511A5012401E03A
:10027000AFF3008000210A2206F1240709E0B0FB59
:10028000F2FCB0FBF2F302FB1C003030785418464D
:10029000491C0028F3D123462A463046BDE8F041E8
:1002A00000F0ABB8000000002D0000002B000000A3
:1002B000200000002DE9F0410F4604460020DFF841
:1002C0008480F84420622046E168884790B325285E
:1002D00006D0D4E901219047206A401C2062F2E751
:1002E00000252046E16888472028064608DB312E95
:1002F00006D208EB060010F8200C08B10543F0E721
:10030000A80701D525F00405A6B1A6F141001928DA
:1003100002D8203645F400653A463146204625602D
:10032000FFF734FF48B1012805D0FF1D27F007076C
:100330000837C8E703E03F1DC5E73046C9E7206A34
:10034000BDE8F081AC22000010B5044603E001F0E6
:10035000CBFB401C09D014F8010B05490028F6D14D
:10036000BDE810400A2001F0BFBB4FF0FF3010BDC8
:10037000640000204FF0013C50F8042B51F8043B7E
:100380009A4221D1A2EB0C03934313EACC1317D169
:1003900050F8042B51F8043B9A4215D1A2EB0C0300
:1003A000934313EACC130BD150F8042B51F8043BC0
:1003B0009A4209D1A2EB0C03934313EACC13DBD08E
:1003C0004FF00000704700BFD01A01BAB1FA81F1B6
:1003D00001F0180122FA01F0CB40DBB2C0B2C01A22
:1003E000C1F120012CFA01F3D11A914311EAC31192
:1003F000E6D170477047704770472DE9F0470D46CA
:1004000099469246044600F124080168880604D5FE
:10041000E06921F01001216000E00120A84201DD27
:10042000471B00E00027A1697A1902EB0900081AAE
:10043000A0612078C00602D42046AFF300800026D9
:1004400008E0D4E901211AF806009047206A401C10
:10045000761C20624E45F4DB2078C0060AD5204683
:10046000AFF3008006E0D4E9012130209047206AF4
:10047000401C2062381EA7F10107F4DC07E0D4E934
:10048000012118F805009047206A401C2062281EB0
:10049000A5F10105F3DC2046AFF3008020780006CB
:1004A00002D50220BDE8F0870120FBE72DE9FF4FD0
:1004B0000C461E464FF0FF378BB0D2E90001DDF845
:1004C00060800A908A46C1F30A5505B93D4600216D
:1004D00008464FF00000BAF1000F00F4400005DAC2
:1004E00000EB80004FF4400101EA50004FEA9059C0
:1004F000B9F1010F00DDB9460A9850EA4A000ED062
:1005000044F61050A5F2FF3545432F14B8F1000F03
:100510001ED07542291E1EDDC9F100021CE0B8F193
:10052000010F4FF0000001D0302103E0F24305E05D
:100530002154401CB042FBDB3046002200212154F4
:100540000B99C1F80880C1E900200FB0BDE8F08F19
:10055000BD1B6D1CDEE74A4600DA694206A800F0C2
:1005600067FA06AB93E8070003AB83E80700504641
:100570000A9901F07FFB8DE80700A0F500501F38B5
:1005800000900398002D0ADD42F21F014A460844FC
:10059000002303A90390684601F0E8FD09E0A0F5F7
:1005A00000504A461F38002303A90390684601F013
:1005B000F2FD8DE807000004000C03D04FF0FF307F
:1005C000410800E01046B8F1000F03D0002200926D
:1005D00015461EE0751E05D400F08CF930326255C8
:1005E0006D1EF9D5B3460122084302D000227F1CBC
:1005F00004E02078302801D100227F1E002A0997CC
:1006000084D01DE0112D07DA00F074F93032625504
:100610006D1C50EA0102F5D1084302D00098C8B120
:100620000EE00021681E05E0235C625C63542254E6
:10063000401E491C8142F7DBAB46A81B401E0990B7
:10064000002004F80B000B98099AC0F80880C0E954
:10065000002B7AE711264FF0000857E72DE9F04FFD
:1006600088460446D21D22F0070191B0D1E900016D
:10067000CDE90A0101F0C6FE02460B98C00F01D079
:100680002D2007E02068810701D52B2002E02021E2
:1006900001EAC000032A099001D0072A05DB0346BE
:1006A0004146204600F084F90BE12078800601D510
:1006B000E06900E00620B8F1650F814606D0B8F188
:1006C000660F18D0B8F1670F70D131E00020B9F192
:1006D000110F009001DB112301E009F101030AAAC7
:1006E00001A90CA8FFF7E2FEDDE90C70002609F174
:1006F0000105834647E001204B4600904FF000473C
:100700000AAA01A90CA8FFF7D1FEDDE90DB00C99EA
:100710005D46002610B909F101000D18B9EB05007E
:1007200003D4C0F1FF3609F10105A5EB09002BE068
:10073000B9F1010F01DA4FF001090020B9F1110FF1
:100740000090484601DD112300E003460AAA01A9F2
:100750000CA8FFF7ABFEDDE90C704D460026834682
:10076000207800070AD4AB4500DA5D4601A8012DC8
:1007700004DD411911F8011C302907D04F4502DA78
:1007800017F1040F04DA012082460FE06D1EEEE738
:10079000002F02DCED1B3E4403E0781CA84200DD84
:1007A0007D1CB81B00F1010A4FF0004720780007BC
:1007B00003D4AA4501DB4FF0FF3A0021B7F1004F07
:1007C0000DF143088DF8431024D002202B23002F75
:1007D00001DA7F422D230A21021EA0F1010000DC74
:1007E0005FB197FBF1FC97FBF1F201FB1C7C174614
:1007F0000CF1300C08F801CDEEE7A8F10100037010
:100800002188090501D5452100E06521A0F10108F5
:1008100000F8011C09980FA9A1EB0807FF1D00B102
:100820000120411901EBEA70A1693844081A401E01
:10083000A0612078C00602D42046AFF3008009985A
:1008400028B1D4E901219047206A401C2062207819
:10085000C00622D52046AFF300801EE0002E04DB48
:10086000B34502DD01A8805D00E03020D4E901211C
:100870009047206A401C2062761CAAF101005FEAC2
:10088000000A0AD100F032F8C0680168405CD4E97F
:1008900001219047206A401C2062281EA5F1010515
:1008A000DCDC07E0D4E9012118F8010B9047206A4D
:1008B000401C2062381EA7F10107F3DC2046AFF38D
:1008C0000080032011B041E6074B70B50D467B4414
:1008D00000F05BF80446284600F01CF910B14FF018
:1008E000FF3070BD204670BD1712000000487047F1
:1008F0002C01002030B5B0F10A0271F100034FEA7B
:10090000900E4EEA817EB0EB0E0061EB91014FEA52
:10091000101E4EEA017E10EB0E0041EB11114FEA62
:10092000102E4EEA016E10EB0E0041EB11214FEA42
:10093000104E4EEA014E10EB0E0041EB11414018F3
:1009400041F100014FEAD00040EA41704FEAD10185
:100950004FEA810444EA907410EB800544EB0104F3
:100960006D1944EB0404521BA3414FF0000348BF30
:100970000A3200D530BD401C41F1000130BD0000FD
:1009800001694A1C02610878704700B58FB0CDE953
:1009900001310021059105497944CDE90310114643
:1009A0006846FFF787FC0FB000BD0000E5FFFFFFC2
:1009B0002DE9F0411F46044603260168072A01F489
:1009C000006004DB08B116A505E016A503E008B138
:1009D00015A500E015A521F010002060A069C01E3B
:1009E000A0610FB1401EA0612046AFF300804FB15F
:1009F000D4E9012138469047206A401C2062C01C7F
:100A0000206206E0206AFAE7D4E9012115F8010B1B
:100A10009047761EF8D22046AFF30080BDE8F08103
:100A20004E414E006E616E00494E4600696E660092
:100A30002DE9F047814616468AB0354878440DC8FE
:100A40008DE80D0032487844801C03AC0DC884E862
:100A50000D0041F69B300844372190FBF1F290FBEA
:100A6000F1F5A5F1800501FB12041B3C02D564429F
:100A7000012000E00020DFF898A080460027FA441B
:100A8000AAF1BE0A0EE0E0070AD03246684607EB3C
:100A9000470101230AEB810101F07DFB8DE807008E
:100AA00064107F1C002CEED1194F7F44AE3F19E03B
:100AB000E80715D007EB04100DF1180A90E80E00B6
:100AC0008AE80E00C068F04201D1981908903246B9
:100AD000012306A903A801F05EFB03AB83E807002E
:100AE0006D10641C002DE3D14FF0010332466946BE
:100AF000B8F1000F03A802D001F038FB01E001F0CB
:100B00004AFBC9E90001C9F808200AB0BDE8F0872E
:100B1000C01B0000007B00F08000704710B5424809
:100B2000542100F0B9F94148542100F0B5F940488A
:100B3000542100F0B1F93F493B483C4A3F4B086023
:100B40003D490A603A491960531C0365481C106509
:100B5000012008653B48344A39A1784400F0EEF89A
:100B600020B9384878440A3800F08FF937482F4ABE
:100B700035A1784400F0E2F820B9344878440A38C6
:100B800000F083F932482A4A2FA1784400F0D6F8C1
:100B900020B92F4878440A3800F077F940232248DA
:100BA000DC000021224600F0A5F820B12548784459
:100BB000543800F06AF91D4822464023002100F015
:100BC00099F820B121487844543800F05EF918486B
:100BD00022461023002100F08DF8002806D01C4882
:100BE0007844BDE81040563800F04FB910BD1048A9
:100BF00070B5006D20F001040B4800F017F90B48A8
:100C000000F014F90A4800F011F909E0206D20F015
:100C10000105204600F00AF9204600F044F82C4671
:100C2000002CF3D170BD00001000002064000020F3
:100C3000B800002000000020040000200800002070
:100C400072000000D61A000077000000C51A0000EC
:100C50009E1A0000004870470C0100207546FFF7FF
:100C6000F9FFAE4605006946534620F00700854669
:100C700018B020B5FFF7C4FABDE820404FF00006D9
:100C80004FF000074FF000084FF0000BAC46ACE807
:100C9000C009ACE8C009ACE8C009ACE8C00921F063
:100CA00007018D46704770B50446051F00F01CF91A
:100CB0000068002C14BF446870BD002C18BFAC4203
:100CC0003CBF20466468F8D301680A18AA4218BFDE
:100CD000456003D12A68054611440160286841191E
:100CE000A1421CBF6C6070BD6168696021680844E6
:100CF000286070BD70B5C468A50713D0650211D413
:100D0000B2F5807F09D0B2F5007F06D0B2F5806FD2
:100D100008D1012300F1240106E05D1E6FF07F463B
:100D2000B54201D3012070BD0161C361416024F46B
:100D300070611143C160002070BD00002DE9F041D9
:100D40000C461646070047D0104600F06FF8207892
:100D5000611C61280AD0722802D077283CD102E0B9
:100D60000125002405E00225042402E0082448F2BD
:100D7000020511F8010B2B2806D0622809D011F8C2
:100D8000010C74280AD00BE045F0030544F002047E
:100D9000EFE745F0040544F00104EAE744F01004ED
:100DA0003846214600F016FE411C15D00021316165
:100DB00071604FF40071F560F1617061200704D536
:100DC00030460222002100F009F9306D40F00100A8
:100DD00030653046BDE8F0810020FBE72DE9F041A9
:100DE0000D460646104C206DC10704D0410804D0C2
:100DF00020F00104F7E722460EE0542000F0BFF88F
:100E000007000ED0206D47F00101084354212065F2
:100E1000384600F041F83A4629463046BDE8F041F0
:100E20008CE70020D6E70000100000202DE9F047F5
:100E300004464FF0FF380026C568D4E90497A80798
:100E400018D0204600F086F9384600F0AFFD0028A3
:100E500000DA4646280502D54846FFF724FF4C2114
:100E6000204600F019F8206D20F001002065304682
:100E7000BDE8F0874046FBE710B50446AFF30080BD
:100E80002046BDE81040FFF7A6B910B500F0ACF958
:100E9000BDE8104000F0A2B94FF0000200B51346C3
:100EA00094469646203922BFA0E80C50A0E80C508A
:100EB000B1F12001BFF4F7AF090728BFA0E80C503B
:100EC00048BF0CC05DF804EB890028BF40F8042B34
:100ED00008BF704748BF20F8022B11F0804F18BFA1
:100EE00000F8012B704700000048704714010020F3
:100EF000704770477047704738B504460A4600206F
:100F00006946AFF30080002808BF38BD024600994B
:100F1000204600F08FF9012038BD012000F0DEB935
:100F2000F8B5AFF30080054600200C460C2000BF4A
:100F30000646A819A0420DD9324669460020AFF3F3
:100F40000080070008BF00F0C9F90098A04218BF50
:100F50000546C419FFF7C8FF05600746F01D20F0DD
:100F600007004619284600F05FF9B44208BFF8BDF3
:100F7000A21B31463868BDE8F84000F05BB970B597
:100F80000646FFF7B1FF056806F10B0020F00704E5
:100F9000B4429CBF002070BD2B466A68BAB110688D
:100FA000A04210D304F1080188423CBF5068586049
:100FB00007D35168101941601168091B016058601E
:100FC0001460101D70BD13465268002AE7D12146F7
:100FD0002846FFF791FF0028DED170BD2DE9F041D2
:100FE000044616460D464769007B80072ED03846DA
:100FF00000F0E8FC50BB3EB3012E02D0022E25D1FA
:1010000004E0204600F030F905441DE0384600F0C9
:10101000D7FCE168002841F01001E16005DA2046C4
:1010200000F058F80120BDE8F081C9030BD56268D3
:10103000E16A914200D81146A26911442269891AD5
:10104000814200DD08460544002D01DA0220EAE76E
:10105000E16A6068E268814206D29103E06203D5EA
:1010600022F4003141F01002A6690027AE4213DCE1
:10107000E16A814201D90B4600E0034603EB060C0E
:101080002369ACEB030CAC4506DD814201D98C46EB
:1010900000E084469C4505D1A760276042F020000F
:1010A000A5620DE0AD1BE669AE1B8142A66000D9CA
:1010B0000846C01A281A20605819606022F02000E3
:1010C00003490840E060002084F84870ABE7000066
:1010D000BFCFD7FFC16821F4001141F08001C1608A
:1010E00000218160016070472DE9F74F15460C46DD
:1010F0004FF0FF3B3848D768D2F814A0074209D018
:101100005046A96900F098FC002819DB3248C0431A
:101110000740EF604FF000496FF000484C4501D3A5
:10112000464600E0264600993B465046324600F0CF
:1011300087FCA96920F00042B21A1144A96128B1C4
:101140002846FFF7C7FF5846BDE8FE8FA41BE5D130
:101150000020F9E770B504460569C06A61688842F5
:1011600000D80846E16821F42011E160C90312D5D6
:10117000A84208D02246411B2846FFF7B5FF10B110
:101180004FF0FF3070BD0020E562C4E90150E06817
:1011900020F48030E060002070BD10B50446C068C7
:1011A00020F02000E060A16AA06988420DD02046AE
:1011B000FFF7D0FFE06820F4405040F01000E060FE
:1011C000A06AA0612069E062606044F24001E068CA
:1011D0008843E06010BD000010000200002801D02C
:1011E00000F01CB87047000010B5014602A000F0E6
:1011F0005CF8012010BD0000534947525452454449
:101200003A2052656469726563743A2063616E279F
:1012100074206F70656E3A200000000001491820AC
:10122000ABBEFEE72600020000210160416070476E
:101230000C207047034640688C46002818BF88423F
:101240003CBF03464068F8D318681844884207D06A
:101250000CF1030020F00700001D411A521A01464C
:10126000081D0A60FFF71FBD10B50146C268900750
:1012700003D0900607D5886A0AE000F037F801210C
:101280000160881E10BD8B69486818440B69C01A3C
:1012900091F848301BB191F84910401A10BD110364
:1012A000FCD50028FADD401E10BD70B505460C4681
:1012B0000A2000E06D1C00F0D5FB35B1287800282D
:1012C000F8D102E0641C00F0CDFB14B120780028B6
:1012D000F8D1BDE870400A2000F0C4BB10B500F0A2
:1012E00009F8BDE81040FFF779BF70470048704724
:1012F0000C01002010B5012805D0002103A0FFF744
:10130000D4FF012010BD09A1F8E70000534947525E
:10131000544D454D3A204F7574206F6620686561C5
:1013200070206D656D6F7279000000003A2048658D
:101330006170206D656D6F727920636F7272757068
:1013400074656400012904D0022905D142F6E061E8
:1013500001E044F250614180826083807047000068
:101360002DE9F04782B00446082001214FF0010822
:1013700000F046F9A08844F60301ADF80400A06827
:10138000ADF8061001A900F0CFF800270FF26409AC
:101390001BA6002503E000BF4846FEF7D5FFA06866
:1013A000A18800F021F90028F6D05A2000F080FB37
:1013B000A068A18800F018F9C7F1070108FA01F246
:1013C00045EA020A0028A068A18808BF25EA020AA7
:1013D00000F00AF928B13046FEF7B6FFA068A188F0
:1013E000F6E70137082F5546D9D15FFA8AF002B0E7
:1013F000BDE8F087444854206E6F203100000000A3
:10140000444854206E6F203200000000F0B583B0D5
:1014100000250446057008200121012700F0F0F89E
:10142000A08841F20341ADF80400A068ADF80610B1
:1014300001A900F079F8A068A188002200F0DAF88C
:10144000608800F035FB0820012100F0D9F8A08861
:1014500044F60301ADF80800A068ADF80A1002A92F
:1014600000F062F8322000F023FBA068A18800F0B1
:10147000BBF868B95A2000F01BFBA068A18800F0F7
:10148000B3F80546B0FA80F04709002D18BF0125D2
:1014900018A02946FEF7C6FEA068A18800F0A4F8AF
:1014A000014618A0FEF7BEFE2FB11BA63046FEF780
:1014B0004BFF002FFAD120462570FFF751FF05465C
:1014C0002046FFF74DFF2046FFF74AFF064620461D
:1014D000FFF746FF2046FFF743FF0746304600F080
:1014E000EDFFE060284600F0E9FF01463846216143
:1014F00003B0F0BD526573706F6E7365203A20259E
:10150000640A00004448545F5265616450696E206B
:101510003A2025640A000000444854206E6F20726F
:101520006573706F6E640000CA7802F00F0CD3060A
:1015300044BF8B784CEA030C2DE9F04709880B0671
:1015400025D082465AF8144B00F1100E00254FF0BA
:1015500001094FF00F08002706E000BF1E600137A9
:10156000082F05F1040511D009FA07F60E42F6D04E
:1015700008FA05F324EA03030CFA05F41C43282AAD
:101580005346EBD0482AEAD17346E7E70460B1F549
:10159000807F38BFBDE8F087436800F1100E00F18E
:1015A000140900254FF4807A4FF00F08002705E05A
:1015B00034600137082F05F1040512D00AFA07F448
:1015C00004EA0106A642F4D108FA05F6B3430CFA80
:1015D00005F63343282A4E46EAD0482AE9D1764612
:1015E000E6E74360BDE8F0878068084018BF012047
:1015F000704700001023002A08BF1423C150704711
:10160000002941F21801C4F202010A680CBF22EA63
:10161000000010430860704710B541F20404C4F2A2
:101620000204226802F00C02082A41F20022C0F2F1
:101630007A0212D12368D4F800C0C3F3834E5FEA64
:10164000CC330EF1020C02D523689B0303D540F680
:101650000012C0F23D020CFB02F20260226842F26C
:101660001C63C2F30312C0F600039A5C0168D14008
:1016700041602268C2F302229A5C21FA02F282607F
:101680002268C2F3C2229A5C42F21863D140C16060
:101690002268C0F60003C2F381329A5CB1FBF2F11A
:1016A000016110BD40F20C00C2F20000016801317E
:1016B000016070474EF21000CEF200006FF07F41E3
:1016C000416007210160704782B041F20400C4F21A
:1016D000020050F8041C002241F0010140F8041CF3
:1016E0000168CFF6FF021140016050F8041C4FF66C
:1016F000FF72CFF6F662114040F8041C50F8041C4B
:1017000021F4802140F8041C016821F4FE010160ED
:101710004FF41F01416000210191009150F8041C19
:1017200041F4803140F8041C50F8041C01F40031ED
:101730000091019901310191009919B90199B1F50F
:10174000A06FF1D150F8041C890354BF002101217E
:1017500000910099012936D142F20001C4F2020140
:101760000A6842F010020A600A6822F007020A6062
:101770000A6842F002020A600168016001680160C3
:10178000016841F480610160016821F47C1101600D
:10179000016841F4E811016050F8041C41F08071C7
:1017A00040F8041C50F8041C8901FBD5016821F0A5
:1017B00003010160016841F002010160016801F06C
:1017C0000C010829FAD14EF60850CEF200004FF075
:1017D0000061016002B0704710B543F60004C4F226
:1017E0000104204640F2255100F04CF830B3204669
:1017F00000F0D4F8C1B20A2940F2D111C2F20001BE
:1018000013D1087840F2D212C2F2000210800A7896
:1018100040F28013C2F200030020985440F2D0122C
:10182000C2F200020123137007E00A7840F280132D
:10183000C2F200039854087801300870204640F244
:101840002551BDE8104000F005B80000C9430180F3
:1018500070470000090A012202FA01F1C943018020
:10186000704700008289002918BF012122F400522C
:1018700042EA4131818170470088084018BF012049
:1018800070470000C1F34212022A06D0012A14BF99
:1018900000F1140200F10C0201E000F110021288C4
:1018A000008801F01F03090ADA40C840104000F028
:1018B00001007047C1F3421301F01F0C1421022BE9
:1018C00008BF1021012B4FF0010308BF0C21002A93
:1018D00003FA0CF243580CBF23EA02021A434250A7
:1018E0007047000070B586B00446008A0D46C9886E
:1018F00020F4405008432082A0894EF6F31108409E
:10190000A9882A896B89084310431843A081A08ABB
:10191000A98920F44070084301AEA0823046FFF749
:101920007BFE43F6000106F10800C4F201018C427F
:1019300008BF06F10C0000681922B4F90C105043DE
:101940002A680123B1F1FF3FC8BF022302FA03F165
:10195000B0FBF1F048F21F51C5F2EB11A0FB0123DF
:101960005A096FF0630302FB0300B4F90C3003263D
:10197000B3F1FF3FC8BF042600FA06F000F13200C1
:10198000A0FB01014FF00700C8BF0F2000EA511073
:1019900040EA0210208106B070BD000080886FF31D
:1019A0005F2070476FF35F218180704748F2040128
:1019B000411A002011F1030F38BF4FF0FF3070477C
:1019C0000020704748F20101411A0020032938BF66
:1019D00001207047002804BF4FF0FF30704710B55A
:1019E000044600783A281CBF4FF0FF3010BD42F289
:1019F0003461C0F600012046FEF7BCFCB0B142F2F3
:101A00003B61C0F600012046FEF7B4FC88B142F20B
:101A10002C61C0F600012046FEF7ACFC01464FF0F9
:101A2000FF30002908BF48F2030010BD48F2010052
:101A300010BD48F2020010BD4FF0FF3070470000AB
:101A400048F2030188420AD048F2020188421CBFD2
:101A50004FF0FF30704712B1013A00BEFCD10020B8
:101A60007047000000BE7047002808BF7047B0B53F
:101A70004EF2180E40F20C0241F6401CCEF2000E5F
:101A8000C2F20002C0F2010C1168DEF800304CEA2C
:101A9000016100BF1468DEF8005003EB04640C1B06
:101AA0002C44002CF6DC0138EED1BDE8B040704784
:101AB00010B540F20C044EF2180EC2F20004CEF241
:101AC000000ED4F800C000EBC000DEF80030C0000B
:101AD00000EB0C602168DEF8002003EB0161411A85
:101AE00011440029F6DC10BDB0B543F60005C4F280
:101AF00001050446C1B22846FFF754FF284680215D
:101B0000FFF7BAFE0028F9D02046B0BDFFF7D2FD9E
:101B10004FF4165000F050F840F26C14C2F200047A
:101B200040F60042C4F20102204601214FF48053E6
:101B3000FFF708FC0FF2480813A616A71AA500BF66
:101B40004046FEF701FC2046FFF760FC01463046A8
:101B5000FEF768FBE06800F085FC024638460B465D
:101B6000FEF760FB206900F07DFC024628460B462C
:101B7000FEF758FB4FF47A70FFF776FFE0E700BFFF
:101B800053544152540000005354415254310A20DE
:101B9000256400004E6869657420646F3A202566EC
:101BA000202A430A00000000446F20416D3A20259E
:101BB000662025200A000000F0B585B005464FF4E8
:101BC00080400121FFF71CFD04200121FFF718FDD3
:101BD00043F6000440F20020C4F20104C1F6030001
:101BE000A4F5405604AF049030463946FFF79CFCFC
:101BF0004FF48060ADF8100048208DF81300304697
:101C00003946FFF791FC009500254FF44020CDE9BF
:101C1000015069462046ADF80C50FFF763FE2046A0
:101C20004021FFF713FE204640F225510122FFF725
:101C300041FE4EF20410CEF20000202101604EF26F
:101C40002540CEF200001021017020460121FFF74F
:101C500009FE40F2D010C2F20000057040F2D1102F
:101C6000C2F20000057040F2D210C2F200000580FE
:101C700005B0F0BD5FEA400C08BF91F0000F4FEADD
:101C80008C234FEAC12243EA51514FEA1C5018BF3E
:101C900000F5F0404FEA300018BF41F000415FEA24
:101CA0006C5C00F02980BCF1FF3F08BF40F0804031
:101CB0007047130C06BF12044FF0100C4FF0000CCD
:101CC000130E04BF12020CF1080C130F04BF120113
:101CD0000CF1040C930F04BF92000CF1020CD30F13
:101CE00004BF52000CF1010C11464FF00002A0F1AC
:101CF0001F00A0EB0C00704711F0004F08BF7047A9
:101D000031F000413FF4D5AF0B0C06BF09044FF092
:101D1000100C4FF0000C0B0E04BF09020CF1080C64
:101D20000B0F04BF09010CF1040C8B0F04BF8900D9
:101D30000CF1020CCB0F04BF49000CF1010CCCF1EB
:101D4000200322FA03F341EA030102FA0CF2A0EBAA
:101D50000C0000F10100704723F07F4720F07F4C1A
:101D600080EA030000F00040ACEB070303F57C536E
:101D700003F1FF032DE9804909B44FEA144324EA33
:101D800003484FEA154B25EA0B4E0FF2042606EBEB
:101D900013273E7803FB0667C7F5000707FB06F627
:101DA0004FEAD64606F102064FEA543707FB066CA7
:101DB000CCF1005C4FEA1C472CEA074C0CFB06F503
:101DC00007FB06F404EB15464FEA961649085FEA4E
:101DD000320234BF00204FF000404FEAD13706FBFB
:101DE00007FC4FEA1C4C0CFB0BF7D21B03FB0CF758
:101DF00061EB07010CFB0EF7B0EB074072EB1742EB
:101E00000CFB08F734BFA2EB0742B2EB074261EBD1
:101E100017414FEA0C444FEA910706FB07FC4FEAD3
:101E20001C4C0CFB0BF7B0EBC74072EB573203FBBB
:101E30000CF734BFA2EBC742B2EBC74261EB57319C
:101E40000CFB0EF7B0EBC70072EB57720CFB08F7F8
:101E500034BFA2EBC702B2EBC70261EB57714FEA86
:101E6000816141EA92114FEA826242EA90124FEA9E
:101E7000806004EBCC04039F4FEAD13706FB07FCDC
:101E80004FEA1C4C0CFB0BF7D21B03FB0CF761EB6E
:101E900007010CFB0EF7B0EB074072EB17420CFB8F
:101EA00008F734BFA2EB0742B2EB074261EB1741E0
:101EB0004FEA8C5504EB9C244FEA910706FB07FC84
:101EC0004FEA1C4C0CFB0BF7B0EBC74072EB5732E0
:101ED00003FB0CF734BFA2EBC742B2EBC74261EB86
:101EE00057310CFB0EF7B0EBC70072EB57720CFBCF
:101EF00008F734BFA2EBC702B2EBC70261EB577120
:101F00004FEA816141EA92114FEA826242EA9012FD
:101F10004FEA806015EB4C2544F100044FEAD137BD
:101F200006FB07FC4FEA1C4C0CFB0BF7D21B03FB18
:101F30000CF761EB07010CFB0EF7B0EB074072EBFF
:101F400017420CFB08F734BFA2EB0742B2EB074283
:101F500061EB17414FEA813141EA92414FEA823207
:101F600042EA90424FEA80304FEA0C7615EB1C159E
:101F700044F1000448EA03434EEA0B484FF0000ED8
:101F8000B2EB080C71EB030724BF624639464EEBF7
:101F90000E0E4FF0000B0018524149414BEB0B0B5A
:101FA000B2EB080C71EB03077BF1000B24BF624618
:101FB00039464EEB0E0E4FF0000B001852414941CE
:101FC0004BEB0B0BB2EB080C71EB03077BF1000B37
:101FD00024BF624639464EEB0E0E51EA020718BF87
:101FE00046F0010616EB0E7655F1000254F10001A1
:101FF00003D5BDE88901BDE80088BDE88901BDE8D9
:102000000048B619524141EB0101A3F101037047A9
:1020100080807F7E7D7C7B7A797877767675747325
:10202000727171706F6E6E6D6C6C6B6A6A696868E4
:10203000676666656464636362616160605F5F5E7A
:102040005E5D5D5C5C5B5B5A5A59595858575756F0
:102050005655555554545353525252515150505055
:102060004F4F4F4E4E4D4D4D4C4C4C4B4B4B4A4AA7
:102070004A494949484848474747474646464545EB
:102080004544444444434343434242424241414124
:102090009C46002B30D477002BD04FEA37071CB575
:1020A00003B44FF010004FF01001BAF1000F06D04A
:1020B000BCF1000FDCBF40F0080040F008014FF019
:1020C00000000FBCBDE810400BF1010BBBF1010F8C
:1020D00008BF5FEA170722BF12F1010211F10101E7
:1020E0004FF0004143F1000300F0004043EA0000DC
:1020F0007047F9D35708D0E746EA06464FEA164636
:1021000013F1400F1FDD13F1200FDFBF16430A4606
:10211000002120335B42BED0C3F1200746EA0646C9
:102120004FEA164602FA07F746EA070622FA03F2D2
:10213000C3F1200701FA07F742EA070221FA03F187
:102140004FF00003A7E746EA020646EA06464FEAD2
:10215000164646EA0106BCBF46EA0646360C4FF074
:1021600000034FF000024FF0000194E72DE9804C8E
:1021700070B49A46934691E8380007C831EA400C9B
:1021800048BF34EA430C03D5FFF7E6FDFFF780FFB5
:10219000F0BCBDE8008C2DE9804C70B49A469346A3
:1021A00091E8380007C810F0804F08BF13F0804F47
:1021B00003D100F005F8FFF76BFFF0BCBDE8008C21
:1021C00020F07F4723F07F4C80EA030000F00040BE
:1021D00007EB0C03A3F57C53A3F1FE0392F0000F71
:1021E00000F0B38095F0000F00F077802DE90149F1
:1021F0004FEA114021EA00484FEA144624EA064714
:1022000000FB06FC08FB06F607FB08F818EB06487F
:102210004CEB164C00FB07F718EB07484CEB17404C
:102220004FEA124B22EA0B4E4FEA154625EA0647C3
:102230000BFB06FC0EFB06F607FB0EFE1EEB064E26
:102240004CEB164C0BFB07F71EEB074E4CEB174BFA
:1022500018EB0B0840F1000018EB0E0B58EB0008D0
:1022600040F100008F1A4FF000014FF000063CBF14
:10227000C943661B14BFB5EB040C00213CBFC94326
:10228000F61B4FEA174427EA04454FEA1C472CEA9D
:10229000074C04FB076205FB07F70CFB05F616EB82
:1022A000074642EB174204FB0CFC16EB0C4642EBD4
:1022B0001C421BEB060658EB020241414EEA8E0E11
:1022C00046EA9E0601D5BDE80189B619524141EBA7
:1022D0000101A3F10103BDE801894FEA144524EA95
:1022E00005464FEA114721EA074C05FB07F406FBB8
:1022F00007F70CFB06F111EB074144EB174405FB14
:102300000CFC11EB0C4144EB1C444FEA124722EA4F
:10231000074C05FB07F206FB07F70CFB06F616EB6E
:10232000074642EB174205FB0CFC16EB0C4642EB52
:102330001C456A1854F1000148BF7047B619524154
:1023400041EB0101A3F10103704795F0000F37D075
:102350004FEA114221EA02464FEA144724EA074CA9
:1023600002FB07F106FB07F70CFB06F414EB07442E
:1023700041EB174102FB0CFC14EB0C4441EB1C41FC
:102380004FEA154725EA074C02FB07F506FB07F75E
:102390000CFB06F616EB074645EB174502FB0CFC5B
:1023A00016EB0C4645EB1C42121951F1000148BFD7
:1023B0007047B619524141EB0101A3F10103704787
:1023C0004FEA144524EA05464FEA114721EA074C33
:1023D00005FB07F106FB07F70CFB06F212EB0742C1
:1023E00041EB174105FB0CFC12EB0C4251EB1C417D
:1023F0004FF0000648BF7047921841EB0101A3F16E
:1024000001037047490050EAC12018BF04204A0D5B
:1024100018BF40F0010040F2FF72B2EB515F08BFFD
:1024200040F00200012808BF0520704710B50029C0
:102430000AD00878002807D005487844FDF79AFFAD
:10244000002801D0002010BD0248784410BD0000D3
:102450002A020000220200000808A0F500114FEA3D
:102460003101704743004FEAD30C4FEA3C0C434024
:102470001FBF40070CF1605113F0FE4F70471CF076
:10248000006F03D10CF00041002070470CF00043B6
:1024900043EA507040EACC0010B500F022F800BFCB
:1024A000000000924FEA0001FFF7D6BF4FF0004155
:1024B000A1F500214FF0000070470000B0FA80F352
:1024C00010FA03F2C3F19D030AD0D90501EB1220E3
:1024D000530638BF704700F1010008BF20F001002B
:1024E00070470EF1020E2EF0030E5EF8044B2442EC
:1024F00004D44FEA4102B2F17F4F11D84FEA4003B2
:10250000B3F17F4F0CD80ED14FEAD07C0CEB4C0CC2
:102510000CF1020CB2F17F4F08BF4CEBD17C04E010
:102520004FF0080C01E04FEAD17C0CEB4C0324FA8D
:1025300003F404F00704B4F1040C06D20EEB840C8F
:10254000BDE810404CF0010C6047DFE80CF00708D4
:1025500002024FF00040A0F5800010BD0846420086
:1025600018BFD2F1807288BF00F0004010BDFEF7A6
:1025700075B804000008000000000000000200011F
:102580000000100002400000000000A00000000059
:1025900005400000000000C8000000000C400000E2
:1025A0000000409C00000000194000000020BCBE5C
:1025B0000000000034400000BFC91B8E0000000472
:1025C000B5400000504BCFD06607E2CF01000000BD
:1025D0006C4100003E8251AADFEEA73401000000EA
:1025E000D9420000DCB5A0E23A301F97FFFFFFFFA1
:1025F000B4450000FD25A0C8E9A3C14FFFFFFFFFC0
:10260000FF3F00000000008000000000FF3F0000CE
:102610000000008000000000020406080000000026
:102620000102030401020304060708093A53544453
:10263000455252003A535444494E003A5354444F81
:102640005554000080260008000000201000000003
:10265000500100089026000810000020C807000064
:10266000700100081C00000043000000F8FFFFFF9D
:102670000C0000000E0000000F0000002E00000003
:102680000000000000000000000000000100000049
:04000005080000ED02
:00000001FF
